{
  "_format": "hh-sol-artifact-1",
  "contractName": "HintHelpers",
  "sourceName": "contracts/HintHelpers.sol",
  "abi": [
    {
      "anonymous": false,
      "inputs": [
        {
          "indexed": false,
          "internalType": "address",
          "name": "_collateralConfigAddress",
          "type": "address"
        }
      ],
      "name": "CollateralConfigAddressChanged",
      "type": "event"
    },
    {
      "anonymous": false,
      "inputs": [
        {
          "indexed": true,
          "internalType": "address",
          "name": "previousOwner",
          "type": "address"
        },
        {
          "indexed": true,
          "internalType": "address",
          "name": "newOwner",
          "type": "address"
        }
      ],
      "name": "OwnershipTransferred",
      "type": "event"
    },
    {
      "anonymous": false,
      "inputs": [
        {
          "indexed": false,
          "internalType": "address",
          "name": "_sortedTrovesAddress",
          "type": "address"
        }
      ],
      "name": "SortedTrovesAddressChanged",
      "type": "event"
    },
    {
      "anonymous": false,
      "inputs": [
        {
          "indexed": false,
          "internalType": "address",
          "name": "_troveManagerAddress",
          "type": "address"
        }
      ],
      "name": "TroveManagerAddressChanged",
      "type": "event"
    },
    {
      "inputs": [],
      "name": "BORROWING_FEE_FLOOR",
      "outputs": [
        {
          "internalType": "uint256",
          "name": "",
          "type": "uint256"
        }
      ],
      "stateMutability": "view",
      "type": "function"
    },
    {
      "inputs": [],
      "name": "DECIMAL_PRECISION",
      "outputs": [
        {
          "internalType": "uint256",
          "name": "",
          "type": "uint256"
        }
      ],
      "stateMutability": "view",
      "type": "function"
    },
    {
      "inputs": [],
      "name": "LUSD_GAS_COMPENSATION",
      "outputs": [
        {
          "internalType": "uint256",
          "name": "",
          "type": "uint256"
        }
      ],
      "stateMutability": "view",
      "type": "function"
    },
    {
      "inputs": [],
      "name": "MIN_NET_DEBT",
      "outputs": [
        {
          "internalType": "uint256",
          "name": "",
          "type": "uint256"
        }
      ],
      "stateMutability": "view",
      "type": "function"
    },
    {
      "inputs": [],
      "name": "NAME",
      "outputs": [
        {
          "internalType": "string",
          "name": "",
          "type": "string"
        }
      ],
      "stateMutability": "view",
      "type": "function"
    },
    {
      "inputs": [],
      "name": "PERCENT_DIVISOR",
      "outputs": [
        {
          "internalType": "uint256",
          "name": "",
          "type": "uint256"
        }
      ],
      "stateMutability": "view",
      "type": "function"
    },
    {
      "inputs": [],
      "name": "_100pct",
      "outputs": [
        {
          "internalType": "uint256",
          "name": "",
          "type": "uint256"
        }
      ],
      "stateMutability": "view",
      "type": "function"
    },
    {
      "inputs": [],
      "name": "activePool",
      "outputs": [
        {
          "internalType": "contract IActivePool",
          "name": "",
          "type": "address"
        }
      ],
      "stateMutability": "view",
      "type": "function"
    },
    {
      "inputs": [],
      "name": "collateralConfig",
      "outputs": [
        {
          "internalType": "contract ICollateralConfig",
          "name": "",
          "type": "address"
        }
      ],
      "stateMutability": "view",
      "type": "function"
    },
    {
      "inputs": [
        {
          "internalType": "uint256",
          "name": "_coll",
          "type": "uint256"
        },
        {
          "internalType": "uint256",
          "name": "_debt",
          "type": "uint256"
        },
        {
          "internalType": "uint256",
          "name": "_price",
          "type": "uint256"
        },
        {
          "internalType": "uint8",
          "name": "_collDecimals",
          "type": "uint8"
        }
      ],
      "name": "computeCR",
      "outputs": [
        {
          "internalType": "uint256",
          "name": "",
          "type": "uint256"
        }
      ],
      "stateMutability": "pure",
      "type": "function"
    },
    {
      "inputs": [
        {
          "internalType": "uint256",
          "name": "_coll",
          "type": "uint256"
        },
        {
          "internalType": "uint256",
          "name": "_debt",
          "type": "uint256"
        },
        {
          "internalType": "uint8",
          "name": "_collDecimals",
          "type": "uint8"
        }
      ],
      "name": "computeNominalCR",
      "outputs": [
        {
          "internalType": "uint256",
          "name": "",
          "type": "uint256"
        }
      ],
      "stateMutability": "pure",
      "type": "function"
    },
    {
      "inputs": [],
      "name": "defaultPool",
      "outputs": [
        {
          "internalType": "contract IDefaultPool",
          "name": "",
          "type": "address"
        }
      ],
      "stateMutability": "view",
      "type": "function"
    },
    {
      "inputs": [
        {
          "internalType": "uint256",
          "name": "_CR",
          "type": "uint256"
        },
        {
          "internalType": "uint256",
          "name": "_numTrials",
          "type": "uint256"
        },
        {
          "internalType": "uint256",
          "name": "_inputRandomSeed",
          "type": "uint256"
        }
      ],
      "name": "getApproxHint",
      "outputs": [
        {
          "internalType": "address",
          "name": "hintAddress",
          "type": "address"
        },
        {
          "internalType": "uint256",
          "name": "diff",
          "type": "uint256"
        },
        {
          "internalType": "uint256",
          "name": "latestRandomSeed",
          "type": "uint256"
        }
      ],
      "stateMutability": "view",
      "type": "function"
    },
    {
      "inputs": [
        {
          "internalType": "address",
          "name": "_collateral",
          "type": "address"
        }
      ],
      "name": "getEntireSystemColl",
      "outputs": [
        {
          "internalType": "uint256",
          "name": "entireSystemColl",
          "type": "uint256"
        }
      ],
      "stateMutability": "view",
      "type": "function"
    },
    {
      "inputs": [
        {
          "internalType": "address",
          "name": "_collateral",
          "type": "address"
        }
      ],
      "name": "getEntireSystemDebt",
      "outputs": [
        {
          "internalType": "uint256",
          "name": "entireSystemDebt",
          "type": "uint256"
        }
      ],
      "stateMutability": "view",
      "type": "function"
    },
    {
      "inputs": [
        {
          "internalType": "uint256",
          "name": "_amount",
          "type": "uint256"
        },
        {
          "internalType": "uint256",
          "name": "_price",
          "type": "uint256"
        },
        {
          "internalType": "uint256",
          "name": "_maxIterations",
          "type": "uint256"
        }
      ],
      "name": "getRedemptionHints",
      "outputs": [
        {
          "internalType": "address",
          "name": "firstRedemptionHint",
          "type": "address"
        },
        {
          "internalType": "uint256",
          "name": "partialRedemptionHintNICR",
          "type": "uint256"
        },
        {
          "internalType": "uint256",
          "name": "truncatedTHUSDamount",
          "type": "uint256"
        }
      ],
      "stateMutability": "view",
      "type": "function"
    },
    {
      "inputs": [],
      "name": "owner",
      "outputs": [
        {
          "internalType": "address",
          "name": "",
          "type": "address"
        }
      ],
      "stateMutability": "view",
      "type": "function"
    },
    {
      "inputs": [],
      "name": "priceFeed",
      "outputs": [
        {
          "internalType": "contract IPriceFeed",
          "name": "",
          "type": "address"
        }
      ],
      "stateMutability": "view",
      "type": "function"
    },
    {
      "inputs": [],
      "name": "renounceOwnership",
      "outputs": [],
      "stateMutability": "nonpayable",
      "type": "function"
    },
    {
      "inputs": [
        {
          "internalType": "address",
          "name": "_collateralConfigAddress",
          "type": "address"
        },
        {
          "internalType": "address",
          "name": "_sortedTrovesAddress",
          "type": "address"
        },
        {
          "internalType": "address",
          "name": "_troveManagerAddress",
          "type": "address"
        }
      ],
      "name": "setAddresses",
      "outputs": [],
      "stateMutability": "nonpayable",
      "type": "function"
    },
    {
      "inputs": [],
      "name": "sortedTroves",
      "outputs": [
        {
          "internalType": "contract ISortedTroves",
          "name": "",
          "type": "address"
        }
      ],
      "stateMutability": "view",
      "type": "function"
    },
    {
      "inputs": [
        {
          "internalType": "address",
          "name": "newOwner",
          "type": "address"
        }
      ],
      "name": "transferOwnership",
      "outputs": [],
      "stateMutability": "nonpayable",
      "type": "function"
    },
    {
      "inputs": [],
      "name": "troveManager",
      "outputs": [
        {
          "internalType": "contract ITroveManager",
          "name": "",
          "type": "address"
        }
      ],
      "stateMutability": "view",
      "type": "function"
    }
  ],
  "bytecode": "0x608060405234801561001057600080fd5b5060006100246001600160e01b0361007716565b600380546001600160a01b0319166001600160a01b038316908117909155604051919250906000907f8be0079c531659141344cd1fd0a4f28419497f9722a3daafe3b4186f6b6457e0908290a35061007b565b3390565b611ac88061008a6000396000f3fe608060405234801561001057600080fd5b506004361061014d5760003560e01c8063715018a6116100c3578063a20baee61161007c578063a20baee6146102e2578063a3f4df7e14610328578063acec9edf146103a5578063ae918754146103d1578063f2fde38b146103d9578063f92d3433146103ff5761014d565b8063715018a6146102da57806372fe25aa146102e2578063741bef1a146102ea5780637f7dde4a146102f25780638da5cb5b146102fa5780639e86d0c4146103025761014d565b8063363bf96411610115578063363bf9641461022c5780633cc74225146102665780633d83908a1461028a5780634870dd9a146102925780635c0ab4de1461029a578063701526b4146102a25761014d565b80630f765544146101525780631bf435551461019657806327d04b351461019e5780632e86bbd8146101c4578063301be459146101cc575b600080fd5b6101846004803603608081101561016857600080fd5b508035906020810135906040810135906060013560ff16610407565b60408051918252519081900360200190f35b610184610423565b610184600480360360208110156101b457600080fd5b50356001600160a01b0316610430565b61018461053e565b610204600480360360808110156101e257600080fd5b506001600160a01b03813516906020810135906040810135906060013561054a565b604080516001600160a01b039094168452602084019290925282820152519081900360600190f35b6102646004803603606081101561024257600080fd5b506001600160a01b038135811691602081013582169160409091013516610cb6565b005b61026e610e37565b604080516001600160a01b039092168252519081900360200190f35b61026e610e46565b610184610e55565b61026e610e5a565b610204600480360360808110156102b857600080fd5b506001600160a01b038135169060208101359060408101359060600135610e69565b6102646111a0565b61018461125e565b61026e61126a565b61026e611279565b61026e611288565b6101846004803603602081101561031857600080fd5b50356001600160a01b0316611297565b610330611367565b6040805160208082528351818301528351919283929083019185019080838360005b8381101561036a578181015183820152602001610352565b50505050905090810190601f1680156103975780820380516001836020036101000a031916815260200191505b509250505060405180910390f35b610184600480360360608110156103bb57600080fd5b508035906020810135906040013560ff1661138e565b61026e6113a8565b610264600480360360208110156103ef57600080fd5b50356001600160a01b03166113b7565b6101846114cc565b60006104188585858560ff166114d7565b90505b949350505050565b6804e1003b28d928000081565b6000805460408051634b14fa8760e01b81526001600160a01b038581166004830152915184939290921691634b14fa8791602480820192602092909190829003018186803b15801561048157600080fd5b505afa158015610495573d6000803e3d6000fd5b505050506040513d60208110156104ab57600080fd5b505160015460408051634b14fa8760e01b81526001600160a01b03878116600483015291519394506000939190921691634b14fa87916024808301926020929190829003018186803b15801561050057600080fd5b505afa158015610514573d6000803e3d6000fd5b505050506040513d602081101561052a57600080fd5b5051905061041b828263ffffffff61151616565b678ac7230489e8000081565b600080600061055887611579565b6105606119df565b600480546040805163eb7aac5f60e01b81526001600160a01b038c8116948201949094529051929091169163eb7aac5f91602480820192602092909190829003018186803b1580156105b157600080fd5b505afa1580156105c5573d6000803e3d6000fd5b505050506040513d60208110156105db57600080fd5b5051815260048054604080516311e2c60b60e11b81526001600160a01b038c811694820194909452905192909116916323c58c1691602480820192602092909190829003018186803b15801561063057600080fd5b505afa158015610644573d6000803e3d6000fd5b505050506040513d602081101561065a57600080fd5b505160208281019190915260408083018990526005546001600160a01b03908116606085018190528251637608271560e01b8152918c16600483015291519192637608271592602480840193829003018186803b1580156106ba57600080fd5b505afa1580156106ce573d6000803e3d6000fd5b505050506040513d60208110156106e457600080fd5b50516001600160a01b031660808201525b60808101516001600160a01b0316158015906107a0575060208082015160065460808401516040805163b1eafaab60e01b81526001600160a01b0392831660048201528d83166024820152604481018c905290519394919092169263b1eafaab926064808201939291829003018186803b15801561077257600080fd5b505afa158015610786573d6000803e3d6000fd5b505050506040513d602081101561079c57600080fd5b5051105b1561083f5760608101516080820151604080516239c6e160ea1b81526001600160a01b038c8116600483015292831660248201529051919092169163e71b8400916044808301926020929190829003018186803b15801561080057600080fd5b505afa158015610814573d6000803e3d6000fd5b505050506040513d602081101561082a57600080fd5b50516001600160a01b031660808201526106f5565b60808101519350846108515760001994505b60808101516001600160a01b031615801590610871575060008160400151115b8015610881575060001985019415155b15610c93576006546080820151604080516339c004f360e11b81526001600160a01b0392831660048201528b8316602482015290516109ad93929092169163738009e691604480820192602092909190829003018186803b1580156108e557600080fd5b505afa1580156108f9573d6000803e3d6000fd5b505050506040513d602081101561090f57600080fd5b5051600654608084015160408051631e7c58c160e31b81526001600160a01b0392831660048201528d8316602482015290516109a193929092169163f3e2c60891604480820192602092909190829003018186803b15801561097057600080fd5b505afa158015610984573d6000803e3d6000fd5b505050506040513d602081101561099a57600080fd5b505161164a565b9063ffffffff61151616565b60a0820181905260408201511015610bdb576804e1003b28d92800008160a001511115610bd657610a0181604001516109fc6804e1003b28d92800008460a0015161166490919063ffffffff16565b6116a6565b60c082015260065460808201516040805163752fd9a160e01b81526001600160a01b0392831660048201528b831660248201529051610b2393929092169163752fd9a191604480820192602092909190829003018186803b158015610a6557600080fd5b505afa158015610a79573d6000803e3d6000fd5b505050506040513d6020811015610a8f57600080fd5b505160065460808401516040805163305a536960e01b81526001600160a01b0392831660048201528d831660248201529051919092169163305a5369916044808301926020929190829003018186803b158015610aeb57600080fd5b505afa158015610aff573d6000803e3d6000fd5b505050506040513d6020811015610b1557600080fd5b50519063ffffffff61151616565b60e0820152805160c0820151610b6991610b58918991610b4c9190600a0a63ffffffff6116bc16565b9063ffffffff61171516565b60e08301519063ffffffff61166416565b61010082015260c081015160a0820151610b889163ffffffff61166416565b6101208201819052610b9990611757565b61014082018190526101008201518251610bb39290611771565b9250610bd08160c00151826040015161166490919063ffffffff16565b60408201525b610c93565b60a08101516040820151610bf49163ffffffff61166416565b604082015260608101516080820151604080516239c6e160ea1b81526001600160a01b038c8116600483015292831660248201529051919092169163e71b8400916044808301926020929190829003018186803b158015610c5457600080fd5b505afa158015610c68573d6000803e3d6000fd5b505050506040513d6020811015610c7e57600080fd5b50516001600160a01b03166080820152610851565b6040810151610ca990889063ffffffff61166416565b9150509450945094915050565b610cbe6117b5565b6001600160a01b0316610ccf611288565b6001600160a01b031614610d2a576040805162461bcd60e51b815260206004820181905260248201527f4f776e61626c653a2063616c6c6572206973206e6f7420746865206f776e6572604482015290519081900360640190fd5b610d33836117b9565b610d3c826117b9565b610d45816117b9565b600480546001600160a01b038086166001600160a01b0319928316811790935560058054868316908416179055600680549185169190921617905560408051918252517f6a69409f44477d8556c3c8040edc75d9bc1b3dee7846f6045c0b99556fe7bc919181900360200190a1604080516001600160a01b038416815290517f65f4cf077bc01e4742eb5ad98326f6e95b63548ea24b17f8d5e823111fe788009181900360200190a1604080516001600160a01b038316815290517f143219c9e69b09e07e095fcc889b43d8f46ca892bba65f08dc3a0050869a56789181900360200190a1610e326111a0565b505050565b6001546001600160a01b031681565b6006546001600160a01b031681565b60c881565b6004546001600160a01b031681565b6000806000610e7787611579565b600654604080516320618ae960e11b81526001600160a01b038a81166004830152915160009392909216916340c315d291602480820192602092909190829003018186803b158015610ec857600080fd5b505afa158015610edc573d6000803e3d6000fd5b505050506040513d6020811015610ef257600080fd5b5051905080610f0b575060009250829150839050611196565b60055460408051637608271560e01b81526001600160a01b038b81166004830152915191909216916376082715916024808301926020929190829003018186803b158015610f5857600080fd5b505afa158015610f6c573d6000803e3d6000fd5b505050506040513d6020811015610f8257600080fd5b5051600654604080516390ec230160e01b81526001600160a01b0380851660048301528c811660248301529151939750611014938b9392909216916390ec230191604480820192602092909190829003018186803b158015610fe357600080fd5b505afa158015610ff7573d6000803e3d6000fd5b505050506040513d602081101561100d57600080fd5b505161186c565b925084915060015b868110156111935760408051602080820195909552815180820386018152908201909152805193019290922091600082848161105457fe5b60065460408051638424ce7760e01b81526001600160a01b038f811660048301529490930660248401819052905190945060009390911691638424ce77916044808301926020929190829003018186803b1580156110b157600080fd5b505afa1580156110c5573d6000803e3d6000fd5b505050506040513d60208110156110db57600080fd5b5051600654604080516390ec230160e01b81526001600160a01b0380851660048301528f81166024830152915193945060009391909216916390ec2301916044808301926020929190829003018186803b15801561113857600080fd5b505afa15801561114c573d6000803e3d6000fd5b505050506040513d602081101561116257600080fd5b505190506000611172828d61186c565b905087811015611183578097508298505b50506001909201915061101c9050565b50505b9450945094915050565b6111a86117b5565b6001600160a01b03166111b9611288565b6001600160a01b031614611214576040805162461bcd60e51b815260206004820181905260248201527f4f776e61626c653a2063616c6c6572206973206e6f7420746865206f776e6572604482015290519081900360640190fd5b6003546040516000916001600160a01b0316907f8be0079c531659141344cd1fd0a4f28419497f9722a3daafe3b4186f6b6457e0908390a3600380546001600160a01b0319169055565b670de0b6b3a764000081565b6002546001600160a01b031681565b6000546001600160a01b031681565b6003546001600160a01b031690565b6000805460408051639b56d6c960e01b81526001600160a01b038581166004830152915184939290921691639b56d6c991602480820192602092909190829003018186803b1580156112e857600080fd5b505afa1580156112fc573d6000803e3d6000fd5b505050506040513d602081101561131257600080fd5b505160015460408051639b56d6c960e01b81526001600160a01b03878116600483015291519394506000939190921691639b56d6c9916024808301926020929190829003018186803b15801561050057600080fd5b6040518060400160405280600b81526020016a48696e7448656c7065727360a81b81525081565b600061139e84848460ff16611771565b90505b9392505050565b6005546001600160a01b031681565b6113bf6117b5565b6001600160a01b03166113d0611288565b6001600160a01b03161461142b576040805162461bcd60e51b815260206004820181905260248201527f4f776e61626c653a2063616c6c6572206973206e6f7420746865206f776e6572604482015290519081900360640190fd5b6001600160a01b0381166114705760405162461bcd60e51b8152600401808060200182810382526026815260200180611a4c6026913960400191505060405180910390fd5b6003546040516001600160a01b038084169216907f8be0079c531659141344cd1fd0a4f28419497f9722a3daafe3b4186f6b6457e090600090a3600380546001600160a01b0319166001600160a01b0392909216919091179055565b6611c37937e0800081565b6000831561150d5760006114eb868461189b565b9050600061150386610b4c848863ffffffff6116bc16565b925061041b915050565b5060001961041b565b600082820183811015611570576040805162461bcd60e51b815260206004820152601b60248201527f536166654d6174683a206164646974696f6e206f766572666c6f770000000000604482015290519081900360640190fd5b90505b92915050565b6004805460408051630658339960e51b81526001600160a01b03858116948201949094529051929091169163cb06732091602480820192602092909190829003018186803b1580156115ca57600080fd5b505afa1580156115de573d6000803e3d6000fd5b505050506040513d60208110156115f457600080fd5b5051611647576040805162461bcd60e51b815260206004820152601a60248201527f496e76616c696420636f6c6c61746572616c2061646472657373000000000000604482015290519081900360640190fd5b50565b600061157382678ac7230489e8000063ffffffff61166416565b600061157083836040518060400160405280601e81526020017f536166654d6174683a207375627472616374696f6e206f766572666c6f7700008152506118e3565b60008183106116b55781611570565b5090919050565b6000826116cb57506000611573565b828202828482816116d857fe5b04146115705760405162461bcd60e51b8152600401808060200182810382526021815260200180611a726021913960400191505060405180910390fd5b600061157083836040518060400160405280601a81526020017f536166654d6174683a206469766973696f6e206279207a65726f00000000000081525061197a565b600061157382678ac7230489e8000063ffffffff61151616565b600082156117ac576000611785858461189b565b90506117a484610b4c8368056bc75e2d6310000063ffffffff6116bc16565b9150506113a1565b506000196113a1565b3390565b6001600160a01b038116611814576040805162461bcd60e51b815260206004820152601e60248201527f4163636f756e742063616e6e6f74206265207a65726f20616464726573730000604482015290519081900360640190fd5b803b80611868576040805162461bcd60e51b815260206004820181905260248201527f4163636f756e7420636f64652073697a652063616e6e6f74206265207a65726f604482015290519081900360640190fd5b5050565b60008183101561188b57611886828463ffffffff61166416565b611570565b611570838363ffffffff61166416565b8160128211156118c3576118bc816011198401600a0a63ffffffff61171516565b9050611573565b601282101561157357611570816012849003600a0a63ffffffff6116bc16565b600081848411156119725760405162461bcd60e51b81526004018080602001828103825283818151815260200191508051906020019080838360005b8381101561193757818101518382015260200161191f565b50505050905090810190601f1680156119645780820380516001836020036101000a031916815260200191505b509250505060405180910390fd5b505050900390565b600081836119c95760405162461bcd60e51b815260206004820181815283516024840152835190928392604490910191908501908083836000831561193757818101518382015260200161191f565b5060008385816119d557fe5b0495945050505050565b60405180610160016040528060008152602001600081526020016000815260200160006001600160a01b0316815260200160006001600160a01b03168152602001600081526020016000815260200160008152602001600081526020016000815260200160008152509056fe4f776e61626c653a206e6577206f776e657220697320746865207a65726f2061646472657373536166654d6174683a206d756c7469706c69636174696f6e206f766572666c6f77a26469706673582212204b9294c1082a8fb9e7ab6ee5e20e49225fc66f279d65b66b575ce50b9cd1eb0964736f6c634300060b0033",
  "linkReferences": {},
  "deployedLinkReferences": {}
}