{
  "_format": "hh-sol-artifact-1",
  "contractName": "SortedTroves",
  "sourceName": "contracts/SortedTroves.sol",
  "abi": [
    {
      "anonymous": false,
      "inputs": [
        {
          "indexed": false,
          "internalType": "address",
          "name": "_borrowerOperationsAddress",
          "type": "address"
        }
      ],
      "name": "BorrowerOperationsAddressChanged",
      "type": "event"
    },
    {
      "anonymous": false,
      "inputs": [
        {
          "indexed": false,
          "internalType": "address",
          "name": "_collateral",
          "type": "address"
        },
        {
          "indexed": false,
          "internalType": "address",
          "name": "_id",
          "type": "address"
        },
        {
          "indexed": false,
          "internalType": "uint256",
          "name": "_NICR",
          "type": "uint256"
        }
      ],
      "name": "NodeAdded",
      "type": "event"
    },
    {
      "anonymous": false,
      "inputs": [
        {
          "indexed": false,
          "internalType": "address",
          "name": "_collateral",
          "type": "address"
        },
        {
          "indexed": false,
          "internalType": "address",
          "name": "_id",
          "type": "address"
        }
      ],
      "name": "NodeRemoved",
      "type": "event"
    },
    {
      "anonymous": false,
      "inputs": [
        {
          "indexed": true,
          "internalType": "address",
          "name": "previousOwner",
          "type": "address"
        },
        {
          "indexed": true,
          "internalType": "address",
          "name": "newOwner",
          "type": "address"
        }
      ],
      "name": "OwnershipTransferred",
      "type": "event"
    },
    {
      "anonymous": false,
      "inputs": [
        {
          "indexed": false,
          "internalType": "address",
          "name": "_sortedDoublyLLAddress",
          "type": "address"
        }
      ],
      "name": "SortedTrovesAddressChanged",
      "type": "event"
    },
    {
      "anonymous": false,
      "inputs": [
        {
          "indexed": false,
          "internalType": "address",
          "name": "_troveManagerAddress",
          "type": "address"
        }
      ],
      "name": "TroveManagerAddressChanged",
      "type": "event"
    },
    {
      "inputs": [],
      "name": "NAME",
      "outputs": [
        {
          "internalType": "string",
          "name": "",
          "type": "string"
        }
      ],
      "stateMutability": "view",
      "type": "function"
    },
    {
      "inputs": [],
      "name": "borrowerOperationsAddress",
      "outputs": [
        {
          "internalType": "address",
          "name": "",
          "type": "address"
        }
      ],
      "stateMutability": "view",
      "type": "function"
    },
    {
      "inputs": [
        {
          "internalType": "address",
          "name": "_collateral",
          "type": "address"
        },
        {
          "internalType": "address",
          "name": "_id",
          "type": "address"
        }
      ],
      "name": "contains",
      "outputs": [
        {
          "internalType": "bool",
          "name": "",
          "type": "bool"
        }
      ],
      "stateMutability": "view",
      "type": "function"
    },
    {
      "inputs": [
        {
          "internalType": "address",
          "name": "",
          "type": "address"
        }
      ],
      "name": "data",
      "outputs": [
        {
          "internalType": "address",
          "name": "head",
          "type": "address"
        },
        {
          "internalType": "address",
          "name": "tail",
          "type": "address"
        },
        {
          "internalType": "uint256",
          "name": "size",
          "type": "uint256"
        }
      ],
      "stateMutability": "view",
      "type": "function"
    },
    {
      "inputs": [
        {
          "internalType": "address",
          "name": "_collateral",
          "type": "address"
        },
        {
          "internalType": "uint256",
          "name": "_NICR",
          "type": "uint256"
        },
        {
          "internalType": "address",
          "name": "_prevId",
          "type": "address"
        },
        {
          "internalType": "address",
          "name": "_nextId",
          "type": "address"
        }
      ],
      "name": "findInsertPosition",
      "outputs": [
        {
          "internalType": "address",
          "name": "",
          "type": "address"
        },
        {
          "internalType": "address",
          "name": "",
          "type": "address"
        }
      ],
      "stateMutability": "view",
      "type": "function"
    },
    {
      "inputs": [
        {
          "internalType": "address",
          "name": "_collateral",
          "type": "address"
        }
      ],
      "name": "getFirst",
      "outputs": [
        {
          "internalType": "address",
          "name": "",
          "type": "address"
        }
      ],
      "stateMutability": "view",
      "type": "function"
    },
    {
      "inputs": [
        {
          "internalType": "address",
          "name": "_collateral",
          "type": "address"
        }
      ],
      "name": "getLast",
      "outputs": [
        {
          "internalType": "address",
          "name": "",
          "type": "address"
        }
      ],
      "stateMutability": "view",
      "type": "function"
    },
    {
      "inputs": [
        {
          "internalType": "address",
          "name": "_collateral",
          "type": "address"
        },
        {
          "internalType": "address",
          "name": "_id",
          "type": "address"
        }
      ],
      "name": "getNext",
      "outputs": [
        {
          "internalType": "address",
          "name": "",
          "type": "address"
        }
      ],
      "stateMutability": "view",
      "type": "function"
    },
    {
      "inputs": [
        {
          "internalType": "address",
          "name": "_collateral",
          "type": "address"
        },
        {
          "internalType": "address",
          "name": "_id",
          "type": "address"
        }
      ],
      "name": "getPrev",
      "outputs": [
        {
          "internalType": "address",
          "name": "",
          "type": "address"
        }
      ],
      "stateMutability": "view",
      "type": "function"
    },
    {
      "inputs": [
        {
          "internalType": "address",
          "name": "_collateral",
          "type": "address"
        }
      ],
      "name": "getSize",
      "outputs": [
        {
          "internalType": "uint256",
          "name": "",
          "type": "uint256"
        }
      ],
      "stateMutability": "view",
      "type": "function"
    },
    {
      "inputs": [
        {
          "internalType": "address",
          "name": "_collateral",
          "type": "address"
        },
        {
          "internalType": "address",
          "name": "_id",
          "type": "address"
        },
        {
          "internalType": "uint256",
          "name": "_NICR",
          "type": "uint256"
        },
        {
          "internalType": "address",
          "name": "_prevId",
          "type": "address"
        },
        {
          "internalType": "address",
          "name": "_nextId",
          "type": "address"
        }
      ],
      "name": "insert",
      "outputs": [
        {
          "internalType": "address",
          "name": "",
          "type": "address"
        },
        {
          "internalType": "address",
          "name": "",
          "type": "address"
        }
      ],
      "stateMutability": "nonpayable",
      "type": "function"
    },
    {
      "inputs": [
        {
          "internalType": "address",
          "name": "_collateral",
          "type": "address"
        }
      ],
      "name": "isEmpty",
      "outputs": [
        {
          "internalType": "bool",
          "name": "",
          "type": "bool"
        }
      ],
      "stateMutability": "view",
      "type": "function"
    },
    {
      "inputs": [],
      "name": "owner",
      "outputs": [
        {
          "internalType": "address",
          "name": "",
          "type": "address"
        }
      ],
      "stateMutability": "view",
      "type": "function"
    },
    {
      "inputs": [
        {
          "internalType": "address",
          "name": "_id",
          "type": "address"
        },
        {
          "internalType": "address",
          "name": "_collateral",
          "type": "address"
        },
        {
          "internalType": "uint256",
          "name": "_newNICR",
          "type": "uint256"
        },
        {
          "internalType": "address",
          "name": "_prevId",
          "type": "address"
        },
        {
          "internalType": "address",
          "name": "_nextId",
          "type": "address"
        }
      ],
      "name": "reInsert",
      "outputs": [
        {
          "internalType": "address",
          "name": "",
          "type": "address"
        },
        {
          "internalType": "address",
          "name": "",
          "type": "address"
        }
      ],
      "stateMutability": "nonpayable",
      "type": "function"
    },
    {
      "inputs": [
        {
          "internalType": "address",
          "name": "_collateral",
          "type": "address"
        },
        {
          "internalType": "address",
          "name": "_id",
          "type": "address"
        }
      ],
      "name": "remove",
      "outputs": [],
      "stateMutability": "nonpayable",
      "type": "function"
    },
    {
      "inputs": [],
      "name": "renounceOwnership",
      "outputs": [],
      "stateMutability": "nonpayable",
      "type": "function"
    },
    {
      "inputs": [
        {
          "internalType": "address",
          "name": "_troveManagerAddress",
          "type": "address"
        },
        {
          "internalType": "address",
          "name": "_borrowerOperationsAddress",
          "type": "address"
        }
      ],
      "name": "setParams",
      "outputs": [],
      "stateMutability": "nonpayable",
      "type": "function"
    },
    {
      "inputs": [
        {
          "internalType": "address",
          "name": "newOwner",
          "type": "address"
        }
      ],
      "name": "transferOwnership",
      "outputs": [],
      "stateMutability": "nonpayable",
      "type": "function"
    },
    {
      "inputs": [],
      "name": "troveManager",
      "outputs": [
        {
          "internalType": "contract ITroveManager",
          "name": "",
          "type": "address"
        }
      ],
      "stateMutability": "view",
      "type": "function"
    },
    {
      "inputs": [
        {
          "internalType": "address",
          "name": "_collateral",
          "type": "address"
        },
        {
          "internalType": "uint256",
          "name": "_NICR",
          "type": "uint256"
        },
        {
          "internalType": "address",
          "name": "_prevId",
          "type": "address"
        },
        {
          "internalType": "address",
          "name": "_nextId",
          "type": "address"
        }
      ],
      "name": "validInsertPosition",
      "outputs": [
        {
          "internalType": "bool",
          "name": "",
          "type": "bool"
        }
      ],
      "stateMutability": "view",
      "type": "function"
    }
  ],
  "bytecode": "0x608060405234801561001057600080fd5b5060006100246001600160e01b0361007316565b600080546001600160a01b0319166001600160a01b0383169081178255604051929350917f8be0079c531659141344cd1fd0a4f28419497f9722a3daafe3b4186f6b6457e0908290a350610077565b3390565b611e88806100866000396000f3fe608060405234801561001057600080fd5b506004361061012c5760003560e01c80638da5cb5b116100ad578063bff365c411610071578063bff365c414610436578063e71b840014610472578063eceea2fb146104a0578063ed26cae8146104dc578063f2fde38b1461050a5761012c565b80638da5cb5b14610313578063a3f4df7e1461031b578063b7f8cf9b14610398578063b90d3d0c146103a0578063bc9b5bd5146103f05761012c565b8063715018a6116100f4578063715018a61461021b57806376082715146102255780637c933c0a1461024b5780637f6594a8146102b75780637f7c1491146102e55761012c565b80631bdb4c8d1461013157806339ed25cd146101735780633b725b23146101a15780633d83908a146101db578063504f1671146101e3575b600080fd5b6101576004803603602081101561014757600080fd5b50356001600160a01b0316610530565b604080516001600160a01b039092168252519081900360200190f35b6101576004803603604081101561018957600080fd5b506001600160a01b038135811691602001351661054e565b6101c7600480360360208110156101b757600080fd5b50356001600160a01b0316610580565b604080519115158252519081900360200190f35b61015761059f565b610209600480360360208110156101f957600080fd5b50356001600160a01b03166105ae565b60408051918252519081900360200190f35b6102236105cc565b005b6101576004803603602081101561023b57600080fd5b50356001600160a01b031661068a565b610291600480360360a081101561026157600080fd5b506001600160a01b03813581169160208101358216916040820135916060810135821691608090910135166106ab565b604080516001600160a01b03938416815291909216602082015281519081900390910190f35b610223600480360360408110156102cd57600080fd5b506001600160a01b03813581169160200135166106e3565b610223600480360360408110156102fb57600080fd5b506001600160a01b0381358116916020013516610811565b610157610823565b610323610832565b6040805160208082528351818301528351919283929083019185019080838360005b8381101561035d578181015183820152602001610345565b50505050905090810190601f16801561038a5780820380516001836020036101000a031916815260200191505b509250505060405180910390f35b61015761085a565b6103c6600480360360208110156103b657600080fd5b50356001600160a01b0316610869565b604080516001600160a01b0394851681529290931660208301528183015290519081900360600190f35b610291600480360360a081101561040657600080fd5b506001600160a01b0381358116916020810135821691604082013591606081013582169160809091013516610897565b6102916004803603608081101561044c57600080fd5b506001600160a01b0381358116916020810135916040820135811691606001351661094d565b6101576004803603604081101561048857600080fd5b506001600160a01b0381358116916020013516610979565b6101c7600480360360808110156104b657600080fd5b506001600160a01b038135811691602081013591604082013581169160600135166109a9565b6101c7600480360360408110156104f257600080fd5b506001600160a01b03813581169160200135166109ce565b6102236004803603602081101561052057600080fd5b50356001600160a01b03166109fd565b6001600160a01b039081166000908152600360205260409020541690565b6001600160a01b0391821660009081526003602081815260408084209486168452939091019052205461010090041690565b6001600160a01b03166000908152600360205260409020600201541590565b6002546001600160a01b031681565b6001600160a01b031660009081526003602052604090206002015490565b6105d4610b11565b6001600160a01b03166105e5610823565b6001600160a01b031614610640576040805162461bcd60e51b815260206004820181905260248201527f4f776e61626c653a2063616c6c6572206973206e6f7420746865206f776e6572604482015290519081900360640190fd5b600080546040516001600160a01b03909116907f8be0079c531659141344cd1fd0a4f28419497f9722a3daafe3b4186f6b6457e0908390a3600080546001600160a01b0319169055565b6001600160a01b039081166000908152600360205260409020600101541690565b60025460009081906001600160a01b03166106c581610b15565b6106d3818989898989610b74565b92509250505b9550959350505050565b6106eb610b11565b6001600160a01b03166106fc610823565b6001600160a01b031614610757576040805162461bcd60e51b815260206004820181905260248201527f4f776e61626c653a2063616c6c6572206973206e6f7420746865206f776e6572604482015290519081900360640190fd5b610760826110af565b610769816110af565b600280546001600160a01b038085166001600160a01b03199283168117909355600180549185169190921617905560408051918252517f143219c9e69b09e07e095fcc889b43d8f46ca892bba65f08dc3a0050869a56789181900360200190a1604080516001600160a01b038316815290517f3ca631ffcd2a9b5d9ae18543fc82f58eb4ca33af9e6ab01b7a8e95331e6ed9859181900360200190a161080d6105cc565b5050565b61081961115e565b61080d82826111a9565b6000546001600160a01b031690565b6040518060400160405280600c81526020016b536f7274656454726f76657360a01b81525081565b6001546001600160a01b031681565b6003602052600090815260409020805460018201546002909201546001600160a01b03918216929091169083565b60025460009081906001600160a01b03166108b181610b15565b6108bb87896109ce565b6108f65760405162461bcd60e51b815260040180806020018281038252602a815260200180611d87602a913960400191505060405180910390fd5b600086116109355760405162461bcd60e51b8152600401808060200182810382526023815260200180611e306023913960400191505060405180910390fd5b61093f87896111a9565b6106d381888a898989610b74565b600254600090819061096b906001600160a01b03168787878761149a565b915091505b94509492505050565b6001600160a01b039182166000908152600360208181526040808420948616845293909101905220600101541690565b6002546000906109c5906001600160a01b03168686868661168c565b95945050505050565b6001600160a01b0391821660009081526003602081815260408084209490951683529201909152205460ff1690565b610a05610b11565b6001600160a01b0316610a16610823565b6001600160a01b031614610a71576040805162461bcd60e51b815260206004820181905260248201527f4f776e61626c653a2063616c6c6572206973206e6f7420746865206f776e6572604482015290519081900360640190fd5b6001600160a01b038116610ab65760405162461bcd60e51b8152600401808060200182810382526026815260200180611db16026913960400191505060405180910390fd5b600080546040516001600160a01b03808516939216917f8be0079c531659141344cd1fd0a4f28419497f9722a3daafe3b4186f6b6457e091a3600080546001600160a01b0319166001600160a01b0392909216919091179055565b3390565b6001546001600160a01b0316331480610b365750336001600160a01b038216145b610b715760405162461bcd60e51b815260040180806020018281038252602d815260200180611e03602d913960400191505060405180910390fd5b50565b600080610b8187876109ce565b15610bbd5760405162461bcd60e51b815260040180806020018281038252602c815260200180611d5b602c913960400191505060405180910390fd5b6001600160a01b038616610c18576040805162461bcd60e51b815260206004820152601f60248201527f536f7274656454726f7665733a2049642063616e6e6f74206265207a65726f00604482015290519081900360640190fd5b60008511610c575760405162461bcd60e51b8152600401808060200182810382526023815260200180611e306023913960400191505060405180910390fd5b8383610c668a8a89858561168c565b610c7d57610c778a8a89858561149a565b90925090505b6001600160a01b03808a1660009081526003602081815260408084208d8616855290920190529020805460ff191660011790558216158015610cc657506001600160a01b038116155b15610d0b576001600160a01b03808a1660009081526003602052604090208054918a166001600160a01b03199283168117825560019091018054909216179055610fd4565b6001600160a01b038216610d96576001600160a01b03898116600081815260036020818152604080842080548f881680875282860185528387208054928a1661010002610100600160a81b0319909316929092179091558154909716855290842060010180546001600160a01b03199081168817909155949093525280549091169091179055610fd4565b6001600160a01b038116610f5257600360008a6001600160a01b03166001600160a01b0316815260200190815260200160002060010160009054906101000a90046001600160a01b0316600360008b6001600160a01b03166001600160a01b0316815260200190815260200160002060030160008a6001600160a01b03166001600160a01b0316815260200190815260200160002060010160006101000a8154816001600160a01b0302191690836001600160a01b0316021790555087600360008b6001600160a01b03166001600160a01b031681526020019081526020016000206003016000600360008d6001600160a01b03166001600160a01b0316815260200190815260200160002060010160009054906101000a90046001600160a01b03166001600160a01b03166001600160a01b0316815260200190815260200160002060000160016101000a8154816001600160a01b0302191690836001600160a01b0316021790555087600360008b6001600160a01b03166001600160a01b0316815260200190815260200160002060010160006101000a8154816001600160a01b0302191690836001600160a01b03160217905550610fd4565b6001600160a01b0389811660009081526003602081815260408084208d861680865293019091528083208054868616610100818102610100600160a81b031993841617845560019384018054988b166001600160a01b0319998a1681179091558752848720805491870291909316179091558452922090910180549092161790555b6001600160a01b03891660009081526003602052604090206002015461100190600163ffffffff61195316565b6001600160a01b03808b16600081815260036020908152604091829020600201949094558051918252918b1692810192909252818101899052517fa74a9cd584cc27d44e7f746f6715fae75b600cc5eb8f85a95752788d6b4547a59181900360600190a1505050506001600160a01b03948516600090815260036020818152604080842097891684529690910190529390932060018101549054908516966101009091049094169450505050565b6001600160a01b03811661110a576040805162461bcd60e51b815260206004820152601e60248201527f4163636f756e742063616e6e6f74206265207a65726f20616464726573730000604482015290519081900360640190fd5b803b8061080d576040805162461bcd60e51b815260206004820181905260248201527f4163636f756e7420636f64652073697a652063616e6e6f74206265207a65726f604482015290519081900360640190fd5b6002546001600160a01b031633146111a75760405162461bcd60e51b815260040180806020018281038252602c815260200180611dd7602c913960400191505060405180910390fd5b565b6111b382826109ce565b6111ee5760405162461bcd60e51b815260040180806020018281038252602a815260200180611d87602a913960400191505060405180910390fd5b6001600160a01b0382166000908152600360205260409020600201546001101561139e576001600160a01b0380831660009081526003602052604090205482821691161415611295576001600160a01b038281166000908152600360208181526040808420868616855292830190915280832054825461010090910485166001600160a01b0319918216179283905591909316825291902060010180549091169055611399565b6001600160a01b038083166000908152600360205260409020600101548282169116141561131f576001600160a01b0382811660009081526003602081815260408084208686168552928301909152808320600190810154920180546001600160a01b031916928516929092179182905592168152208054610100600160a81b0319169055611399565b6001600160a01b03828116600090815260036020818152604080842086861685529092019052808220805460018083018054871686528486208054610100600160a81b0319166101009485900489168502179055549254919091048516845291909220018054919092166001600160a01b03199091161790555b6113d3565b6001600160a01b038216600090815260036020526040902080546001600160a01b031990811682556001909101805490911690555b6001600160a01b03808316600081815260036020818152604080842095871684528583018252832080546001600160a81b0319168155600190810180546001600160a01b03191690559390925290526002909101546114379163ffffffff6119b416565b6001600160a01b038084166000818152600360209081526040918290206002019490945580519182529184169281019290925280517f202321eaea3aa2b5e1e2ef1dfd98a9d6ba8c90e293f5dc2755b32eb921a477979281900390910190a15050565b60008083836001600160a01b0382161561154a576114b888836109ce565b15806115405750604080516390ec230160e01b81526001600160a01b0384811660048301528a811660248301529151918b16916390ec230191604480820192602092909190829003018186803b15801561151157600080fd5b505afa158015611525573d6000803e3d6000fd5b505050506040513d602081101561153b57600080fd5b505187115b1561154a57600091505b6001600160a01b038116156115f45761156388826109ce565b15806115eb5750604080516390ec230160e01b81526001600160a01b0383811660048301528a811660248301529151918b16916390ec230191604480820192602092909190829003018186803b1580156115bc57600080fd5b505afa1580156115d0573d6000803e3d6000fd5b505050506040513d60208110156115e657600080fd5b505187105b156115f4575060005b6001600160a01b03821615801561161257506001600160a01b038116155b1561164c576001600160a01b03808916600090815260036020526040902054611641918b918b918b91166119f6565b9350935050506106d9565b6001600160a01b0382166116665761164189898984611b5e565b6001600160a01b03811661168057611641898989856119f6565b611641898989856119f6565b60006001600160a01b0383161580156116ac57506001600160a01b038216155b156116c1576116ba85610580565b90506109c5565b6001600160a01b03831661177e576001600160a01b0385811660009081526003602052604090205481169083161480156116ba5750604080516390ec230160e01b81526001600160a01b03848116600483015287811660248301529151918816916390ec230191604480820192602092909190829003018186803b15801561174857600080fd5b505afa15801561175c573d6000803e3d6000fd5b505050506040513d602081101561177257600080fd5b505184101590506109c5565b6001600160a01b03821661183e576001600160a01b0385811660009081526003602052604090206001015481169084161480156116ba5750604080516390ec230160e01b81526001600160a01b03858116600483015287811660248301529151918816916390ec230191604480820192602092909190829003018186803b15801561180857600080fd5b505afa15801561181c573d6000803e3d6000fd5b505050506040513d602081101561183257600080fd5b505184111590506109c5565b6001600160a01b03858116600090815260036020818152604080842088861685529092019052902054610100900481169083161480156118fa5750604080516390ec230160e01b81526001600160a01b0385811660048301528781166024830152915186928916916390ec2301916044808301926020929190829003018186803b1580156118cb57600080fd5b505afa1580156118df573d6000803e3d6000fd5b505050506040513d60208110156118f557600080fd5b505110155b80156116ba5750604080516390ec230160e01b81526001600160a01b03848116600483015287811660248301529151918816916390ec230191604480820192602092909190829003018186803b15801561174857600080fd5b6000828201838110156119ad576040805162461bcd60e51b815260206004820152601b60248201527f536166654d6174683a206164646974696f6e206f766572666c6f770000000000604482015290519081900360640190fd5b9392505050565b60006119ad83836040518060400160405280601e81526020017f536166654d6174683a207375627472616374696f6e206f766572666c6f770000815250611cc3565b6001600160a01b03838116600090815260036020526040812054909182918116908416148015611aa35750604080516390ec230160e01b81526001600160a01b03858116600483015287811660248301529151918816916390ec230191604480820192602092909190829003018186803b158015611a7357600080fd5b505afa158015611a87573d6000803e3d6000fd5b505050506040513d6020811015611a9d57600080fd5b50518410155b15611ab357506000905081610970565b6001600160a01b038086166000908152600360208181526040808420858916855290920190529020548491610100909104165b6001600160a01b03821615801590611b085750611b06888888858561168c565b155b15611b5157506001600160a01b03868116600090815260036020818152604080842095851684529490910190528281205461010090819004831680835293909120540416611ae6565b9097909650945050505050565b6001600160a01b03838116600090815260036020526040812060010154909182918116908416148015611c0e5750604080516390ec230160e01b81526001600160a01b03858116600483015287811660248301529151918816916390ec230191604480820192602092909190829003018186803b158015611bde57600080fd5b505afa158015611bf2573d6000803e3d6000fd5b505050506040513d6020811015611c0857600080fd5b50518411155b15611c1e57508190506000610970565b6001600160a01b038086166000908152600360208181526040808420858916855290920190529020600101548491165b6001600160a01b03821615801590611c705750611c6e888888848661168c565b155b15611cb757506001600160a01b0386811660009081526003602081815260408084209585168452949091019052828120600190810154831680835293909120015416611c4e565b97909650945050505050565b60008184841115611d525760405162461bcd60e51b81526004018080602001828103825283818151815260200191508051906020019080838360005b83811015611d17578181015183820152602001611cff565b50505050905090810190601f168015611d445780820380516001836020036101000a031916815260200191505b509250505060405180910390fd5b50505090039056fe536f7274656454726f7665733a204c69737420616c726561647920636f6e7461696e7320746865206e6f6465536f7274656454726f7665733a204c69737420646f6573206e6f7420636f6e7461696e207468652069644f776e61626c653a206e6577206f776e657220697320746865207a65726f2061646472657373536f7274656454726f7665733a2043616c6c6572206973206e6f74207468652054726f76654d616e61676572536f7274656454726f7665733a2043616c6c6572206973206e65697468657220424f206e6f722054726f76654d536f7274656454726f7665733a204e494352206d75737420626520706f736974697665a2646970667358221220b73cc163bfa8f851100cd7ab0e33c76409f856cc72704e6f41793bba377cd39964736f6c634300060b0033",
  "linkReferences": {},
  "deployedLinkReferences": {}
}