{
  "_format": "hh-sol-artifact-1",
  "contractName": "PriceFeedL2",
  "sourceName": "contracts/Pricing/PriceFeedL2.sol",
  "abi": [
    {
      "inputs": [],
      "name": "PriceFeed__ExistingOracleRequired",
      "type": "error"
    },
    {
      "inputs": [],
      "name": "PriceFeed__InvalidDecimalsError",
      "type": "error"
    },
    {
      "inputs": [
        {
          "internalType": "address",
          "name": "token",
          "type": "address"
        }
      ],
      "name": "PriceFeed__InvalidOracleResponseError",
      "type": "error"
    },
    {
      "inputs": [],
      "name": "PriceFeed__SequencerDown",
      "type": "error"
    },
    {
      "inputs": [],
      "name": "PriceFeed__SequencerGracePeriodNotOver",
      "type": "error"
    },
    {
      "inputs": [],
      "name": "PriceFeed__TimelockOnlyError",
      "type": "error"
    },
    {
      "inputs": [],
      "name": "PriceFeed__UnknownAssetError",
      "type": "error"
    },
    {
      "anonymous": false,
      "inputs": [
        {
          "indexed": false,
          "internalType": "address",
          "name": "previousAdmin",
          "type": "address"
        },
        {
          "indexed": false,
          "internalType": "address",
          "name": "newAdmin",
          "type": "address"
        }
      ],
      "name": "AdminChanged",
      "type": "event"
    },
    {
      "anonymous": false,
      "inputs": [
        {
          "indexed": true,
          "internalType": "address",
          "name": "beacon",
          "type": "address"
        }
      ],
      "name": "BeaconUpgraded",
      "type": "event"
    },
    {
      "anonymous": false,
      "inputs": [
        {
          "indexed": false,
          "internalType": "uint8",
          "name": "version",
          "type": "uint8"
        }
      ],
      "name": "Initialized",
      "type": "event"
    },
    {
      "anonymous": false,
      "inputs": [
        {
          "indexed": false,
          "internalType": "address",
          "name": "token",
          "type": "address"
        },
        {
          "indexed": false,
          "internalType": "address",
          "name": "oracleAddress",
          "type": "address"
        },
        {
          "indexed": false,
          "internalType": "bool",
          "name": "isEthIndexed",
          "type": "bool"
        },
        {
          "indexed": false,
          "internalType": "bool",
          "name": "isFallback",
          "type": "bool"
        }
      ],
      "name": "NewOracleRegistered",
      "type": "event"
    },
    {
      "anonymous": false,
      "inputs": [
        {
          "indexed": true,
          "internalType": "address",
          "name": "previousOwner",
          "type": "address"
        },
        {
          "indexed": true,
          "internalType": "address",
          "name": "newOwner",
          "type": "address"
        }
      ],
      "name": "OwnershipTransferred",
      "type": "event"
    },
    {
      "anonymous": false,
      "inputs": [
        {
          "indexed": false,
          "internalType": "address",
          "name": "_sequencerUptimeFeed",
          "type": "address"
        }
      ],
      "name": "SequencerUptimeFeedUpdated",
      "type": "event"
    },
    {
      "anonymous": false,
      "inputs": [
        {
          "indexed": true,
          "internalType": "address",
          "name": "implementation",
          "type": "address"
        }
      ],
      "name": "Upgraded",
      "type": "event"
    },
    {
      "inputs": [],
      "name": "NAME",
      "outputs": [
        {
          "internalType": "string",
          "name": "",
          "type": "string"
        }
      ],
      "stateMutability": "view",
      "type": "function"
    },
    {
      "inputs": [],
      "name": "SEQUENCER_BORROWING_DELAY_SECONDS",
      "outputs": [
        {
          "internalType": "uint256",
          "name": "",
          "type": "uint256"
        }
      ],
      "stateMutability": "view",
      "type": "function"
    },
    {
      "inputs": [],
      "name": "SEQUENCER_LIQUIDATION_DELAY_SECONDS",
      "outputs": [
        {
          "internalType": "uint256",
          "name": "",
          "type": "uint256"
        }
      ],
      "stateMutability": "view",
      "type": "function"
    },
    {
      "inputs": [],
      "name": "TARGET_DIGITS",
      "outputs": [
        {
          "internalType": "uint256",
          "name": "",
          "type": "uint256"
        }
      ],
      "stateMutability": "view",
      "type": "function"
    },
    {
      "inputs": [],
      "name": "activePool",
      "outputs": [
        {
          "internalType": "address",
          "name": "",
          "type": "address"
        }
      ],
      "stateMutability": "view",
      "type": "function"
    },
    {
      "inputs": [],
      "name": "adminContract",
      "outputs": [
        {
          "internalType": "address",
          "name": "",
          "type": "address"
        }
      ],
      "stateMutability": "view",
      "type": "function"
    },
    {
      "inputs": [
        {
          "internalType": "address",
          "name": "newImplementation",
          "type": "address"
        }
      ],
      "name": "authorizeUpgrade",
      "outputs": [],
      "stateMutability": "nonpayable",
      "type": "function"
    },
    {
      "inputs": [],
      "name": "borrowerOperations",
      "outputs": [
        {
          "internalType": "address",
          "name": "",
          "type": "address"
        }
      ],
      "stateMutability": "view",
      "type": "function"
    },
    {
      "inputs": [],
      "name": "collSurplusPool",
      "outputs": [
        {
          "internalType": "address",
          "name": "",
          "type": "address"
        }
      ],
      "stateMutability": "view",
      "type": "function"
    },
    {
      "inputs": [],
      "name": "communityIssuance",
      "outputs": [
        {
          "internalType": "address",
          "name": "",
          "type": "address"
        }
      ],
      "stateMutability": "view",
      "type": "function"
    },
    {
      "inputs": [],
      "name": "debtToken",
      "outputs": [
        {
          "internalType": "address",
          "name": "",
          "type": "address"
        }
      ],
      "stateMutability": "view",
      "type": "function"
    },
    {
      "inputs": [],
      "name": "defaultPool",
      "outputs": [
        {
          "internalType": "address",
          "name": "",
          "type": "address"
        }
      ],
      "stateMutability": "view",
      "type": "function"
    },
    {
      "inputs": [
        {
          "internalType": "address",
          "name": "",
          "type": "address"
        }
      ],
      "name": "fallbacks",
      "outputs": [
        {
          "internalType": "address",
          "name": "oracleAddress",
          "type": "address"
        },
        {
          "internalType": "enum IPriceFeed.ProviderType",
          "name": "providerType",
          "type": "uint8"
        },
        {
          "internalType": "uint256",
          "name": "timeoutSeconds",
          "type": "uint256"
        },
        {
          "internalType": "uint256",
          "name": "decimals",
          "type": "uint256"
        },
        {
          "internalType": "bool",
          "name": "isEthIndexed",
          "type": "bool"
        }
      ],
      "stateMutability": "view",
      "type": "function"
    },
    {
      "inputs": [],
      "name": "feeCollector",
      "outputs": [
        {
          "internalType": "address",
          "name": "",
          "type": "address"
        }
      ],
      "stateMutability": "view",
      "type": "function"
    },
    {
      "inputs": [
        {
          "internalType": "address",
          "name": "_token",
          "type": "address"
        }
      ],
      "name": "fetchPrice",
      "outputs": [
        {
          "internalType": "uint256",
          "name": "",
          "type": "uint256"
        }
      ],
      "stateMutability": "view",
      "type": "function"
    },
    {
      "inputs": [],
      "name": "gasPoolAddress",
      "outputs": [
        {
          "internalType": "address",
          "name": "",
          "type": "address"
        }
      ],
      "stateMutability": "view",
      "type": "function"
    },
    {
      "inputs": [],
      "name": "grvtStaking",
      "outputs": [
        {
          "internalType": "address",
          "name": "",
          "type": "address"
        }
      ],
      "stateMutability": "view",
      "type": "function"
    },
    {
      "inputs": [],
      "name": "initialize",
      "outputs": [],
      "stateMutability": "nonpayable",
      "type": "function"
    },
    {
      "inputs": [],
      "name": "isAddressSetupInitialized",
      "outputs": [
        {
          "internalType": "bool",
          "name": "",
          "type": "bool"
        }
      ],
      "stateMutability": "view",
      "type": "function"
    },
    {
      "inputs": [
        {
          "internalType": "address",
          "name": "",
          "type": "address"
        }
      ],
      "name": "oracles",
      "outputs": [
        {
          "internalType": "address",
          "name": "oracleAddress",
          "type": "address"
        },
        {
          "internalType": "enum IPriceFeed.ProviderType",
          "name": "providerType",
          "type": "uint8"
        },
        {
          "internalType": "uint256",
          "name": "timeoutSeconds",
          "type": "uint256"
        },
        {
          "internalType": "uint256",
          "name": "decimals",
          "type": "uint256"
        },
        {
          "internalType": "bool",
          "name": "isEthIndexed",
          "type": "bool"
        }
      ],
      "stateMutability": "view",
      "type": "function"
    },
    {
      "inputs": [],
      "name": "owner",
      "outputs": [
        {
          "internalType": "address",
          "name": "",
          "type": "address"
        }
      ],
      "stateMutability": "view",
      "type": "function"
    },
    {
      "inputs": [],
      "name": "priceFeed",
      "outputs": [
        {
          "internalType": "address",
          "name": "",
          "type": "address"
        }
      ],
      "stateMutability": "view",
      "type": "function"
    },
    {
      "inputs": [],
      "name": "proxiableUUID",
      "outputs": [
        {
          "internalType": "bytes32",
          "name": "",
          "type": "bytes32"
        }
      ],
      "stateMutability": "view",
      "type": "function"
    },
    {
      "inputs": [],
      "name": "renounceOwnership",
      "outputs": [],
      "stateMutability": "nonpayable",
      "type": "function"
    },
    {
      "inputs": [],
      "name": "sequencerUptimeFeedAddress",
      "outputs": [
        {
          "internalType": "address",
          "name": "",
          "type": "address"
        }
      ],
      "stateMutability": "view",
      "type": "function"
    },
    {
      "inputs": [
        {
          "internalType": "address[]",
          "name": "_addresses",
          "type": "address[]"
        }
      ],
      "name": "setAddresses",
      "outputs": [],
      "stateMutability": "nonpayable",
      "type": "function"
    },
    {
      "inputs": [
        {
          "internalType": "address",
          "name": "_communityIssuance",
          "type": "address"
        }
      ],
      "name": "setCommunityIssuance",
      "outputs": [],
      "stateMutability": "nonpayable",
      "type": "function"
    },
    {
      "inputs": [
        {
          "internalType": "address",
          "name": "_grvtStaking",
          "type": "address"
        }
      ],
      "name": "setGRVTStaking",
      "outputs": [],
      "stateMutability": "nonpayable",
      "type": "function"
    },
    {
      "inputs": [
        {
          "internalType": "address",
          "name": "_token",
          "type": "address"
        },
        {
          "internalType": "address",
          "name": "_oracle",
          "type": "address"
        },
        {
          "internalType": "enum IPriceFeed.ProviderType",
          "name": "_type",
          "type": "uint8"
        },
        {
          "internalType": "uint256",
          "name": "_timeoutSeconds",
          "type": "uint256"
        },
        {
          "internalType": "bool",
          "name": "_isEthIndexed",
          "type": "bool"
        },
        {
          "internalType": "bool",
          "name": "_isFallback",
          "type": "bool"
        }
      ],
      "name": "setOracle",
      "outputs": [],
      "stateMutability": "nonpayable",
      "type": "function"
    },
    {
      "inputs": [
        {
          "internalType": "address",
          "name": "_sequencerUptimeFeedAddress",
          "type": "address"
        }
      ],
      "name": "setSequencerUptimeFeedAddress",
      "outputs": [],
      "stateMutability": "nonpayable",
      "type": "function"
    },
    {
      "inputs": [],
      "name": "sortedVessels",
      "outputs": [
        {
          "internalType": "address",
          "name": "",
          "type": "address"
        }
      ],
      "stateMutability": "view",
      "type": "function"
    },
    {
      "inputs": [],
      "name": "stabilityPool",
      "outputs": [
        {
          "internalType": "address",
          "name": "",
          "type": "address"
        }
      ],
      "stateMutability": "view",
      "type": "function"
    },
    {
      "inputs": [],
      "name": "timelockAddress",
      "outputs": [
        {
          "internalType": "address",
          "name": "",
          "type": "address"
        }
      ],
      "stateMutability": "view",
      "type": "function"
    },
    {
      "inputs": [
        {
          "internalType": "address",
          "name": "newOwner",
          "type": "address"
        }
      ],
      "name": "transferOwnership",
      "outputs": [],
      "stateMutability": "nonpayable",
      "type": "function"
    },
    {
      "inputs": [],
      "name": "treasuryAddress",
      "outputs": [
        {
          "internalType": "address",
          "name": "",
          "type": "address"
        }
      ],
      "stateMutability": "view",
      "type": "function"
    },
    {
      "inputs": [
        {
          "internalType": "address",
          "name": "newImplementation",
          "type": "address"
        }
      ],
      "name": "upgradeTo",
      "outputs": [],
      "stateMutability": "nonpayable",
      "type": "function"
    },
    {
      "inputs": [
        {
          "internalType": "address",
          "name": "newImplementation",
          "type": "address"
        },
        {
          "internalType": "bytes",
          "name": "data",
          "type": "bytes"
        }
      ],
      "name": "upgradeToAndCall",
      "outputs": [],
      "stateMutability": "payable",
      "type": "function"
    },
    {
      "inputs": [],
      "name": "vesselManager",
      "outputs": [
        {
          "internalType": "address",
          "name": "",
          "type": "address"
        }
      ],
      "stateMutability": "view",
      "type": "function"
    },
    {
      "inputs": [],
      "name": "vesselManagerOperations",
      "outputs": [
        {
          "internalType": "address",
          "name": "",
          "type": "address"
        }
      ],
      "stateMutability": "view",
      "type": "function"
    }
  ],
  "bytecode": "0x60a06040523060805234801561001457600080fd5b506080516125df61004c600039600081816108500152818161089901528181610938015281816109780152610a0b01526125df6000f3fe6080604052600436106102305760003560e01c80638da5cb5b1161012e578063c5f956af116100ab578063f8d898981161006f578063f8d8989814610709578063fcca7fd114610729578063fd092fc514610749578063fe06073314610769578063fe9d03231461078957600080fd5b8063c5f956af14610658578063c7eae30314610678578063c8564c6214610698578063cda775f9146106c9578063f2fde38b146106e957600080fd5b8063ace1798e116100f2578063ace1798e1461057f578063addd50991461059f578063b9571721146105f8578063c05c5e9414610618578063c415b95c1461063857600080fd5b80638da5cb5b146104c957806395fb16bb146104e75780639ec67e4214610507578063a1486e3414610527578063a3f4df7e1461053d57600080fd5b80634bc66f32116101bc578063715018a611610180578063715018a61461043f578063741bef1a1461045457806377553ad4146104745780637f7dde4a146104945780638129fc1c146104b457600080fd5b80634bc66f32146103c15780634f1ef286146103e157806352d1902d146103f45780635da854ec146104095780636a85d67d1461041f57600080fd5b806326256c0b1161020357806326256c0b146102d75780633659cfe6146103415780633a8c0fc3146103615780633cc74225146103815780634284af1f146103a157600080fd5b8063048c661d146102355780630f2343fd146102725780631643b77d146102925780631be5c92f146102b4575b600080fd5b34801561024157600080fd5b5060d554610255906001600160a01b031681565b6040516001600160a01b0390911681526020015b60405180910390f35b34801561027e57600080fd5b5060d854610255906001600160a01b031681565b34801561029e57600080fd5b506102b26102ad366004612023565b6107a9565b005b3480156102c057600080fd5b506102c9601281565b604051908152602001610269565b3480156102e357600080fd5b506103306102f2366004612023565b60fe6020526000908152604090208054600182015460028301546003909301546001600160a01b0383169360ff600160a01b90940484169390911685565b604051610269959493929190612054565b34801561034d57600080fd5b506102b261035c366004612023565b610846565b34801561036d57600080fd5b5060ff54610255906001600160a01b031681565b34801561038d57600080fd5b5060cf54610255906001600160a01b031681565b3480156103ad57600080fd5b5060d954610255906001600160a01b031681565b3480156103cd57600080fd5b5060d654610255906001600160a01b031681565b6102b26103ef3660046120bc565b61092e565b34801561040057600080fd5b506102c96109fe565b34801561041557600080fd5b506102c9610e1081565b34801561042b57600080fd5b506102b261043a366004612023565b610ab1565b34801561044b57600080fd5b506102b2610adb565b34801561046057600080fd5b5060d354610255906001600160a01b031681565b34801561048057600080fd5b5060cb54610255906001600160a01b031681565b3480156104a057600080fd5b5060c954610255906001600160a01b031681565b3480156104c057600080fd5b506102b2610aef565b3480156104d557600080fd5b506065546001600160a01b0316610255565b3480156104f357600080fd5b5060cd54610255906001600160a01b031681565b34801561051357600080fd5b5060d254610255906001600160a01b031681565b34801561053357600080fd5b506102c9611c2081565b34801561054957600080fd5b5061057260405180604001604052806009815260200168141c9a58d95199595960ba1b81525081565b60405161026991906121a2565b34801561058b57600080fd5b506102c961059a366004612023565b610c01565b3480156105ab57600080fd5b506103306105ba366004612023565b60fd6020526000908152604090208054600182015460028301546003909301546001600160a01b0383169360ff600160a01b90940484169390911685565b34801561060457600080fd5b506102b26106133660046121d5565b610c1a565b34801561062457600080fd5b5060ca54610255906001600160a01b031681565b34801561064457600080fd5b5060d054610255906001600160a01b031681565b34801561066457600080fd5b5060d754610255906001600160a01b031681565b34801561068457600080fd5b5060d454610255906001600160a01b031681565b3480156106a457600080fd5b5060d9546106b990600160a01b900460ff1681565b6040519015158152602001610269565b3480156106d557600080fd5b5060cc54610255906001600160a01b031681565b3480156106f557600080fd5b506102b2610704366004612023565b61119e565b34801561071557600080fd5b5060ce54610255906001600160a01b031681565b34801561073557600080fd5b506102b261074436600461225a565b611214565b34801561075557600080fd5b506102b2610764366004612023565b6114a5565b34801561077557600080fd5b506102b2610784366004612023565b6114cf565b34801561079557600080fd5b5060d154610255906001600160a01b031681565b60ff546001600160a01b03166107c6576107c16114d8565b6107f1565b60d6546001600160a01b031633146107f157604051633bc92b2160e01b815260040160405180910390fd5b60ff80546001600160a01b0319166001600160a01b0383169081179091556040519081527f32db38c7b3e5c8341ceb63fa1ae4ce0ba937b716427686f76033425ef435341a906020015b60405180910390a150565b6001600160a01b037f00000000000000000000000000000000000000000000000000000000000000001630036108975760405162461bcd60e51b815260040161088e906122cd565b60405180910390fd5b7f00000000000000000000000000000000000000000000000000000000000000006001600160a01b03166108e0600080516020612563833981519152546001600160a01b031690565b6001600160a01b0316146109065760405162461bcd60e51b815260040161088e90612319565b61090f81611532565b6040805160008082526020820190925261092b9183919061153a565b50565b6001600160a01b037f00000000000000000000000000000000000000000000000000000000000000001630036109765760405162461bcd60e51b815260040161088e906122cd565b7f00000000000000000000000000000000000000000000000000000000000000006001600160a01b03166109bf600080516020612563833981519152546001600160a01b031690565b6001600160a01b0316146109e55760405162461bcd60e51b815260040161088e90612319565b6109ee82611532565b6109fa8282600161153a565b5050565b6000306001600160a01b037f00000000000000000000000000000000000000000000000000000000000000001614610a9e5760405162461bcd60e51b815260206004820152603860248201527f555550535570677261646561626c653a206d757374206e6f742062652063616c60448201527f6c6564207468726f7567682064656c656761746563616c6c0000000000000000606482015260840161088e565b5060008051602061256383398151915290565b610ab96114d8565b60cd80546001600160a01b0319166001600160a01b0392909216919091179055565b610ae36114d8565b610aed60006116aa565b565b600054610100900460ff1615808015610b0f5750600054600160ff909116105b80610b295750303b158015610b29575060005460ff166001145b610b8c5760405162461bcd60e51b815260206004820152602e60248201527f496e697469616c697a61626c653a20636f6e747261637420697320616c72656160448201526d191e481a5b9a5d1a585b1a5e995960921b606482015260840161088e565b6000805460ff191660011790558015610baf576000805461ff0019166101001790555b610bb76116fc565b610bbf61172b565b801561092b576000805461ff0019169055604051600181527f7f26b83ff96e1f2b6a682f133852f6798a09c465da95921460cefb38474024989060200161083b565b6000610c0b611752565b610c148261185f565b92915050565b610c226114d8565b60d954600160a01b900460ff1615610c7c5760405162461bcd60e51b815260206004820152601c60248201527f536574757020697320616c726561647920696e697469616c697a656400000000604482015260640161088e565b600f8114610ccc5760405162461bcd60e51b815260206004820152601e60248201527f4578706563746564203135206164647265737365732061742073657475700000604482015260640161088e565b60005b600f811015610d5b576000838383818110610cec57610cec612365565b9050602002016020810190610d019190612023565b6001600160a01b031603610d495760405162461bcd60e51b815260206004820152600f60248201526e496e76616c6964206164647265737360881b604482015260640161088e565b80610d5381612391565b915050610ccf565b5081816000818110610d6f57610d6f612365565b9050602002016020810190610d849190612023565b60c980546001600160a01b0319166001600160a01b039290921691909117905581816001818110610db757610db7612365565b9050602002016020810190610dcc9190612023565b60ca80546001600160a01b0319166001600160a01b039290921691909117905581816002818110610dff57610dff612365565b9050602002016020810190610e149190612023565b60cb80546001600160a01b0319166001600160a01b039290921691909117905581816003818110610e4757610e47612365565b9050602002016020810190610e5c9190612023565b60cc80546001600160a01b0319166001600160a01b039290921691909117905581816004818110610e8f57610e8f612365565b9050602002016020810190610ea49190612023565b60ce80546001600160a01b0319166001600160a01b039290921691909117905581816005818110610ed757610ed7612365565b9050602002016020810190610eec9190612023565b60cf80546001600160a01b0319166001600160a01b039290921691909117905581816006818110610f1f57610f1f612365565b9050602002016020810190610f349190612023565b60d080546001600160a01b0319166001600160a01b039290921691909117905581816007818110610f6757610f67612365565b9050602002016020810190610f7c9190612023565b60d180546001600160a01b0319166001600160a01b039290921691909117905581816008818110610faf57610faf612365565b9050602002016020810190610fc49190612023565b60d380546001600160a01b0319166001600160a01b039290921691909117905581816009818110610ff757610ff7612365565b905060200201602081019061100c9190612023565b60d480546001600160a01b0319166001600160a01b03929092169190911790558181600a81811061103f5761103f612365565b90506020020160208101906110549190612023565b60d580546001600160a01b0319166001600160a01b03929092169190911790558181600b81811061108757611087612365565b905060200201602081019061109c9190612023565b60d680546001600160a01b0319166001600160a01b03929092169190911790558181600c8181106110cf576110cf612365565b90506020020160208101906110e49190612023565b60d780546001600160a01b0319166001600160a01b03929092169190911790558181600d81811061111757611117612365565b905060200201602081019061112c9190612023565b60d880546001600160a01b0319166001600160a01b03929092169190911790558181600e81811061115f5761115f612365565b90506020020160208101906111749190612023565b60d980546001600160a81b0319166001600160a01b039290921691909117600160a01b1790555050565b6111a66114d8565b6001600160a01b03811661120b5760405162461bcd60e51b815260206004820152602660248201527f4f776e61626c653a206e6577206f776e657220697320746865207a65726f206160448201526564647265737360d01b606482015260840161088e565b61092b816116aa565b61121e86826119e8565b80801561124357506001600160a01b03868116600090815260fd602052604090205416155b1561126157604051634a0e0c3b60e11b815260040160405180910390fd5b600061126d8686611a6a565b60ff169050806000036112935760405163ee65a7e560e01b815260040160405180910390fd5b60006040518060a00160405280886001600160a01b031681526020018760018111156112c1576112c161203e565b8152602001868152602001838152602001851515815250905060006112e582611b18565b9050806000036113135760405163283f5cb560e01b81526001600160a01b038a16600482015260240161088e565b83156113b2576001600160a01b03808a16600090815260fe602090815260409091208451815493166001600160a01b03198416811782559185015185939192909183916001600160a81b031990911617600160a01b83600181111561137a5761137a61203e565b021790555060408201516001820155606082015160028201556080909101516003909101805460ff1916911515919091179055611447565b6001600160a01b03808a16600090815260fd602090815260409091208451815493166001600160a01b03198416811782559185015185939192909183916001600160a81b031990911617600160a01b8360018111156114135761141361203e565b021790555060408201516001820155606082015160028201556080909101516003909101805460ff19169115159190911790555b604080516001600160a01b038b811682528a16602082015286151581830152851515606082015290517fcbde3c20c68ba036ef9cd1c074d075187be3640bc7a5b3fb85f045b07ab9a9309181900360800190a1505050505050505050565b6114ad6114d8565b60d280546001600160a01b0319166001600160a01b0392909216919091179055565b61092b81611532565b6065546001600160a01b03163314610aed5760405162461bcd60e51b815260206004820181905260248201527f4f776e61626c653a2063616c6c6572206973206e6f7420746865206f776e6572604482015260640161088e565b61092b6114d8565b7f4910fdfa16fed3260ed0e7147f7cc6da11a60208b5b9406d12a635614ffd91435460ff16156115725761156d83611bde565b505050565b826001600160a01b03166352d1902d6040518163ffffffff1660e01b8152600401602060405180830381865afa9250505080156115cc575060408051601f3d908101601f191682019092526115c9918101906123aa565b60015b61162f5760405162461bcd60e51b815260206004820152602e60248201527f45524331393637557067726164653a206e657720696d706c656d656e7461746960448201526d6f6e206973206e6f74205555505360901b606482015260840161088e565b600080516020612563833981519152811461169e5760405162461bcd60e51b815260206004820152602960248201527f45524331393637557067726164653a20756e737570706f727465642070726f786044820152681a58589b195555525160ba1b606482015260840161088e565b5061156d838383611c7a565b606580546001600160a01b038381166001600160a01b0319831681179093556040519116919082907f8be0079c531659141344cd1fd0a4f28419497f9722a3daafe3b4186f6b6457e090600090a35050565b600054610100900460ff166117235760405162461bcd60e51b815260040161088e906123c3565b610aed611ca5565b600054610100900460ff16610aed5760405162461bcd60e51b815260040161088e906123c3565b60ff546001600160a01b031615610aed5760008060ff60009054906101000a90046001600160a01b03166001600160a01b031663feaf968c6040518163ffffffff1660e01b815260040160a060405180830381865afa1580156117b9573d6000803e3d6000fd5b505050506040513d601f19601f820116820180604052508101906117dd9190612428565b50919450909250508215905080611807576040516380ec5c4360e01b815260040160405180910390fd5b60d9546000906001600160a01b031633036118255750611c2061182a565b50610e105b60006118368442612478565b9050818111611858576040516387ac35eb60e01b815260040160405180910390fd5b5050505050565b6001600160a01b03818116600090815260fd60209081526040808320815160a0810190925280549485168252929384939192830190600160a01b900460ff1660018111156118af576118af61203e565b60018111156118c0576118c061203e565b8152600182015460208201526002820154604082015260039091015460ff161515606090910152905060006118f482611b18565b9050801561191c57816080015161190b5780611914565b61191481611cd5565b949350505050565b6001600160a01b03848116600090815260fe6020908152604091829020825160a0810190935280549384168352919290830190600160a01b900460ff16600181111561196a5761196a61203e565b600181111561197b5761197b61203e565b8152600182015460208201526002820154604082015260039091015460ff16151560609091015291506119ad82611b18565b905080156119c457816080015161190b5780611914565b60405163283f5cb560e01b81526001600160a01b038516600482015260240161088e565b600081611a0c576001600160a01b038316600090815260fd60205260409020611a25565b6001600160a01b038316600090815260fe602052604090205b80549091506001600160a01b0316611a3f5761156d6114d8565b60d6546001600160a01b0316331461156d57604051633bc92b2160e01b815260040160405180910390fd5b6000816001811115611a7e57611a7e61203e565b600003611aee57826001600160a01b031663313ce5676040518163ffffffff1660e01b8152600401602060405180830381865afa158015611ac3573d6000803e3d6000fd5b505050506040513d601f19601f82011682018060405250810190611ae7919061248b565b9050610c14565b816001811115611b0057611b0061203e565b600103611b0f57506012610c14565b50600092915050565b8051600090819081906001600160a01b0316611b4757604051632e054cdf60e21b815260040160405180910390fd5b83602001516001811115611b5d57611b5d61203e565b600003611b79578351611b6f90611d08565b9092509050611ba7565b83602001516001811115611b8f57611b8f61203e565b600103611ba7578351611ba190611da6565b90925090505b8115801590611bc15750611bbf818560400151611e34565b155b15611bd457611914828560600151611e49565b5060009392505050565b6001600160a01b0381163b611c4b5760405162461bcd60e51b815260206004820152602d60248201527f455243313936373a206e657720696d706c656d656e746174696f6e206973206e60448201526c1bdd08184818dbdb9d1c9858dd609a1b606482015260840161088e565b60008051602061256383398151915280546001600160a01b0319166001600160a01b0392909216919091179055565b611c8383611e91565b600082511180611c905750805b1561156d57611c9f8383611ed1565b50505050565b600054610100900460ff16611ccc5760405162461bcd60e51b815260040161088e906123c3565b610aed336116aa565b600080611ce26000610c01565b9050670de0b6b3a7640000611cf784836124ae565b611d0191906124db565b9392505050565b600080826001600160a01b031663feaf968c6040518163ffffffff1660e01b815260040160a060405180830381865afa925050508015611d65575060408051601f3d908101601f19168201909252611d6291810190612428565b60015b15611da15769ffffffffffffffffffff851615801590611d8457508115155b8015611d8f57508315155b15611d9b578396508195505b50505050505b915091565b600080600080846001600160a01b03166357de26a46040518163ffffffff1660e01b81526004016040805180830381865afa158015611de9573d6000803e3d6000fd5b505050506040513d601f19601f82011682018060405250810190611e0d91906124fd565b63ffffffff1691509150600082601b0b1315611e2d5781601b0b93508092505b5050915091565b600081611e418442612478565b119392505050565b60006012821115611e715760128203600a0a8381611e6957611e696124c5565b049050610c14565b6012821015611e8a5781601203600a0a83029050610c14565b5090919050565b611e9a81611bde565b6040516001600160a01b038216907fbc7cd75a20ee27fd9adebab32041f755214dbc6bffa90cc0225b39da2e5c2d3b90600090a250565b6060611d018383604051806060016040528060278152602001612583602791396060600080856001600160a01b031685604051611f0e9190612546565b600060405180830381855af49150503d8060008114611f49576040519150601f19603f3d011682016040523d82523d6000602084013e611f4e565b606091505b5091509150611f5f86838387611f69565b9695505050505050565b60608315611fd8578251600003611fd1576001600160a01b0385163b611fd15760405162461bcd60e51b815260206004820152601d60248201527f416464726573733a2063616c6c20746f206e6f6e2d636f6e7472616374000000604482015260640161088e565b5081611914565b6119148383815115611fed5781518083602001fd5b8060405162461bcd60e51b815260040161088e91906121a2565b80356001600160a01b038116811461201e57600080fd5b919050565b60006020828403121561203557600080fd5b611d0182612007565b634e487b7160e01b600052602160045260246000fd5b6001600160a01b038616815260a081016002861061208257634e487b7160e01b600052602160045260246000fd5b85602083015284604083015283606083015282151560808301529695505050505050565b634e487b7160e01b600052604160045260246000fd5b600080604083850312156120cf57600080fd5b6120d883612007565b9150602083013567ffffffffffffffff808211156120f557600080fd5b818501915085601f83011261210957600080fd5b81358181111561211b5761211b6120a6565b604051601f8201601f19908116603f01168101908382118183101715612143576121436120a6565b8160405282815288602084870101111561215c57600080fd5b8260208601602083013760006020848301015280955050505050509250929050565b60005b83811015612199578181015183820152602001612181565b50506000910152565b60208152600082518060208401526121c181604085016020870161217e565b601f01601f19169190910160400192915050565b600080602083850312156121e857600080fd5b823567ffffffffffffffff8082111561220057600080fd5b818501915085601f83011261221457600080fd5b81358181111561222357600080fd5b8660208260051b850101111561223857600080fd5b60209290920196919550909350505050565b8035801515811461201e57600080fd5b60008060008060008060c0878903121561227357600080fd5b61227c87612007565b955061228a60208801612007565b945060408701356002811061229e57600080fd5b9350606087013592506122b36080880161224a565b91506122c160a0880161224a565b90509295509295509295565b6020808252602c908201527f46756e6374696f6e206d7573742062652063616c6c6564207468726f7567682060408201526b19195b1959d85d1958d85b1b60a21b606082015260800190565b6020808252602c908201527f46756e6374696f6e206d7573742062652063616c6c6564207468726f7567682060408201526b6163746976652070726f787960a01b606082015260800190565b634e487b7160e01b600052603260045260246000fd5b634e487b7160e01b600052601160045260246000fd5b6000600182016123a3576123a361237b565b5060010190565b6000602082840312156123bc57600080fd5b5051919050565b6020808252602b908201527f496e697469616c697a61626c653a20636f6e7472616374206973206e6f74206960408201526a6e697469616c697a696e6760a81b606082015260800190565b805169ffffffffffffffffffff8116811461201e57600080fd5b600080600080600060a0868803121561244057600080fd5b6124498661240e565b945060208601519350604086015192506060860151915061246c6080870161240e565b90509295509295909350565b81810381811115610c1457610c1461237b565b60006020828403121561249d57600080fd5b815160ff81168114611d0157600080fd5b8082028115828204841417610c1457610c1461237b565b634e487b7160e01b600052601260045260246000fd5b6000826124f857634e487b7160e01b600052601260045260246000fd5b500490565b6000806040838503121561251057600080fd5b825180601b0b811461252157600080fd5b602084015190925063ffffffff8116811461253b57600080fd5b809150509250929050565b6000825161255881846020870161217e565b919091019291505056fe360894a13ba1a3210667c828492db98dca3e2076cc3735a920a3ca505d382bbc416464726573733a206c6f772d6c6576656c2064656c65676174652063616c6c206661696c6564a2646970667358221220e1b1c5479dcd04b6826da22bcaf6634c7e22b20720d8847547eb12de40e9c8b164736f6c63430008130033",
  "linkReferences": {},
  "deployedLinkReferences": {}
}