{
  "_format": "hh-sol-artifact-1",
  "contractName": "PriceFeed",
  "sourceName": "contracts/PriceFeed.sol",
  "abi": [
    {
      "inputs": [],
      "name": "PriceFeed__ExistingOracleRequired",
      "type": "error"
    },
    {
      "inputs": [],
      "name": "PriceFeed__InvalidDecimalsError",
      "type": "error"
    },
    {
      "inputs": [
        {
          "internalType": "address",
          "name": "token",
          "type": "address"
        }
      ],
      "name": "PriceFeed__InvalidOracleResponseError",
      "type": "error"
    },
    {
      "inputs": [],
      "name": "PriceFeed__TimelockOnlyError",
      "type": "error"
    },
    {
      "inputs": [],
      "name": "PriceFeed__UnknownAssetError",
      "type": "error"
    },
    {
      "anonymous": false,
      "inputs": [
        {
          "indexed": false,
          "internalType": "address",
          "name": "previousAdmin",
          "type": "address"
        },
        {
          "indexed": false,
          "internalType": "address",
          "name": "newAdmin",
          "type": "address"
        }
      ],
      "name": "AdminChanged",
      "type": "event"
    },
    {
      "anonymous": false,
      "inputs": [
        {
          "indexed": true,
          "internalType": "address",
          "name": "beacon",
          "type": "address"
        }
      ],
      "name": "BeaconUpgraded",
      "type": "event"
    },
    {
      "anonymous": false,
      "inputs": [
        {
          "indexed": false,
          "internalType": "uint8",
          "name": "version",
          "type": "uint8"
        }
      ],
      "name": "Initialized",
      "type": "event"
    },
    {
      "anonymous": false,
      "inputs": [
        {
          "indexed": false,
          "internalType": "address",
          "name": "token",
          "type": "address"
        },
        {
          "indexed": false,
          "internalType": "address",
          "name": "oracleAddress",
          "type": "address"
        },
        {
          "indexed": false,
          "internalType": "bool",
          "name": "isEthIndexed",
          "type": "bool"
        },
        {
          "indexed": false,
          "internalType": "bool",
          "name": "isFallback",
          "type": "bool"
        }
      ],
      "name": "NewOracleRegistered",
      "type": "event"
    },
    {
      "anonymous": false,
      "inputs": [
        {
          "indexed": true,
          "internalType": "address",
          "name": "previousOwner",
          "type": "address"
        },
        {
          "indexed": true,
          "internalType": "address",
          "name": "newOwner",
          "type": "address"
        }
      ],
      "name": "OwnershipTransferred",
      "type": "event"
    },
    {
      "anonymous": false,
      "inputs": [
        {
          "indexed": true,
          "internalType": "address",
          "name": "implementation",
          "type": "address"
        }
      ],
      "name": "Upgraded",
      "type": "event"
    },
    {
      "inputs": [],
      "name": "NAME",
      "outputs": [
        {
          "internalType": "string",
          "name": "",
          "type": "string"
        }
      ],
      "stateMutability": "view",
      "type": "function"
    },
    {
      "inputs": [],
      "name": "TARGET_DIGITS",
      "outputs": [
        {
          "internalType": "uint256",
          "name": "",
          "type": "uint256"
        }
      ],
      "stateMutability": "view",
      "type": "function"
    },
    {
      "inputs": [],
      "name": "activePool",
      "outputs": [
        {
          "internalType": "address",
          "name": "",
          "type": "address"
        }
      ],
      "stateMutability": "view",
      "type": "function"
    },
    {
      "inputs": [],
      "name": "adminContract",
      "outputs": [
        {
          "internalType": "address",
          "name": "",
          "type": "address"
        }
      ],
      "stateMutability": "view",
      "type": "function"
    },
    {
      "inputs": [
        {
          "internalType": "address",
          "name": "newImplementation",
          "type": "address"
        }
      ],
      "name": "authorizeUpgrade",
      "outputs": [],
      "stateMutability": "nonpayable",
      "type": "function"
    },
    {
      "inputs": [],
      "name": "borrowerOperations",
      "outputs": [
        {
          "internalType": "address",
          "name": "",
          "type": "address"
        }
      ],
      "stateMutability": "view",
      "type": "function"
    },
    {
      "inputs": [],
      "name": "collSurplusPool",
      "outputs": [
        {
          "internalType": "address",
          "name": "",
          "type": "address"
        }
      ],
      "stateMutability": "view",
      "type": "function"
    },
    {
      "inputs": [],
      "name": "communityIssuance",
      "outputs": [
        {
          "internalType": "address",
          "name": "",
          "type": "address"
        }
      ],
      "stateMutability": "view",
      "type": "function"
    },
    {
      "inputs": [],
      "name": "debtToken",
      "outputs": [
        {
          "internalType": "address",
          "name": "",
          "type": "address"
        }
      ],
      "stateMutability": "view",
      "type": "function"
    },
    {
      "inputs": [],
      "name": "defaultPool",
      "outputs": [
        {
          "internalType": "address",
          "name": "",
          "type": "address"
        }
      ],
      "stateMutability": "view",
      "type": "function"
    },
    {
      "inputs": [
        {
          "internalType": "address",
          "name": "",
          "type": "address"
        }
      ],
      "name": "fallbacks",
      "outputs": [
        {
          "internalType": "address",
          "name": "oracleAddress",
          "type": "address"
        },
        {
          "internalType": "enum IPriceFeed.ProviderType",
          "name": "providerType",
          "type": "uint8"
        },
        {
          "internalType": "uint256",
          "name": "timeoutSeconds",
          "type": "uint256"
        },
        {
          "internalType": "uint256",
          "name": "decimals",
          "type": "uint256"
        },
        {
          "internalType": "bool",
          "name": "isEthIndexed",
          "type": "bool"
        }
      ],
      "stateMutability": "view",
      "type": "function"
    },
    {
      "inputs": [],
      "name": "feeCollector",
      "outputs": [
        {
          "internalType": "address",
          "name": "",
          "type": "address"
        }
      ],
      "stateMutability": "view",
      "type": "function"
    },
    {
      "inputs": [
        {
          "internalType": "address",
          "name": "_token",
          "type": "address"
        }
      ],
      "name": "fetchPrice",
      "outputs": [
        {
          "internalType": "uint256",
          "name": "",
          "type": "uint256"
        }
      ],
      "stateMutability": "view",
      "type": "function"
    },
    {
      "inputs": [],
      "name": "gasPoolAddress",
      "outputs": [
        {
          "internalType": "address",
          "name": "",
          "type": "address"
        }
      ],
      "stateMutability": "view",
      "type": "function"
    },
    {
      "inputs": [],
      "name": "grvtStaking",
      "outputs": [
        {
          "internalType": "address",
          "name": "",
          "type": "address"
        }
      ],
      "stateMutability": "view",
      "type": "function"
    },
    {
      "inputs": [],
      "name": "initialize",
      "outputs": [],
      "stateMutability": "nonpayable",
      "type": "function"
    },
    {
      "inputs": [],
      "name": "isAddressSetupInitialized",
      "outputs": [
        {
          "internalType": "bool",
          "name": "",
          "type": "bool"
        }
      ],
      "stateMutability": "view",
      "type": "function"
    },
    {
      "inputs": [
        {
          "internalType": "address",
          "name": "",
          "type": "address"
        }
      ],
      "name": "oracles",
      "outputs": [
        {
          "internalType": "address",
          "name": "oracleAddress",
          "type": "address"
        },
        {
          "internalType": "enum IPriceFeed.ProviderType",
          "name": "providerType",
          "type": "uint8"
        },
        {
          "internalType": "uint256",
          "name": "timeoutSeconds",
          "type": "uint256"
        },
        {
          "internalType": "uint256",
          "name": "decimals",
          "type": "uint256"
        },
        {
          "internalType": "bool",
          "name": "isEthIndexed",
          "type": "bool"
        }
      ],
      "stateMutability": "view",
      "type": "function"
    },
    {
      "inputs": [],
      "name": "owner",
      "outputs": [
        {
          "internalType": "address",
          "name": "",
          "type": "address"
        }
      ],
      "stateMutability": "view",
      "type": "function"
    },
    {
      "inputs": [],
      "name": "priceFeed",
      "outputs": [
        {
          "internalType": "address",
          "name": "",
          "type": "address"
        }
      ],
      "stateMutability": "view",
      "type": "function"
    },
    {
      "inputs": [],
      "name": "proxiableUUID",
      "outputs": [
        {
          "internalType": "bytes32",
          "name": "",
          "type": "bytes32"
        }
      ],
      "stateMutability": "view",
      "type": "function"
    },
    {
      "inputs": [],
      "name": "renounceOwnership",
      "outputs": [],
      "stateMutability": "nonpayable",
      "type": "function"
    },
    {
      "inputs": [
        {
          "internalType": "address[]",
          "name": "_addresses",
          "type": "address[]"
        }
      ],
      "name": "setAddresses",
      "outputs": [],
      "stateMutability": "nonpayable",
      "type": "function"
    },
    {
      "inputs": [
        {
          "internalType": "address",
          "name": "_communityIssuance",
          "type": "address"
        }
      ],
      "name": "setCommunityIssuance",
      "outputs": [],
      "stateMutability": "nonpayable",
      "type": "function"
    },
    {
      "inputs": [
        {
          "internalType": "address",
          "name": "_grvtStaking",
          "type": "address"
        }
      ],
      "name": "setGRVTStaking",
      "outputs": [],
      "stateMutability": "nonpayable",
      "type": "function"
    },
    {
      "inputs": [
        {
          "internalType": "address",
          "name": "_token",
          "type": "address"
        },
        {
          "internalType": "address",
          "name": "_oracle",
          "type": "address"
        },
        {
          "internalType": "enum IPriceFeed.ProviderType",
          "name": "_type",
          "type": "uint8"
        },
        {
          "internalType": "uint256",
          "name": "_timeoutSeconds",
          "type": "uint256"
        },
        {
          "internalType": "bool",
          "name": "_isEthIndexed",
          "type": "bool"
        },
        {
          "internalType": "bool",
          "name": "_isFallback",
          "type": "bool"
        }
      ],
      "name": "setOracle",
      "outputs": [],
      "stateMutability": "nonpayable",
      "type": "function"
    },
    {
      "inputs": [],
      "name": "sortedVessels",
      "outputs": [
        {
          "internalType": "address",
          "name": "",
          "type": "address"
        }
      ],
      "stateMutability": "view",
      "type": "function"
    },
    {
      "inputs": [],
      "name": "stabilityPool",
      "outputs": [
        {
          "internalType": "address",
          "name": "",
          "type": "address"
        }
      ],
      "stateMutability": "view",
      "type": "function"
    },
    {
      "inputs": [],
      "name": "timelockAddress",
      "outputs": [
        {
          "internalType": "address",
          "name": "",
          "type": "address"
        }
      ],
      "stateMutability": "view",
      "type": "function"
    },
    {
      "inputs": [
        {
          "internalType": "address",
          "name": "newOwner",
          "type": "address"
        }
      ],
      "name": "transferOwnership",
      "outputs": [],
      "stateMutability": "nonpayable",
      "type": "function"
    },
    {
      "inputs": [],
      "name": "treasuryAddress",
      "outputs": [
        {
          "internalType": "address",
          "name": "",
          "type": "address"
        }
      ],
      "stateMutability": "view",
      "type": "function"
    },
    {
      "inputs": [
        {
          "internalType": "address",
          "name": "newImplementation",
          "type": "address"
        }
      ],
      "name": "upgradeTo",
      "outputs": [],
      "stateMutability": "nonpayable",
      "type": "function"
    },
    {
      "inputs": [
        {
          "internalType": "address",
          "name": "newImplementation",
          "type": "address"
        },
        {
          "internalType": "bytes",
          "name": "data",
          "type": "bytes"
        }
      ],
      "name": "upgradeToAndCall",
      "outputs": [],
      "stateMutability": "payable",
      "type": "function"
    },
    {
      "inputs": [],
      "name": "vesselManager",
      "outputs": [
        {
          "internalType": "address",
          "name": "",
          "type": "address"
        }
      ],
      "stateMutability": "view",
      "type": "function"
    },
    {
      "inputs": [],
      "name": "vesselManagerOperations",
      "outputs": [
        {
          "internalType": "address",
          "name": "",
          "type": "address"
        }
      ],
      "stateMutability": "view",
      "type": "function"
    }
  ],
  "bytecode": "0x60a06040523060805234801561001457600080fd5b5060805161238761004c6000396000818161071b01528181610764015281816108030152818161084301526108d601526123876000f3fe6080604052600436106102045760003560e01c806395fb16bb11610118578063c7eae303116100a0578063f8d898981161006f578063f8d8989814610671578063fcca7fd114610691578063fd092fc5146106b1578063fe060733146106d1578063fe9d0323146106f157600080fd5b8063c7eae303146105e0578063c8564c6214610600578063cda775f914610631578063f2fde38b1461065157600080fd5b8063addd5099116100e7578063addd509914610507578063b957172114610560578063c05c5e9414610580578063c415b95c146105a0578063c5f956af146105c057600080fd5b806395fb16bb146104655780639ec67e4214610485578063a3f4df7e146104a5578063ace1798e146104e757600080fd5b80634f1ef2861161019b578063741bef1a1161016a578063741bef1a146103d257806377553ad4146103f25780637f7dde4a146104125780638129fc1c146104325780638da5cb5b1461044757600080fd5b80634f1ef2861461037557806352d1902d146103885780636a85d67d1461039d578063715018a6146103bd57600080fd5b80633659cfe6116101d75780633659cfe6146102f35780633cc74225146103155780634284af1f146103355780634bc66f321461035557600080fd5b8063048c661d146102095780630f2343fd146102465780631be5c92f1461026657806326256c0b14610289575b600080fd5b34801561021557600080fd5b5060d554610229906001600160a01b031681565b6040516001600160a01b0390911681526020015b60405180910390f35b34801561025257600080fd5b5060d854610229906001600160a01b031681565b34801561027257600080fd5b5061027b601281565b60405190815260200161023d565b34801561029557600080fd5b506102e26102a4366004611dcb565b60fe6020526000908152604090208054600182015460028301546003909301546001600160a01b0383169360ff600160a01b90940484169390911685565b60405161023d959493929190611dfc565b3480156102ff57600080fd5b5061031361030e366004611dcb565b610711565b005b34801561032157600080fd5b5060cf54610229906001600160a01b031681565b34801561034157600080fd5b5060d954610229906001600160a01b031681565b34801561036157600080fd5b5060d654610229906001600160a01b031681565b610313610383366004611e64565b6107f9565b34801561039457600080fd5b5061027b6108c9565b3480156103a957600080fd5b506103136103b8366004611dcb565b61097c565b3480156103c957600080fd5b506103136109a6565b3480156103de57600080fd5b5060d354610229906001600160a01b031681565b3480156103fe57600080fd5b5060cb54610229906001600160a01b031681565b34801561041e57600080fd5b5060c954610229906001600160a01b031681565b34801561043e57600080fd5b506103136109ba565b34801561045357600080fd5b506065546001600160a01b0316610229565b34801561047157600080fd5b5060cd54610229906001600160a01b031681565b34801561049157600080fd5b5060d254610229906001600160a01b031681565b3480156104b157600080fd5b506104da60405180604001604052806009815260200168141c9a58d95199595960ba1b81525081565b60405161023d9190611f4a565b3480156104f357600080fd5b5061027b610502366004611dcb565b610ad2565b34801561051357600080fd5b506102e2610522366004611dcb565b60fd6020526000908152604090208054600182015460028301546003909301546001600160a01b0383169360ff600160a01b90940484169390911685565b34801561056c57600080fd5b5061031361057b366004611f7d565b610c5b565b34801561058c57600080fd5b5060ca54610229906001600160a01b031681565b3480156105ac57600080fd5b5060d054610229906001600160a01b031681565b3480156105cc57600080fd5b5060d754610229906001600160a01b031681565b3480156105ec57600080fd5b5060d454610229906001600160a01b031681565b34801561060c57600080fd5b5060d95461062190600160a01b900460ff1681565b604051901515815260200161023d565b34801561063d57600080fd5b5060cc54610229906001600160a01b031681565b34801561065d57600080fd5b5061031361066c366004611dcb565b6111df565b34801561067d57600080fd5b5060ce54610229906001600160a01b031681565b34801561069d57600080fd5b506103136106ac366004612002565b611255565b3480156106bd57600080fd5b506103136106cc366004611dcb565b6114e6565b3480156106dd57600080fd5b506103136106ec366004611dcb565b611510565b3480156106fd57600080fd5b5060d154610229906001600160a01b031681565b6001600160a01b037f00000000000000000000000000000000000000000000000000000000000000001630036107625760405162461bcd60e51b815260040161075990612075565b60405180910390fd5b7f00000000000000000000000000000000000000000000000000000000000000006001600160a01b03166107ab60008051602061230b833981519152546001600160a01b031690565b6001600160a01b0316146107d15760405162461bcd60e51b8152600401610759906120c1565b6107da81611515565b604080516000808252602082019092526107f69183919061151d565b50565b6001600160a01b037f00000000000000000000000000000000000000000000000000000000000000001630036108415760405162461bcd60e51b815260040161075990612075565b7f00000000000000000000000000000000000000000000000000000000000000006001600160a01b031661088a60008051602061230b833981519152546001600160a01b031690565b6001600160a01b0316146108b05760405162461bcd60e51b8152600401610759906120c1565b6108b982611515565b6108c58282600161151d565b5050565b6000306001600160a01b037f000000000000000000000000000000000000000000000000000000000000000016146109695760405162461bcd60e51b815260206004820152603860248201527f555550535570677261646561626c653a206d757374206e6f742062652063616c60448201527f6c6564207468726f7567682064656c656761746563616c6c00000000000000006064820152608401610759565b5060008051602061230b83398151915290565b61098461168d565b60cd80546001600160a01b0319166001600160a01b0392909216919091179055565b6109ae61168d565b6109b860006116e7565b565b600054610100900460ff16158080156109da5750600054600160ff909116105b806109f45750303b1580156109f4575060005460ff166001145b610a575760405162461bcd60e51b815260206004820152602e60248201527f496e697469616c697a61626c653a20636f6e747261637420697320616c72656160448201526d191e481a5b9a5d1a585b1a5e995960921b6064820152608401610759565b6000805460ff191660011790558015610a7a576000805461ff0019166101001790555b610a82611739565b610a8a611768565b80156107f6576000805461ff0019169055604051600181527f7f26b83ff96e1f2b6a682f133852f6798a09c465da95921460cefb38474024989060200160405180910390a150565b6001600160a01b03818116600090815260fd60209081526040808320815160a0810190925280549485168252929384939192830190600160a01b900460ff166001811115610b2257610b22611de6565b6001811115610b3357610b33611de6565b8152600182015460208201526002820154604082015260039091015460ff16151560609091015290506000610b678261178f565b90508015610b8f578160800151610b7e5780610b87565b610b8781611855565b949350505050565b6001600160a01b03848116600090815260fe6020908152604091829020825160a0810190935280549384168352919290830190600160a01b900460ff166001811115610bdd57610bdd611de6565b6001811115610bee57610bee611de6565b8152600182015460208201526002820154604082015260039091015460ff1615156060909101529150610c208261178f565b90508015610c37578160800151610b7e5780610b87565b60405163283f5cb560e01b81526001600160a01b0385166004820152602401610759565b610c6361168d565b60d954600160a01b900460ff1615610cbd5760405162461bcd60e51b815260206004820152601c60248201527f536574757020697320616c726561647920696e697469616c697a6564000000006044820152606401610759565b600f8114610d0d5760405162461bcd60e51b815260206004820152601e60248201527f45787065637465642031352061646472657373657320617420736574757000006044820152606401610759565b60005b600f811015610d9c576000838383818110610d2d57610d2d61210d565b9050602002016020810190610d429190611dcb565b6001600160a01b031603610d8a5760405162461bcd60e51b815260206004820152600f60248201526e496e76616c6964206164647265737360881b6044820152606401610759565b80610d9481612139565b915050610d10565b5081816000818110610db057610db061210d565b9050602002016020810190610dc59190611dcb565b60c980546001600160a01b0319166001600160a01b039290921691909117905581816001818110610df857610df861210d565b9050602002016020810190610e0d9190611dcb565b60ca80546001600160a01b0319166001600160a01b039290921691909117905581816002818110610e4057610e4061210d565b9050602002016020810190610e559190611dcb565b60cb80546001600160a01b0319166001600160a01b039290921691909117905581816003818110610e8857610e8861210d565b9050602002016020810190610e9d9190611dcb565b60cc80546001600160a01b0319166001600160a01b039290921691909117905581816004818110610ed057610ed061210d565b9050602002016020810190610ee59190611dcb565b60ce80546001600160a01b0319166001600160a01b039290921691909117905581816005818110610f1857610f1861210d565b9050602002016020810190610f2d9190611dcb565b60cf80546001600160a01b0319166001600160a01b039290921691909117905581816006818110610f6057610f6061210d565b9050602002016020810190610f759190611dcb565b60d080546001600160a01b0319166001600160a01b039290921691909117905581816007818110610fa857610fa861210d565b9050602002016020810190610fbd9190611dcb565b60d180546001600160a01b0319166001600160a01b039290921691909117905581816008818110610ff057610ff061210d565b90506020020160208101906110059190611dcb565b60d380546001600160a01b0319166001600160a01b0392909216919091179055818160098181106110385761103861210d565b905060200201602081019061104d9190611dcb565b60d480546001600160a01b0319166001600160a01b03929092169190911790558181600a8181106110805761108061210d565b90506020020160208101906110959190611dcb565b60d580546001600160a01b0319166001600160a01b03929092169190911790558181600b8181106110c8576110c861210d565b90506020020160208101906110dd9190611dcb565b60d680546001600160a01b0319166001600160a01b03929092169190911790558181600c8181106111105761111061210d565b90506020020160208101906111259190611dcb565b60d780546001600160a01b0319166001600160a01b03929092169190911790558181600d8181106111585761115861210d565b905060200201602081019061116d9190611dcb565b60d880546001600160a01b0319166001600160a01b03929092169190911790558181600e8181106111a0576111a061210d565b90506020020160208101906111b59190611dcb565b60d980546001600160a81b0319166001600160a01b039290921691909117600160a01b1790555050565b6111e761168d565b6001600160a01b03811661124c5760405162461bcd60e51b815260206004820152602660248201527f4f776e61626c653a206e6577206f776e657220697320746865207a65726f206160448201526564647265737360d01b6064820152608401610759565b6107f6816116e7565b61125f8682611888565b80801561128457506001600160a01b03868116600090815260fd602052604090205416155b156112a257604051634a0e0c3b60e11b815260040160405180910390fd5b60006112ae868661190a565b60ff169050806000036112d45760405163ee65a7e560e01b815260040160405180910390fd5b60006040518060a00160405280886001600160a01b0316815260200187600181111561130257611302611de6565b8152602001868152602001838152602001851515815250905060006113268261178f565b9050806000036113545760405163283f5cb560e01b81526001600160a01b038a166004820152602401610759565b83156113f3576001600160a01b03808a16600090815260fe602090815260409091208451815493166001600160a01b03198416811782559185015185939192909183916001600160a81b031990911617600160a01b8360018111156113bb576113bb611de6565b021790555060408201516001820155606082015160028201556080909101516003909101805460ff1916911515919091179055611488565b6001600160a01b03808a16600090815260fd602090815260409091208451815493166001600160a01b03198416811782559185015185939192909183916001600160a81b031990911617600160a01b83600181111561145457611454611de6565b021790555060408201516001820155606082015160028201556080909101516003909101805460ff19169115159190911790555b604080516001600160a01b038b811682528a16602082015286151581830152851515606082015290517fcbde3c20c68ba036ef9cd1c074d075187be3640bc7a5b3fb85f045b07ab9a9309181900360800190a1505050505050505050565b6114ee61168d565b60d280546001600160a01b0319166001600160a01b0392909216919091179055565b6107f6815b6107f661168d565b7f4910fdfa16fed3260ed0e7147f7cc6da11a60208b5b9406d12a635614ffd91435460ff161561155557611550836119b9565b505050565b826001600160a01b03166352d1902d6040518163ffffffff1660e01b8152600401602060405180830381865afa9250505080156115af575060408051601f3d908101601f191682019092526115ac91810190612152565b60015b6116125760405162461bcd60e51b815260206004820152602e60248201527f45524331393637557067726164653a206e657720696d706c656d656e7461746960448201526d6f6e206973206e6f74205555505360901b6064820152608401610759565b60008051602061230b83398151915281146116815760405162461bcd60e51b815260206004820152602960248201527f45524331393637557067726164653a20756e737570706f727465642070726f786044820152681a58589b195555525160ba1b6064820152608401610759565b50611550838383611a55565b6065546001600160a01b031633146109b85760405162461bcd60e51b815260206004820181905260248201527f4f776e61626c653a2063616c6c6572206973206e6f7420746865206f776e65726044820152606401610759565b606580546001600160a01b038381166001600160a01b0319831681179093556040519116919082907f8be0079c531659141344cd1fd0a4f28419497f9722a3daafe3b4186f6b6457e090600090a35050565b600054610100900460ff166117605760405162461bcd60e51b81526004016107599061216b565b6109b8611a80565b600054610100900460ff166109b85760405162461bcd60e51b81526004016107599061216b565b8051600090819081906001600160a01b03166117be57604051632e054cdf60e21b815260040160405180910390fd5b836020015160018111156117d4576117d4611de6565b6000036117f05783516117e690611ab0565b909250905061181e565b8360200151600181111561180657611806611de6565b60010361181e57835161181890611b4e565b90925090505b81158015906118385750611836818560400151611bdc565b155b1561184b57610b87828560600151611bf1565b5060009392505050565b6000806118626000610ad2565b9050670de0b6b3a764000061187784836121b6565b61188191906121e3565b9392505050565b6000816118ac576001600160a01b038316600090815260fd602052604090206118c5565b6001600160a01b038316600090815260fe602052604090205b80549091506001600160a01b03166118df5761155061168d565b60d6546001600160a01b0316331461155057604051633bc92b2160e01b815260040160405180910390fd5b600081600181111561191e5761191e611de6565b60000361198e57826001600160a01b031663313ce5676040518163ffffffff1660e01b8152600401602060405180830381865afa158015611963573d6000803e3d6000fd5b505050506040513d601f19601f820116820180604052508101906119879190612205565b90506119b3565b8160018111156119a0576119a0611de6565b6001036119af575060126119b3565b5060005b92915050565b6001600160a01b0381163b611a265760405162461bcd60e51b815260206004820152602d60248201527f455243313936373a206e657720696d706c656d656e746174696f6e206973206e60448201526c1bdd08184818dbdb9d1c9858dd609a1b6064820152608401610759565b60008051602061230b83398151915280546001600160a01b0319166001600160a01b0392909216919091179055565b611a5e83611c39565b600082511180611a6b5750805b1561155057611a7a8383611c79565b50505050565b600054610100900460ff16611aa75760405162461bcd60e51b81526004016107599061216b565b6109b8336116e7565b600080826001600160a01b031663feaf968c6040518163ffffffff1660e01b815260040160a060405180830381865afa925050508015611b0d575060408051601f3d908101601f19168201909252611b0a91810190612242565b60015b15611b495769ffffffffffffffffffff851615801590611b2c57508115155b8015611b3757508315155b15611b43578396508195505b50505050505b915091565b600080600080846001600160a01b03166357de26a46040518163ffffffff1660e01b81526004016040805180830381865afa158015611b91573d6000803e3d6000fd5b505050506040513d601f19601f82011682018060405250810190611bb59190612292565b63ffffffff1691509150600082601b0b1315611bd55781601b0b93508092505b5050915091565b600081611be984426122db565b119392505050565b60006012821115611c195760128203600a0a8381611c1157611c116121cd565b0490506119b3565b6012821015611c325781601203600a0a830290506119b3565b5090919050565b611c42816119b9565b6040516001600160a01b038216907fbc7cd75a20ee27fd9adebab32041f755214dbc6bffa90cc0225b39da2e5c2d3b90600090a250565b6060611881838360405180606001604052806027815260200161232b602791396060600080856001600160a01b031685604051611cb691906122ee565b600060405180830381855af49150503d8060008114611cf1576040519150601f19603f3d011682016040523d82523d6000602084013e611cf6565b606091505b5091509150611d0786838387611d11565b9695505050505050565b60608315611d80578251600003611d79576001600160a01b0385163b611d795760405162461bcd60e51b815260206004820152601d60248201527f416464726573733a2063616c6c20746f206e6f6e2d636f6e74726163740000006044820152606401610759565b5081610b87565b610b878383815115611d955781518083602001fd5b8060405162461bcd60e51b81526004016107599190611f4a565b80356001600160a01b0381168114611dc657600080fd5b919050565b600060208284031215611ddd57600080fd5b61188182611daf565b634e487b7160e01b600052602160045260246000fd5b6001600160a01b038616815260a0810160028610611e2a57634e487b7160e01b600052602160045260246000fd5b85602083015284604083015283606083015282151560808301529695505050505050565b634e487b7160e01b600052604160045260246000fd5b60008060408385031215611e7757600080fd5b611e8083611daf565b9150602083013567ffffffffffffffff80821115611e9d57600080fd5b818501915085601f830112611eb157600080fd5b813581811115611ec357611ec3611e4e565b604051601f8201601f19908116603f01168101908382118183101715611eeb57611eeb611e4e565b81604052828152886020848701011115611f0457600080fd5b8260208601602083013760006020848301015280955050505050509250929050565b60005b83811015611f41578181015183820152602001611f29565b50506000910152565b6020815260008251806020840152611f69816040850160208701611f26565b601f01601f19169190910160400192915050565b60008060208385031215611f9057600080fd5b823567ffffffffffffffff80821115611fa857600080fd5b818501915085601f830112611fbc57600080fd5b813581811115611fcb57600080fd5b8660208260051b8501011115611fe057600080fd5b60209290920196919550909350505050565b80358015158114611dc657600080fd5b60008060008060008060c0878903121561201b57600080fd5b61202487611daf565b955061203260208801611daf565b945060408701356002811061204657600080fd5b93506060870135925061205b60808801611ff2565b915061206960a08801611ff2565b90509295509295509295565b6020808252602c908201527f46756e6374696f6e206d7573742062652063616c6c6564207468726f7567682060408201526b19195b1959d85d1958d85b1b60a21b606082015260800190565b6020808252602c908201527f46756e6374696f6e206d7573742062652063616c6c6564207468726f7567682060408201526b6163746976652070726f787960a01b606082015260800190565b634e487b7160e01b600052603260045260246000fd5b634e487b7160e01b600052601160045260246000fd5b60006001820161214b5761214b612123565b5060010190565b60006020828403121561216457600080fd5b5051919050565b6020808252602b908201527f496e697469616c697a61626c653a20636f6e7472616374206973206e6f74206960408201526a6e697469616c697a696e6760a81b606082015260800190565b80820281158282048414176119b3576119b3612123565b634e487b7160e01b600052601260045260246000fd5b60008261220057634e487b7160e01b600052601260045260246000fd5b500490565b60006020828403121561221757600080fd5b815160ff8116811461188157600080fd5b805169ffffffffffffffffffff81168114611dc657600080fd5b600080600080600060a0868803121561225a57600080fd5b61226386612228565b945060208601519350604086015192506060860151915061228660808701612228565b90509295509295909350565b600080604083850312156122a557600080fd5b825180601b0b81146122b657600080fd5b602084015190925063ffffffff811681146122d057600080fd5b809150509250929050565b818103818111156119b3576119b3612123565b60008251612300818460208701611f26565b919091019291505056fe360894a13ba1a3210667c828492db98dca3e2076cc3735a920a3ca505d382bbc416464726573733a206c6f772d6c6576656c2064656c65676174652063616c6c206661696c6564a264697066735822122043c517a8adaee536cecddc2328549e7d4c1aa6cc79668f81ae776979a086df4b64736f6c63430008130033",
  "linkReferences": {},
  "deployedLinkReferences": {}
}