{
  "_format": "hh-sol-artifact-1",
  "contractName": "SortedVessels",
  "sourceName": "contracts/SortedVessels.sol",
  "abi": [
    {
      "anonymous": false,
      "inputs": [
        {
          "indexed": false,
          "internalType": "address",
          "name": "previousAdmin",
          "type": "address"
        },
        {
          "indexed": false,
          "internalType": "address",
          "name": "newAdmin",
          "type": "address"
        }
      ],
      "name": "AdminChanged",
      "type": "event"
    },
    {
      "anonymous": false,
      "inputs": [
        {
          "indexed": true,
          "internalType": "address",
          "name": "beacon",
          "type": "address"
        }
      ],
      "name": "BeaconUpgraded",
      "type": "event"
    },
    {
      "anonymous": false,
      "inputs": [
        {
          "indexed": false,
          "internalType": "uint8",
          "name": "version",
          "type": "uint8"
        }
      ],
      "name": "Initialized",
      "type": "event"
    },
    {
      "anonymous": false,
      "inputs": [
        {
          "indexed": true,
          "internalType": "address",
          "name": "_asset",
          "type": "address"
        },
        {
          "indexed": false,
          "internalType": "address",
          "name": "_id",
          "type": "address"
        },
        {
          "indexed": false,
          "internalType": "uint256",
          "name": "_NICR",
          "type": "uint256"
        }
      ],
      "name": "NodeAdded",
      "type": "event"
    },
    {
      "anonymous": false,
      "inputs": [
        {
          "indexed": true,
          "internalType": "address",
          "name": "_asset",
          "type": "address"
        },
        {
          "indexed": false,
          "internalType": "address",
          "name": "_id",
          "type": "address"
        }
      ],
      "name": "NodeRemoved",
      "type": "event"
    },
    {
      "anonymous": false,
      "inputs": [
        {
          "indexed": true,
          "internalType": "address",
          "name": "previousOwner",
          "type": "address"
        },
        {
          "indexed": true,
          "internalType": "address",
          "name": "newOwner",
          "type": "address"
        }
      ],
      "name": "OwnershipTransferred",
      "type": "event"
    },
    {
      "anonymous": false,
      "inputs": [
        {
          "indexed": true,
          "internalType": "address",
          "name": "implementation",
          "type": "address"
        }
      ],
      "name": "Upgraded",
      "type": "event"
    },
    {
      "inputs": [],
      "name": "NAME",
      "outputs": [
        {
          "internalType": "string",
          "name": "",
          "type": "string"
        }
      ],
      "stateMutability": "view",
      "type": "function"
    },
    {
      "inputs": [],
      "name": "activePool",
      "outputs": [
        {
          "internalType": "address",
          "name": "",
          "type": "address"
        }
      ],
      "stateMutability": "view",
      "type": "function"
    },
    {
      "inputs": [],
      "name": "adminContract",
      "outputs": [
        {
          "internalType": "address",
          "name": "",
          "type": "address"
        }
      ],
      "stateMutability": "view",
      "type": "function"
    },
    {
      "inputs": [
        {
          "internalType": "address",
          "name": "newImplementation",
          "type": "address"
        }
      ],
      "name": "authorizeUpgrade",
      "outputs": [],
      "stateMutability": "nonpayable",
      "type": "function"
    },
    {
      "inputs": [],
      "name": "borrowerOperations",
      "outputs": [
        {
          "internalType": "address",
          "name": "",
          "type": "address"
        }
      ],
      "stateMutability": "view",
      "type": "function"
    },
    {
      "inputs": [],
      "name": "collSurplusPool",
      "outputs": [
        {
          "internalType": "address",
          "name": "",
          "type": "address"
        }
      ],
      "stateMutability": "view",
      "type": "function"
    },
    {
      "inputs": [],
      "name": "communityIssuance",
      "outputs": [
        {
          "internalType": "address",
          "name": "",
          "type": "address"
        }
      ],
      "stateMutability": "view",
      "type": "function"
    },
    {
      "inputs": [
        {
          "internalType": "address",
          "name": "_asset",
          "type": "address"
        },
        {
          "internalType": "address",
          "name": "_id",
          "type": "address"
        }
      ],
      "name": "contains",
      "outputs": [
        {
          "internalType": "bool",
          "name": "",
          "type": "bool"
        }
      ],
      "stateMutability": "view",
      "type": "function"
    },
    {
      "inputs": [
        {
          "internalType": "address",
          "name": "",
          "type": "address"
        }
      ],
      "name": "data",
      "outputs": [
        {
          "internalType": "address",
          "name": "head",
          "type": "address"
        },
        {
          "internalType": "address",
          "name": "tail",
          "type": "address"
        },
        {
          "internalType": "uint256",
          "name": "size",
          "type": "uint256"
        }
      ],
      "stateMutability": "view",
      "type": "function"
    },
    {
      "inputs": [],
      "name": "debtToken",
      "outputs": [
        {
          "internalType": "address",
          "name": "",
          "type": "address"
        }
      ],
      "stateMutability": "view",
      "type": "function"
    },
    {
      "inputs": [],
      "name": "defaultPool",
      "outputs": [
        {
          "internalType": "address",
          "name": "",
          "type": "address"
        }
      ],
      "stateMutability": "view",
      "type": "function"
    },
    {
      "inputs": [],
      "name": "feeCollector",
      "outputs": [
        {
          "internalType": "address",
          "name": "",
          "type": "address"
        }
      ],
      "stateMutability": "view",
      "type": "function"
    },
    {
      "inputs": [
        {
          "internalType": "address",
          "name": "_asset",
          "type": "address"
        },
        {
          "internalType": "uint256",
          "name": "_NICR",
          "type": "uint256"
        },
        {
          "internalType": "address",
          "name": "_prevId",
          "type": "address"
        },
        {
          "internalType": "address",
          "name": "_nextId",
          "type": "address"
        }
      ],
      "name": "findInsertPosition",
      "outputs": [
        {
          "internalType": "address",
          "name": "",
          "type": "address"
        },
        {
          "internalType": "address",
          "name": "",
          "type": "address"
        }
      ],
      "stateMutability": "view",
      "type": "function"
    },
    {
      "inputs": [],
      "name": "gasPoolAddress",
      "outputs": [
        {
          "internalType": "address",
          "name": "",
          "type": "address"
        }
      ],
      "stateMutability": "view",
      "type": "function"
    },
    {
      "inputs": [
        {
          "internalType": "address",
          "name": "_asset",
          "type": "address"
        }
      ],
      "name": "getFirst",
      "outputs": [
        {
          "internalType": "address",
          "name": "",
          "type": "address"
        }
      ],
      "stateMutability": "view",
      "type": "function"
    },
    {
      "inputs": [
        {
          "internalType": "address",
          "name": "_asset",
          "type": "address"
        }
      ],
      "name": "getLast",
      "outputs": [
        {
          "internalType": "address",
          "name": "",
          "type": "address"
        }
      ],
      "stateMutability": "view",
      "type": "function"
    },
    {
      "inputs": [
        {
          "internalType": "address",
          "name": "_asset",
          "type": "address"
        },
        {
          "internalType": "address",
          "name": "_id",
          "type": "address"
        }
      ],
      "name": "getNext",
      "outputs": [
        {
          "internalType": "address",
          "name": "",
          "type": "address"
        }
      ],
      "stateMutability": "view",
      "type": "function"
    },
    {
      "inputs": [
        {
          "internalType": "address",
          "name": "_asset",
          "type": "address"
        },
        {
          "internalType": "address",
          "name": "_id",
          "type": "address"
        }
      ],
      "name": "getPrev",
      "outputs": [
        {
          "internalType": "address",
          "name": "",
          "type": "address"
        }
      ],
      "stateMutability": "view",
      "type": "function"
    },
    {
      "inputs": [
        {
          "internalType": "address",
          "name": "_asset",
          "type": "address"
        }
      ],
      "name": "getSize",
      "outputs": [
        {
          "internalType": "uint256",
          "name": "",
          "type": "uint256"
        }
      ],
      "stateMutability": "view",
      "type": "function"
    },
    {
      "inputs": [],
      "name": "grvtStaking",
      "outputs": [
        {
          "internalType": "address",
          "name": "",
          "type": "address"
        }
      ],
      "stateMutability": "view",
      "type": "function"
    },
    {
      "inputs": [],
      "name": "initialize",
      "outputs": [],
      "stateMutability": "nonpayable",
      "type": "function"
    },
    {
      "inputs": [
        {
          "internalType": "address",
          "name": "_asset",
          "type": "address"
        },
        {
          "internalType": "address",
          "name": "_id",
          "type": "address"
        },
        {
          "internalType": "uint256",
          "name": "_NICR",
          "type": "uint256"
        },
        {
          "internalType": "address",
          "name": "_prevId",
          "type": "address"
        },
        {
          "internalType": "address",
          "name": "_nextId",
          "type": "address"
        }
      ],
      "name": "insert",
      "outputs": [],
      "stateMutability": "nonpayable",
      "type": "function"
    },
    {
      "inputs": [],
      "name": "isAddressSetupInitialized",
      "outputs": [
        {
          "internalType": "bool",
          "name": "",
          "type": "bool"
        }
      ],
      "stateMutability": "view",
      "type": "function"
    },
    {
      "inputs": [
        {
          "internalType": "address",
          "name": "_asset",
          "type": "address"
        }
      ],
      "name": "isEmpty",
      "outputs": [
        {
          "internalType": "bool",
          "name": "",
          "type": "bool"
        }
      ],
      "stateMutability": "view",
      "type": "function"
    },
    {
      "inputs": [],
      "name": "owner",
      "outputs": [
        {
          "internalType": "address",
          "name": "",
          "type": "address"
        }
      ],
      "stateMutability": "view",
      "type": "function"
    },
    {
      "inputs": [],
      "name": "priceFeed",
      "outputs": [
        {
          "internalType": "address",
          "name": "",
          "type": "address"
        }
      ],
      "stateMutability": "view",
      "type": "function"
    },
    {
      "inputs": [],
      "name": "proxiableUUID",
      "outputs": [
        {
          "internalType": "bytes32",
          "name": "",
          "type": "bytes32"
        }
      ],
      "stateMutability": "view",
      "type": "function"
    },
    {
      "inputs": [
        {
          "internalType": "address",
          "name": "_asset",
          "type": "address"
        },
        {
          "internalType": "address",
          "name": "_id",
          "type": "address"
        },
        {
          "internalType": "uint256",
          "name": "_newNICR",
          "type": "uint256"
        },
        {
          "internalType": "address",
          "name": "_prevId",
          "type": "address"
        },
        {
          "internalType": "address",
          "name": "_nextId",
          "type": "address"
        }
      ],
      "name": "reInsert",
      "outputs": [],
      "stateMutability": "nonpayable",
      "type": "function"
    },
    {
      "inputs": [
        {
          "internalType": "address",
          "name": "_asset",
          "type": "address"
        },
        {
          "internalType": "address",
          "name": "_id",
          "type": "address"
        }
      ],
      "name": "remove",
      "outputs": [],
      "stateMutability": "nonpayable",
      "type": "function"
    },
    {
      "inputs": [],
      "name": "renounceOwnership",
      "outputs": [],
      "stateMutability": "nonpayable",
      "type": "function"
    },
    {
      "inputs": [
        {
          "internalType": "address[]",
          "name": "_addresses",
          "type": "address[]"
        }
      ],
      "name": "setAddresses",
      "outputs": [],
      "stateMutability": "nonpayable",
      "type": "function"
    },
    {
      "inputs": [
        {
          "internalType": "address",
          "name": "_communityIssuance",
          "type": "address"
        }
      ],
      "name": "setCommunityIssuance",
      "outputs": [],
      "stateMutability": "nonpayable",
      "type": "function"
    },
    {
      "inputs": [
        {
          "internalType": "address",
          "name": "_grvtStaking",
          "type": "address"
        }
      ],
      "name": "setGRVTStaking",
      "outputs": [],
      "stateMutability": "nonpayable",
      "type": "function"
    },
    {
      "inputs": [],
      "name": "sortedVessels",
      "outputs": [
        {
          "internalType": "address",
          "name": "",
          "type": "address"
        }
      ],
      "stateMutability": "view",
      "type": "function"
    },
    {
      "inputs": [],
      "name": "stabilityPool",
      "outputs": [
        {
          "internalType": "address",
          "name": "",
          "type": "address"
        }
      ],
      "stateMutability": "view",
      "type": "function"
    },
    {
      "inputs": [],
      "name": "timelockAddress",
      "outputs": [
        {
          "internalType": "address",
          "name": "",
          "type": "address"
        }
      ],
      "stateMutability": "view",
      "type": "function"
    },
    {
      "inputs": [
        {
          "internalType": "address",
          "name": "newOwner",
          "type": "address"
        }
      ],
      "name": "transferOwnership",
      "outputs": [],
      "stateMutability": "nonpayable",
      "type": "function"
    },
    {
      "inputs": [],
      "name": "treasuryAddress",
      "outputs": [
        {
          "internalType": "address",
          "name": "",
          "type": "address"
        }
      ],
      "stateMutability": "view",
      "type": "function"
    },
    {
      "inputs": [
        {
          "internalType": "address",
          "name": "newImplementation",
          "type": "address"
        }
      ],
      "name": "upgradeTo",
      "outputs": [],
      "stateMutability": "nonpayable",
      "type": "function"
    },
    {
      "inputs": [
        {
          "internalType": "address",
          "name": "newImplementation",
          "type": "address"
        },
        {
          "internalType": "bytes",
          "name": "data",
          "type": "bytes"
        }
      ],
      "name": "upgradeToAndCall",
      "outputs": [],
      "stateMutability": "payable",
      "type": "function"
    },
    {
      "inputs": [
        {
          "internalType": "address",
          "name": "_asset",
          "type": "address"
        },
        {
          "internalType": "uint256",
          "name": "_NICR",
          "type": "uint256"
        },
        {
          "internalType": "address",
          "name": "_prevId",
          "type": "address"
        },
        {
          "internalType": "address",
          "name": "_nextId",
          "type": "address"
        }
      ],
      "name": "validInsertPosition",
      "outputs": [
        {
          "internalType": "bool",
          "name": "",
          "type": "bool"
        }
      ],
      "stateMutability": "view",
      "type": "function"
    },
    {
      "inputs": [],
      "name": "vesselManager",
      "outputs": [
        {
          "internalType": "address",
          "name": "",
          "type": "address"
        }
      ],
      "stateMutability": "view",
      "type": "function"
    },
    {
      "inputs": [],
      "name": "vesselManagerOperations",
      "outputs": [
        {
          "internalType": "address",
          "name": "",
          "type": "address"
        }
      ],
      "stateMutability": "view",
      "type": "function"
    }
  ],
  "bytecode": "0x60a06040523060805234801561001457600080fd5b50608051612c5661004c600039600081816108f00152818161093901528181610a0f01528181610a4f0152610ae20152612c566000f3fe60806040526004361061025c5760003560e01c80638da5cb5b11610144578063c7eae303116100b6578063ed26cae81161007a578063ed26cae814610826578063f2fde38b14610846578063f8d8989814610866578063fd092fc514610886578063fe060733146108a6578063fe9d0323146108c657600080fd5b8063c7eae30314610759578063c8564c6214610779578063cda775f91461079a578063e71b8400146107ba578063eceea2fb1461080657600080fd5b8063b957172111610108578063b95717211461068b578063bc9b5bd5146106ab578063bff365c4146106cb578063c05c5e94146106f9578063c415b95c14610719578063c5f956af1461073957600080fd5b80638da5cb5b1461057857806395fb16bb146105965780639ec67e42146105b6578063a3f4df7e146105d6578063b90d3d0c1461061c57600080fd5b8063504f1671116101dd57806376082715116101a157806376082715146104a757806377553ad4146104e35780637c933c0a146105035780637f7c1491146105235780637f7dde4a146105435780638129fc1c1461056357600080fd5b8063504f1671146103f657806352d1902d1461043d5780636a85d67d14610452578063715018a614610472578063741bef1a1461048757600080fd5b80633b725b23116102245780633b725b23146103395780633cc74225146103835780634284af1f146103a35780634bc66f32146103c35780634f1ef286146103e357600080fd5b8063048c661d146102615780630f2343fd1461029e5780631bdb4c8d146102be5780633659cfe6146102f757806339ed25cd14610319575b600080fd5b34801561026d57600080fd5b5060d554610281906001600160a01b031681565b6040516001600160a01b0390911681526020015b60405180910390f35b3480156102aa57600080fd5b5060d854610281906001600160a01b031681565b3480156102ca57600080fd5b506102816102d9366004612710565b6001600160a01b03908116600090815260fb60205260409020541690565b34801561030357600080fd5b50610317610312366004612710565b6108e6565b005b34801561032557600080fd5b5061028161033436600461272b565b6109ce565b34801561034557600080fd5b50610373610354366004612710565b6001600160a01b0316600090815260fb60205260409020600201541590565b6040519015158152602001610295565b34801561038f57600080fd5b5060cf54610281906001600160a01b031681565b3480156103af57600080fd5b5060d954610281906001600160a01b031681565b3480156103cf57600080fd5b5060d654610281906001600160a01b031681565b6103176103f1366004612774565b610a05565b34801561040257600080fd5b5061042f610411366004612710565b6001600160a01b0316600090815260fb602052604090206002015490565b604051908152602001610295565b34801561044957600080fd5b5061042f610ad5565b34801561045e57600080fd5b5061031761046d366004612710565b610b88565b34801561047e57600080fd5b50610317610bb2565b34801561049357600080fd5b5060d354610281906001600160a01b031681565b3480156104b357600080fd5b506102816104c2366004612710565b6001600160a01b03908116600090815260fb60205260409020600101541690565b3480156104ef57600080fd5b5060cb54610281906001600160a01b031681565b34801561050f57600080fd5b5061031761051e366004612836565b610bc6565b34801561052f57600080fd5b5061031761053e36600461272b565b610be2565b34801561054f57600080fd5b5060c954610281906001600160a01b031681565b34801561056f57600080fd5b50610317610bf4565b34801561058457600080fd5b506065546001600160a01b0316610281565b3480156105a257600080fd5b5060cd54610281906001600160a01b031681565b3480156105c257600080fd5b5060d254610281906001600160a01b031681565b3480156105e257600080fd5b5061060f6040518060400160405280600d81526020016c536f7274656456657373656c7360981b81525081565b60405161029591906128b8565b34801561062857600080fd5b50610665610637366004612710565b60fb602052600090815260409020805460018201546002909201546001600160a01b03918216929091169083565b604080516001600160a01b03948516815293909216602084015290820152606001610295565b34801561069757600080fd5b506103176106a63660046128eb565b610d0c565b3480156106b757600080fd5b506103176106c6366004612836565b611290565b3480156106d757600080fd5b506106eb6106e6366004612960565b6112e8565b6040516102959291906129ad565b34801561070557600080fd5b5060ca54610281906001600160a01b031681565b34801561072557600080fd5b5060d054610281906001600160a01b031681565b34801561074557600080fd5b5060d754610281906001600160a01b031681565b34801561076557600080fd5b5060d454610281906001600160a01b031681565b34801561078557600080fd5b5060d95461037390600160a01b900460ff1681565b3480156107a657600080fd5b5060cc54610281906001600160a01b031681565b3480156107c657600080fd5b506102816107d536600461272b565b6001600160a01b03918216600090815260fb6020908152604080832093851683526003909301905220600101541690565b34801561081257600080fd5b50610373610821366004612960565b611305565b34801561083257600080fd5b5061037361084136600461272b565b61131e565b34801561085257600080fd5b50610317610861366004612710565b611350565b34801561087257600080fd5b5060ce54610281906001600160a01b031681565b34801561089257600080fd5b506103176108a1366004612710565b6113c6565b3480156108b257600080fd5b506103176108c1366004612710565b6113f0565b3480156108d257600080fd5b5060d154610281906001600160a01b031681565b6001600160a01b037f00000000000000000000000000000000000000000000000000000000000000001630036109375760405162461bcd60e51b815260040161092e906129c7565b60405180910390fd5b7f00000000000000000000000000000000000000000000000000000000000000006001600160a01b0316610980600080516020612bda833981519152546001600160a01b031690565b6001600160a01b0316146109a65760405162461bcd60e51b815260040161092e90612a13565b6109af816113f5565b604080516000808252602082019092526109cb918391906113fd565b50565b6001600160a01b03808316600090815260fb6020908152604080832085851684526003019091529020546101009004165b92915050565b6001600160a01b037f0000000000000000000000000000000000000000000000000000000000000000163003610a4d5760405162461bcd60e51b815260040161092e906129c7565b7f00000000000000000000000000000000000000000000000000000000000000006001600160a01b0316610a96600080516020612bda833981519152546001600160a01b031690565b6001600160a01b031614610abc5760405162461bcd60e51b815260040161092e90612a13565b610ac5826113f5565b610ad1828260016113fd565b5050565b6000306001600160a01b037f00000000000000000000000000000000000000000000000000000000000000001614610b755760405162461bcd60e51b815260206004820152603860248201527f555550535570677261646561626c653a206d757374206e6f742062652063616c60448201527f6c6564207468726f7567682064656c656761746563616c6c0000000000000000606482015260840161092e565b50600080516020612bda83398151915290565b610b9061156d565b60cd80546001600160a01b0319166001600160a01b0392909216919091179055565b610bba61156d565b610bc460006115c7565b565b610bce611619565b610bdb85858585856116a0565b5050505050565b610bea611a68565b610ad18282611ad9565b600054610100900460ff1615808015610c145750600054600160ff909116105b80610c2e5750303b158015610c2e575060005460ff166001145b610c915760405162461bcd60e51b815260206004820152602e60248201527f496e697469616c697a61626c653a20636f6e747261637420697320616c72656160448201526d191e481a5b9a5d1a585b1a5e995960921b606482015260840161092e565b6000805460ff191660011790558015610cb4576000805461ff0019166101001790555b610cbc611d23565b610cc4611d52565b80156109cb576000805461ff0019169055604051600181527f7f26b83ff96e1f2b6a682f133852f6798a09c465da95921460cefb38474024989060200160405180910390a150565b610d1461156d565b60d954600160a01b900460ff1615610d6e5760405162461bcd60e51b815260206004820152601c60248201527f536574757020697320616c726561647920696e697469616c697a656400000000604482015260640161092e565b600f8114610dbe5760405162461bcd60e51b815260206004820152601e60248201527f4578706563746564203135206164647265737365732061742073657475700000604482015260640161092e565b60005b600f811015610e4d576000838383818110610dde57610dde612a5f565b9050602002016020810190610df39190612710565b6001600160a01b031603610e3b5760405162461bcd60e51b815260206004820152600f60248201526e496e76616c6964206164647265737360881b604482015260640161092e565b80610e4581612a8b565b915050610dc1565b5081816000818110610e6157610e61612a5f565b9050602002016020810190610e769190612710565b60c980546001600160a01b0319166001600160a01b039290921691909117905581816001818110610ea957610ea9612a5f565b9050602002016020810190610ebe9190612710565b60ca80546001600160a01b0319166001600160a01b039290921691909117905581816002818110610ef157610ef1612a5f565b9050602002016020810190610f069190612710565b60cb80546001600160a01b0319166001600160a01b039290921691909117905581816003818110610f3957610f39612a5f565b9050602002016020810190610f4e9190612710565b60cc80546001600160a01b0319166001600160a01b039290921691909117905581816004818110610f8157610f81612a5f565b9050602002016020810190610f969190612710565b60ce80546001600160a01b0319166001600160a01b039290921691909117905581816005818110610fc957610fc9612a5f565b9050602002016020810190610fde9190612710565b60cf80546001600160a01b0319166001600160a01b03929092169190911790558181600681811061101157611011612a5f565b90506020020160208101906110269190612710565b60d080546001600160a01b0319166001600160a01b03929092169190911790558181600781811061105957611059612a5f565b905060200201602081019061106e9190612710565b60d180546001600160a01b0319166001600160a01b0392909216919091179055818160088181106110a1576110a1612a5f565b90506020020160208101906110b69190612710565b60d380546001600160a01b0319166001600160a01b0392909216919091179055818160098181106110e9576110e9612a5f565b90506020020160208101906110fe9190612710565b60d480546001600160a01b0319166001600160a01b03929092169190911790558181600a81811061113157611131612a5f565b90506020020160208101906111469190612710565b60d580546001600160a01b0319166001600160a01b03929092169190911790558181600b81811061117957611179612a5f565b905060200201602081019061118e9190612710565b60d680546001600160a01b0319166001600160a01b03929092169190911790558181600c8181106111c1576111c1612a5f565b90506020020160208101906111d69190612710565b60d780546001600160a01b0319166001600160a01b03929092169190911790558181600d81811061120957611209612a5f565b905060200201602081019061121e9190612710565b60d880546001600160a01b0319166001600160a01b03929092169190911790558181600e81811061125157611251612a5f565b90506020020160208101906112669190612710565b60d980546001600160a81b0319166001600160a01b039290921691909117600160a01b1790555050565b611298611619565b6112a2858561131e565b6112be5760405162461bcd60e51b815260040161092e90612aa4565b826000036112de5760405162461bcd60e51b815260040161092e90612aef565b610bce8585611ad9565b6000806112f786868686611d79565b915091505b94509492505050565b600061131385858585611f50565b90505b949350505050565b6001600160a01b03918216600090815260fb602090815260408083209390941682526003909201909152205460ff1690565b61135861156d565b6001600160a01b0381166113bd5760405162461bcd60e51b815260206004820152602660248201527f4f776e61626c653a206e6577206f776e657220697320746865207a65726f206160448201526564647265737360d01b606482015260840161092e565b6109cb816115c7565b6113ce61156d565b60d280546001600160a01b0319166001600160a01b0392909216919091179055565b6109cb815b6109cb61156d565b7f4910fdfa16fed3260ed0e7147f7cc6da11a60208b5b9406d12a635614ffd91435460ff161561143557611430836121ec565b505050565b826001600160a01b03166352d1902d6040518163ffffffff1660e01b8152600401602060405180830381865afa92505050801561148f575060408051601f3d908101601f1916820190925261148c91810190612b33565b60015b6114f25760405162461bcd60e51b815260206004820152602e60248201527f45524331393637557067726164653a206e657720696d706c656d656e7461746960448201526d6f6e206973206e6f74205555505360901b606482015260840161092e565b600080516020612bda83398151915281146115615760405162461bcd60e51b815260206004820152602960248201527f45524331393637557067726164653a20756e737570706f727465642070726f786044820152681a58589b195555525160ba1b606482015260840161092e565b50611430838383612288565b6065546001600160a01b03163314610bc45760405162461bcd60e51b815260206004820181905260248201527f4f776e61626c653a2063616c6c6572206973206e6f7420746865206f776e6572604482015260640161092e565b606580546001600160a01b038381166001600160a01b0319831681179093556040519116919082907f8be0079c531659141344cd1fd0a4f28419497f9722a3daafe3b4186f6b6457e090600090a35050565b60cb546001600160a01b031633148061163c575060d8546001600160a01b031633145b610bc45760405162461bcd60e51b815260206004820152602f60248201527f536f7274656456657373656c733a2043616c6c6572206973206e65697468657260448201526e20424f206e6f722056657373656c4d60881b606482015260840161092e565b6001600160a01b03858116600090815260fb6020908152604080832093881683526003840190915290205460ff16156117315760405162461bcd60e51b815260206004820152602d60248201527f536f7274656456657373656c733a204c69737420616c726561647920636f6e7460448201526c61696e7320746865206e6f646560981b606482015260840161092e565b6001600160a01b0385166117875760405162461bcd60e51b815260206004820181905260248201527f536f7274656456657373656c733a2049642063616e6e6f74206265207a65726f604482015260640161092e565b836000036117a75760405162461bcd60e51b815260040161092e90612aef565b82826117b588878484611f50565b6117cb576117c588878484611d79565b90925090505b6001600160a01b0380881660009081526003850160205260409020805460ff1916600117815590831615801561180857506001600160a01b038216155b1561183a5783546001600160a01b0389166001600160a01b031991821681178655600186018054909216179055611a02565b6001600160a01b0383166118a25783548154610100600160a81b0319166101006001600160a01b0392831602178255845481166000908152600386016020526040902060010180546001600160a01b0319908116928b16928317909155855416178455611a02565b6001600160a01b038216611911576001848101805491830180546001600160a01b039384166001600160a01b03199182161790915581548316600090815260038801602052604090208054610100600160a81b031916610100948d169485021790558154169091179055611a02565b818160000160016101000a8154816001600160a01b0302191690836001600160a01b03160217905550828160010160006101000a8154816001600160a01b0302191690836001600160a01b0316021790555087846003016000856001600160a01b03166001600160a01b0316815260200190815260200160002060000160016101000a8154816001600160a01b0302191690836001600160a01b0316021790555087846003016000846001600160a01b03166001600160a01b0316815260200190815260200160002060010160006101000a8154816001600160a01b0302191690836001600160a01b031602179055505b6002840154611a12906001612b4c565b6002850155604080516001600160a01b038a81168252602082018a90528b16917fa74a9cd584cc27d44e7f746f6715fae75b600cc5eb8f85a95752788d6b4547a5910160405180910390a2505050505050505050565b60d8546001600160a01b03163314610bc45760405162461bcd60e51b815260206004820152602e60248201527f536f7274656456657373656c733a2043616c6c6572206973206e6f742074686560448201526d102b32b9b9b2b626b0b730b3b2b960911b606482015260840161092e565b6001600160a01b03828116600090815260fb6020908152604080832093851683526003840190915290205460ff16611b235760405162461bcd60e51b815260040161092e90612aa4565b6001600160a01b03821660009081526003820160205260409020600282015460011015611c725781546001600160a01b0390811690841603611ba157805482546101009091046001600160a01b03166001600160a01b0319918216811784556000908152600384016020526040902060010180549091169055611c8e565b60018201546001600160a01b0390811690841603611c025760018082015490830180546001600160a01b0319166001600160a01b039092169182179055600090815260038301602052604090208054610100600160a81b0319169055611c8e565b8054600180830180546001600160a01b03908116600090815260038701602052604080822080546101009788900485168802610100600160a81b03199091161790559254865495909504821681529190912090910180546001600160a01b03191692909116919091179055611c8e565b81546001600160a01b0319908116835560018301805490911690555b6001600160a01b0383166000908152600383016020526040902080546001600160a81b0319168155600190810180546001600160a01b03191690556002830154611cd89190612b5f565b60028301556040516001600160a01b0384811682528516907f202321eaea3aa2b5e1e2ef1dfd98a9d6ba8c90e293f5dc2755b32eb921a477979060200160405180910390a250505050565b600054610100900460ff16611d4a5760405162461bcd60e51b815260040161092e90612b72565b610bc46122b3565b600054610100900460ff16610bc45760405162461bcd60e51b815260040161092e90612b72565b60008083836001600160a01b03821615611e1e57611d97888361131e565b1580611e14575060d8546040516390ec230160e01b81526001600160a01b03909116906390ec230190611dd0908b9086906004016129ad565b602060405180830381865afa158015611ded573d6000803e3d6000fd5b505050506040513d601f19601f82011682018060405250810190611e119190612b33565b87115b15611e1e57600091505b6001600160a01b03811615611ebd57611e37888261131e565b1580611eb4575060d8546040516390ec230160e01b81526001600160a01b03909116906390ec230190611e70908b9085906004016129ad565b602060405180830381865afa158015611e8d573d6000803e3d6000fd5b505050506040513d601f19601f82011682018060405250810190611eb19190612b33565b87105b15611ebd575060005b6001600160a01b038216158015611edb57506001600160a01b038116155b15611f13576001600160a01b03808916600090815260fb6020526040902054611f08918a918a91166122e3565b9350935050506112fc565b6001600160a01b038216611f2c57611f0888888361242d565b6001600160a01b038116611f4557611f088888846122e3565b611f088888846122e3565b60006001600160a01b038316158015611f7057506001600160a01b038216155b15611f9a576001600160a01b038516600090815260fb6020526040902060020154155b9050611316565b6001600160a01b03831661204c576001600160a01b03858116600090815260fb60205260409020548116908316148015611f93575060d8546040516390ec230160e01b81526001600160a01b03909116906390ec23019061200190889086906004016129ad565b602060405180830381865afa15801561201e573d6000803e3d6000fd5b505050506040513d601f19601f820116820180604052508101906120429190612b33565b8410159050611316565b6001600160a01b038216612101576001600160a01b03858116600090815260fb60205260409020600101548116908416148015611f93575060d8546040516390ec230160e01b81526001600160a01b03909116906390ec2301906120b690889087906004016129ad565b602060405180830381865afa1580156120d3573d6000803e3d6000fd5b505050506040513d601f19601f820116820180604052508101906120f79190612b33565b8411159050611316565b6001600160a01b03858116600090815260fb602090815260408083208785168452600301909152902054610100900481169083161480156121b3575060d8546040516390ec230160e01b815285916001600160a01b0316906390ec23019061216f90899088906004016129ad565b602060405180830381865afa15801561218c573d6000803e3d6000fd5b505050506040513d601f19601f820116820180604052508101906121b09190612b33565b10155b8015611f93575060d8546040516390ec230160e01b81526001600160a01b03909116906390ec23019061200190889086906004016129ad565b6001600160a01b0381163b6122595760405162461bcd60e51b815260206004820152602d60248201527f455243313936373a206e657720696d706c656d656e746174696f6e206973206e60448201526c1bdd08184818dbdb9d1c9858dd609a1b606482015260840161092e565b600080516020612bda83398151915280546001600160a01b0319166001600160a01b0392909216919091179055565b61229183612572565b60008251118061229e5750805b15611430576122ad83836125b2565b50505050565b600054610100900460ff166122da5760405162461bcd60e51b815260040161092e90612b72565b610bc4336115c7565b6001600160a01b03808416600090815260fb602052604081208054919283928116908516148015612386575060d8546040516390ec230160e01b81526001600160a01b03909116906390ec23019061234190899088906004016129ad565b602060405180830381865afa15801561235e573d6000803e3d6000fd5b505050506040513d601f19601f820116820180604052508101906123829190612b33565b8510155b15612398576000849250925050612425565b6001600160a01b0380851660009081526003830160205260409020548591610100909104165b6001600160a01b038216158015906123df57506123dd88888484611f50565b155b1561241e57506001600160a01b0390811660009081526003830160205260408082205461010090819004841680845291909220549092919004166123be565b9093509150505b935093915050565b6001600160a01b03808416600090815260fb6020526040812060018101549192839281169085161480156124d3575060d8546040516390ec230160e01b81526001600160a01b03909116906390ec23019061248e90899088906004016129ad565b602060405180830381865afa1580156124ab573d6000803e3d6000fd5b505050506040513d601f19601f820116820180604052508101906124cf9190612b33565b8511155b156124e5578360009250925050612425565b6001600160a01b0380851660009081526003830160205260409020600101548591165b6001600160a01b03821615801590612529575061252788888385611f50565b155b1561256657506001600160a01b03908116600090815260038301602052604080822060019081015484168084529190922090910154909116612508565b97909650945050505050565b61257b816121ec565b6040516001600160a01b038216907fbc7cd75a20ee27fd9adebab32041f755214dbc6bffa90cc0225b39da2e5c2d3b90600090a250565b60606125d78383604051806060016040528060278152602001612bfa602791396125de565b9392505050565b6060600080856001600160a01b0316856040516125fb9190612bbd565b600060405180830381855af49150503d8060008114612636576040519150601f19603f3d011682016040523d82523d6000602084013e61263b565b606091505b509150915061264c86838387612656565b9695505050505050565b606083156126c55782516000036126be576001600160a01b0385163b6126be5760405162461bcd60e51b815260206004820152601d60248201527f416464726573733a2063616c6c20746f206e6f6e2d636f6e7472616374000000604482015260640161092e565b5081611316565b61131683838151156126da5781518083602001fd5b8060405162461bcd60e51b815260040161092e91906128b8565b80356001600160a01b038116811461270b57600080fd5b919050565b60006020828403121561272257600080fd5b6125d7826126f4565b6000806040838503121561273e57600080fd5b612747836126f4565b9150612755602084016126f4565b90509250929050565b634e487b7160e01b600052604160045260246000fd5b6000806040838503121561278757600080fd5b612790836126f4565b9150602083013567ffffffffffffffff808211156127ad57600080fd5b818501915085601f8301126127c157600080fd5b8135818111156127d3576127d361275e565b604051601f8201601f19908116603f011681019083821181831017156127fb576127fb61275e565b8160405282815288602084870101111561281457600080fd5b8260208601602083013760006020848301015280955050505050509250929050565b600080600080600060a0868803121561284e57600080fd5b612857866126f4565b9450612865602087016126f4565b93506040860135925061287a606087016126f4565b9150612888608087016126f4565b90509295509295909350565b60005b838110156128af578181015183820152602001612897565b50506000910152565b60208152600082518060208401526128d7816040850160208701612894565b601f01601f19169190910160400192915050565b600080602083850312156128fe57600080fd5b823567ffffffffffffffff8082111561291657600080fd5b818501915085601f83011261292a57600080fd5b81358181111561293957600080fd5b8660208260051b850101111561294e57600080fd5b60209290920196919550909350505050565b6000806000806080858703121561297657600080fd5b61297f856126f4565b935060208501359250612994604086016126f4565b91506129a2606086016126f4565b905092959194509250565b6001600160a01b0392831681529116602082015260400190565b6020808252602c908201527f46756e6374696f6e206d7573742062652063616c6c6564207468726f7567682060408201526b19195b1959d85d1958d85b1b60a21b606082015260800190565b6020808252602c908201527f46756e6374696f6e206d7573742062652063616c6c6564207468726f7567682060408201526b6163746976652070726f787960a01b606082015260800190565b634e487b7160e01b600052603260045260246000fd5b634e487b7160e01b600052601160045260246000fd5b600060018201612a9d57612a9d612a75565b5060010190565b6020808252602b908201527f536f7274656456657373656c733a204c69737420646f6573206e6f7420636f6e60408201526a1d185a5b881d1a19481a5960aa1b606082015260800190565b60208082526024908201527f536f7274656456657373656c733a204e494352206d75737420626520706f73696040820152637469766560e01b606082015260800190565b600060208284031215612b4557600080fd5b5051919050565b808201808211156109ff576109ff612a75565b818103818111156109ff576109ff612a75565b6020808252602b908201527f496e697469616c697a61626c653a20636f6e7472616374206973206e6f74206960408201526a6e697469616c697a696e6760a81b606082015260800190565b60008251612bcf818460208701612894565b919091019291505056fe360894a13ba1a3210667c828492db98dca3e2076cc3735a920a3ca505d382bbc416464726573733a206c6f772d6c6576656c2064656c65676174652063616c6c206661696c6564a264697066735822122027de53b1b9654bede451c80d76cde070bced3253cf9d6db72b97b1f7ec4c879f64736f6c63430008130033",
  "linkReferences": {},
  "deployedLinkReferences": {}
}