{
  "_format": "hh-sol-artifact-1",
  "contractName": "VesselManagerOperations",
  "sourceName": "contracts/VesselManagerOperations.sol",
  "abi": [
    {
      "inputs": [],
      "name": "VesselManagerOperations__EmptyAmount",
      "type": "error"
    },
    {
      "inputs": [
        {
          "internalType": "uint256",
          "name": "lowerBoundary",
          "type": "uint256"
        },
        {
          "internalType": "uint256",
          "name": "upperBoundary",
          "type": "uint256"
        }
      ],
      "name": "VesselManagerOperations__FeePercentOutOfBounds",
      "type": "error"
    },
    {
      "inputs": [
        {
          "internalType": "uint256",
          "name": "availableBalance",
          "type": "uint256"
        }
      ],
      "name": "VesselManagerOperations__InsufficientDebtTokenBalance",
      "type": "error"
    },
    {
      "inputs": [],
      "name": "VesselManagerOperations__InvalidArraySize",
      "type": "error"
    },
    {
      "inputs": [],
      "name": "VesselManagerOperations__InvalidParam",
      "type": "error"
    },
    {
      "inputs": [],
      "name": "VesselManagerOperations__NotTimelock",
      "type": "error"
    },
    {
      "inputs": [],
      "name": "VesselManagerOperations__NothingToLiquidate",
      "type": "error"
    },
    {
      "inputs": [],
      "name": "VesselManagerOperations__OnlyVesselManager",
      "type": "error"
    },
    {
      "inputs": [],
      "name": "VesselManagerOperations__RedemptionIsBlocked",
      "type": "error"
    },
    {
      "inputs": [
        {
          "internalType": "uint256",
          "name": "tcr",
          "type": "uint256"
        },
        {
          "internalType": "uint256",
          "name": "mcr",
          "type": "uint256"
        }
      ],
      "name": "VesselManagerOperations__TCRMustBeAboveMCR",
      "type": "error"
    },
    {
      "inputs": [],
      "name": "VesselManagerOperations__UnableToRedeemAnyAmount",
      "type": "error"
    },
    {
      "inputs": [],
      "name": "VesselManagerOperations__VesselNotActive",
      "type": "error"
    },
    {
      "anonymous": false,
      "inputs": [
        {
          "indexed": false,
          "internalType": "address",
          "name": "previousAdmin",
          "type": "address"
        },
        {
          "indexed": false,
          "internalType": "address",
          "name": "newAdmin",
          "type": "address"
        }
      ],
      "name": "AdminChanged",
      "type": "event"
    },
    {
      "anonymous": false,
      "inputs": [
        {
          "indexed": true,
          "internalType": "address",
          "name": "beacon",
          "type": "address"
        }
      ],
      "name": "BeaconUpgraded",
      "type": "event"
    },
    {
      "anonymous": false,
      "inputs": [
        {
          "indexed": false,
          "internalType": "uint8",
          "name": "version",
          "type": "uint8"
        }
      ],
      "name": "Initialized",
      "type": "event"
    },
    {
      "anonymous": false,
      "inputs": [
        {
          "indexed": true,
          "internalType": "address",
          "name": "_asset",
          "type": "address"
        },
        {
          "indexed": false,
          "internalType": "uint256",
          "name": "_liquidatedDebt",
          "type": "uint256"
        },
        {
          "indexed": false,
          "internalType": "uint256",
          "name": "_liquidatedColl",
          "type": "uint256"
        },
        {
          "indexed": false,
          "internalType": "uint256",
          "name": "_collGasCompensation",
          "type": "uint256"
        },
        {
          "indexed": false,
          "internalType": "uint256",
          "name": "_debtTokenGasCompensation",
          "type": "uint256"
        }
      ],
      "name": "Liquidation",
      "type": "event"
    },
    {
      "anonymous": false,
      "inputs": [
        {
          "indexed": true,
          "internalType": "address",
          "name": "previousOwner",
          "type": "address"
        },
        {
          "indexed": true,
          "internalType": "address",
          "name": "newOwner",
          "type": "address"
        }
      ],
      "name": "OwnershipTransferred",
      "type": "event"
    },
    {
      "anonymous": false,
      "inputs": [
        {
          "indexed": true,
          "internalType": "address",
          "name": "_asset",
          "type": "address"
        },
        {
          "indexed": false,
          "internalType": "uint256",
          "name": "_attemptedDebtAmount",
          "type": "uint256"
        },
        {
          "indexed": false,
          "internalType": "uint256",
          "name": "_actualDebtAmount",
          "type": "uint256"
        },
        {
          "indexed": false,
          "internalType": "uint256",
          "name": "_collSent",
          "type": "uint256"
        },
        {
          "indexed": false,
          "internalType": "uint256",
          "name": "_collFee",
          "type": "uint256"
        }
      ],
      "name": "Redemption",
      "type": "event"
    },
    {
      "anonymous": false,
      "inputs": [
        {
          "indexed": false,
          "internalType": "uint256",
          "name": "_redemptionSofteningParam",
          "type": "uint256"
        }
      ],
      "name": "RedemptionSoftenParamChanged",
      "type": "event"
    },
    {
      "anonymous": false,
      "inputs": [
        {
          "indexed": true,
          "internalType": "address",
          "name": "implementation",
          "type": "address"
        }
      ],
      "name": "Upgraded",
      "type": "event"
    },
    {
      "anonymous": false,
      "inputs": [
        {
          "indexed": true,
          "internalType": "address",
          "name": "_asset",
          "type": "address"
        },
        {
          "indexed": true,
          "internalType": "address",
          "name": "_borrower",
          "type": "address"
        },
        {
          "indexed": false,
          "internalType": "uint256",
          "name": "_debt",
          "type": "uint256"
        },
        {
          "indexed": false,
          "internalType": "uint256",
          "name": "_coll",
          "type": "uint256"
        },
        {
          "indexed": false,
          "internalType": "enum IVesselManager.VesselManagerOperation",
          "name": "_operation",
          "type": "uint8"
        }
      ],
      "name": "VesselLiquidated",
      "type": "event"
    },
    {
      "inputs": [],
      "name": "BATCH_SIZE_LIMIT",
      "outputs": [
        {
          "internalType": "uint256",
          "name": "",
          "type": "uint256"
        }
      ],
      "stateMutability": "view",
      "type": "function"
    },
    {
      "inputs": [],
      "name": "DECIMAL_PRECISION",
      "outputs": [
        {
          "internalType": "uint256",
          "name": "",
          "type": "uint256"
        }
      ],
      "stateMutability": "view",
      "type": "function"
    },
    {
      "inputs": [],
      "name": "NAME",
      "outputs": [
        {
          "internalType": "string",
          "name": "",
          "type": "string"
        }
      ],
      "stateMutability": "view",
      "type": "function"
    },
    {
      "inputs": [],
      "name": "PERCENTAGE_PRECISION",
      "outputs": [
        {
          "internalType": "uint256",
          "name": "",
          "type": "uint256"
        }
      ],
      "stateMutability": "view",
      "type": "function"
    },
    {
      "inputs": [],
      "name": "activePool",
      "outputs": [
        {
          "internalType": "address",
          "name": "",
          "type": "address"
        }
      ],
      "stateMutability": "view",
      "type": "function"
    },
    {
      "inputs": [],
      "name": "adminContract",
      "outputs": [
        {
          "internalType": "address",
          "name": "",
          "type": "address"
        }
      ],
      "stateMutability": "view",
      "type": "function"
    },
    {
      "inputs": [
        {
          "internalType": "address",
          "name": "newImplementation",
          "type": "address"
        }
      ],
      "name": "authorizeUpgrade",
      "outputs": [],
      "stateMutability": "nonpayable",
      "type": "function"
    },
    {
      "inputs": [
        {
          "internalType": "address",
          "name": "_asset",
          "type": "address"
        },
        {
          "internalType": "address[]",
          "name": "_vesselArray",
          "type": "address[]"
        }
      ],
      "name": "batchLiquidateVessels",
      "outputs": [],
      "stateMutability": "nonpayable",
      "type": "function"
    },
    {
      "inputs": [],
      "name": "borrowerOperations",
      "outputs": [
        {
          "internalType": "address",
          "name": "",
          "type": "address"
        }
      ],
      "stateMutability": "view",
      "type": "function"
    },
    {
      "inputs": [],
      "name": "collSurplusPool",
      "outputs": [
        {
          "internalType": "address",
          "name": "",
          "type": "address"
        }
      ],
      "stateMutability": "view",
      "type": "function"
    },
    {
      "inputs": [],
      "name": "communityIssuance",
      "outputs": [
        {
          "internalType": "address",
          "name": "",
          "type": "address"
        }
      ],
      "stateMutability": "view",
      "type": "function"
    },
    {
      "inputs": [
        {
          "internalType": "uint256",
          "name": "_coll",
          "type": "uint256"
        },
        {
          "internalType": "uint256",
          "name": "_debt",
          "type": "uint256"
        }
      ],
      "name": "computeNominalCR",
      "outputs": [
        {
          "internalType": "uint256",
          "name": "",
          "type": "uint256"
        }
      ],
      "stateMutability": "pure",
      "type": "function"
    },
    {
      "inputs": [],
      "name": "debtToken",
      "outputs": [
        {
          "internalType": "address",
          "name": "",
          "type": "address"
        }
      ],
      "stateMutability": "view",
      "type": "function"
    },
    {
      "inputs": [],
      "name": "defaultPool",
      "outputs": [
        {
          "internalType": "address",
          "name": "",
          "type": "address"
        }
      ],
      "stateMutability": "view",
      "type": "function"
    },
    {
      "inputs": [],
      "name": "feeCollector",
      "outputs": [
        {
          "internalType": "address",
          "name": "",
          "type": "address"
        }
      ],
      "stateMutability": "view",
      "type": "function"
    },
    {
      "inputs": [],
      "name": "gasPoolAddress",
      "outputs": [
        {
          "internalType": "address",
          "name": "",
          "type": "address"
        }
      ],
      "stateMutability": "view",
      "type": "function"
    },
    {
      "inputs": [
        {
          "internalType": "address",
          "name": "_asset",
          "type": "address"
        },
        {
          "internalType": "uint256",
          "name": "_CR",
          "type": "uint256"
        },
        {
          "internalType": "uint256",
          "name": "_numTrials",
          "type": "uint256"
        },
        {
          "internalType": "uint256",
          "name": "_inputRandomSeed",
          "type": "uint256"
        }
      ],
      "name": "getApproxHint",
      "outputs": [
        {
          "internalType": "address",
          "name": "hintAddress",
          "type": "address"
        },
        {
          "internalType": "uint256",
          "name": "diff",
          "type": "uint256"
        },
        {
          "internalType": "uint256",
          "name": "latestRandomSeed",
          "type": "uint256"
        }
      ],
      "stateMutability": "view",
      "type": "function"
    },
    {
      "inputs": [
        {
          "internalType": "address",
          "name": "_asset",
          "type": "address"
        }
      ],
      "name": "getEntireSystemColl",
      "outputs": [
        {
          "internalType": "uint256",
          "name": "entireSystemColl",
          "type": "uint256"
        }
      ],
      "stateMutability": "view",
      "type": "function"
    },
    {
      "inputs": [
        {
          "internalType": "address",
          "name": "_asset",
          "type": "address"
        }
      ],
      "name": "getEntireSystemDebt",
      "outputs": [
        {
          "internalType": "uint256",
          "name": "entireSystemDebt",
          "type": "uint256"
        }
      ],
      "stateMutability": "view",
      "type": "function"
    },
    {
      "inputs": [
        {
          "internalType": "address",
          "name": "_asset",
          "type": "address"
        },
        {
          "internalType": "uint256",
          "name": "_debtTokenAmount",
          "type": "uint256"
        },
        {
          "internalType": "uint256",
          "name": "_price",
          "type": "uint256"
        },
        {
          "internalType": "uint256",
          "name": "_maxIterations",
          "type": "uint256"
        }
      ],
      "name": "getRedemptionHints",
      "outputs": [
        {
          "internalType": "address",
          "name": "firstRedemptionHint",
          "type": "address"
        },
        {
          "internalType": "uint256",
          "name": "partialRedemptionHintNewICR",
          "type": "uint256"
        },
        {
          "internalType": "uint256",
          "name": "truncatedDebtTokenAmount",
          "type": "uint256"
        }
      ],
      "stateMutability": "view",
      "type": "function"
    },
    {
      "inputs": [],
      "name": "grvtStaking",
      "outputs": [
        {
          "internalType": "address",
          "name": "",
          "type": "address"
        }
      ],
      "stateMutability": "view",
      "type": "function"
    },
    {
      "inputs": [],
      "name": "initialize",
      "outputs": [],
      "stateMutability": "nonpayable",
      "type": "function"
    },
    {
      "inputs": [],
      "name": "isAddressSetupInitialized",
      "outputs": [
        {
          "internalType": "bool",
          "name": "",
          "type": "bool"
        }
      ],
      "stateMutability": "view",
      "type": "function"
    },
    {
      "inputs": [
        {
          "internalType": "address",
          "name": "_asset",
          "type": "address"
        },
        {
          "internalType": "address",
          "name": "_borrower",
          "type": "address"
        }
      ],
      "name": "liquidate",
      "outputs": [],
      "stateMutability": "nonpayable",
      "type": "function"
    },
    {
      "inputs": [
        {
          "internalType": "address",
          "name": "_asset",
          "type": "address"
        },
        {
          "internalType": "uint256",
          "name": "_n",
          "type": "uint256"
        }
      ],
      "name": "liquidateVessels",
      "outputs": [],
      "stateMutability": "nonpayable",
      "type": "function"
    },
    {
      "inputs": [],
      "name": "owner",
      "outputs": [
        {
          "internalType": "address",
          "name": "",
          "type": "address"
        }
      ],
      "stateMutability": "view",
      "type": "function"
    },
    {
      "inputs": [],
      "name": "priceFeed",
      "outputs": [
        {
          "internalType": "address",
          "name": "",
          "type": "address"
        }
      ],
      "stateMutability": "view",
      "type": "function"
    },
    {
      "inputs": [],
      "name": "proxiableUUID",
      "outputs": [
        {
          "internalType": "bytes32",
          "name": "",
          "type": "bytes32"
        }
      ],
      "stateMutability": "view",
      "type": "function"
    },
    {
      "inputs": [
        {
          "internalType": "address",
          "name": "_asset",
          "type": "address"
        },
        {
          "internalType": "uint256",
          "name": "_debtTokenAmount",
          "type": "uint256"
        },
        {
          "internalType": "address",
          "name": "_upperPartialRedemptionHint",
          "type": "address"
        },
        {
          "internalType": "address",
          "name": "_lowerPartialRedemptionHint",
          "type": "address"
        },
        {
          "internalType": "address",
          "name": "_firstRedemptionHint",
          "type": "address"
        },
        {
          "internalType": "uint256",
          "name": "_partialRedemptionHintNICR",
          "type": "uint256"
        },
        {
          "internalType": "uint256",
          "name": "_maxIterations",
          "type": "uint256"
        },
        {
          "internalType": "uint256",
          "name": "_maxFeePercentage",
          "type": "uint256"
        }
      ],
      "name": "redeemCollateral",
      "outputs": [],
      "stateMutability": "nonpayable",
      "type": "function"
    },
    {
      "inputs": [],
      "name": "redemptionSofteningParam",
      "outputs": [
        {
          "internalType": "uint256",
          "name": "",
          "type": "uint256"
        }
      ],
      "stateMutability": "view",
      "type": "function"
    },
    {
      "inputs": [],
      "name": "renounceOwnership",
      "outputs": [],
      "stateMutability": "nonpayable",
      "type": "function"
    },
    {
      "inputs": [
        {
          "internalType": "address[]",
          "name": "_addresses",
          "type": "address[]"
        }
      ],
      "name": "setAddresses",
      "outputs": [],
      "stateMutability": "nonpayable",
      "type": "function"
    },
    {
      "inputs": [
        {
          "internalType": "address",
          "name": "_communityIssuance",
          "type": "address"
        }
      ],
      "name": "setCommunityIssuance",
      "outputs": [],
      "stateMutability": "nonpayable",
      "type": "function"
    },
    {
      "inputs": [
        {
          "internalType": "address",
          "name": "_grvtStaking",
          "type": "address"
        }
      ],
      "name": "setGRVTStaking",
      "outputs": [],
      "stateMutability": "nonpayable",
      "type": "function"
    },
    {
      "inputs": [
        {
          "internalType": "uint256",
          "name": "_redemptionSofteningParam",
          "type": "uint256"
        }
      ],
      "name": "setRedemptionSofteningParam",
      "outputs": [],
      "stateMutability": "nonpayable",
      "type": "function"
    },
    {
      "inputs": [],
      "name": "sortedVessels",
      "outputs": [
        {
          "internalType": "address",
          "name": "",
          "type": "address"
        }
      ],
      "stateMutability": "view",
      "type": "function"
    },
    {
      "inputs": [],
      "name": "stabilityPool",
      "outputs": [
        {
          "internalType": "address",
          "name": "",
          "type": "address"
        }
      ],
      "stateMutability": "view",
      "type": "function"
    },
    {
      "inputs": [],
      "name": "timelockAddress",
      "outputs": [
        {
          "internalType": "address",
          "name": "",
          "type": "address"
        }
      ],
      "stateMutability": "view",
      "type": "function"
    },
    {
      "inputs": [
        {
          "internalType": "address",
          "name": "newOwner",
          "type": "address"
        }
      ],
      "name": "transferOwnership",
      "outputs": [],
      "stateMutability": "nonpayable",
      "type": "function"
    },
    {
      "inputs": [],
      "name": "treasuryAddress",
      "outputs": [
        {
          "internalType": "address",
          "name": "",
          "type": "address"
        }
      ],
      "stateMutability": "view",
      "type": "function"
    },
    {
      "inputs": [
        {
          "internalType": "address",
          "name": "newImplementation",
          "type": "address"
        }
      ],
      "name": "upgradeTo",
      "outputs": [],
      "stateMutability": "nonpayable",
      "type": "function"
    },
    {
      "inputs": [
        {
          "internalType": "address",
          "name": "newImplementation",
          "type": "address"
        },
        {
          "internalType": "bytes",
          "name": "data",
          "type": "bytes"
        }
      ],
      "name": "upgradeToAndCall",
      "outputs": [],
      "stateMutability": "payable",
      "type": "function"
    },
    {
      "inputs": [],
      "name": "vesselManager",
      "outputs": [
        {
          "internalType": "address",
          "name": "",
          "type": "address"
        }
      ],
      "stateMutability": "view",
      "type": "function"
    },
    {
      "inputs": [],
      "name": "vesselManagerOperations",
      "outputs": [
        {
          "internalType": "address",
          "name": "",
          "type": "address"
        }
      ],
      "stateMutability": "view",
      "type": "function"
    }
  ],
  "bytecode": "0x60a06040523060805234801561001457600080fd5b50608051615ebb6200004d60003960008181610fde01528181611027015281816117fb0152818161183b01526118ce0152615ebb6000f3fe6080604052600436106102675760003560e01c806395fb16bb11610144578063c415b95c116100b6578063e256888f1161007a578063e256888f14610772578063f2fde38b14610788578063f8d89898146107a8578063fd092fc5146107c9578063fe060733146107e9578063fe9d03231461080957600080fd5b8063c415b95c146106bd578063c5f956af146106de578063c7eae303146106ff578063c8564c6214610720578063cda775f91461075257600080fd5b8063ad59db6511610108578063ad59db6514610608578063b264ff161461061d578063b95717211461063d578063bf74ba071461065d578063c05c5e941461067d578063c394a7fa1461069d57600080fd5b806395fb16bb146105355780639e86d0c4146105555780639ec67e4214610575578063a20baee614610596578063a3f4df7e146105b257600080fd5b806366acea14116101dd57806377553ad4116101a157806377553ad41461048b5780637f7dde4a146104ab5780638129fc1c146104cb57806382eaca21146104e057806386b9d81f146104f75780638da5cb5b1461051757600080fd5b806366acea14146103f55780636a85d67d14610415578063701526b414610435578063715018a614610455578063741bef1a1461046a57600080fd5b80633cc742251161022f5780633cc742251461034a57806340a44bd11461036b5780634284af1f1461038b5780634bc66f32146103ac5780634f1ef286146103cd57806352d1902d146103e057600080fd5b8063048c661d1461026c5780630f2343fd146102aa57806327d04b35146102cb578063301be459146102f95780633659cfe614610328575b600080fd5b34801561027857600080fd5b506101075461028d906001600160a01b031681565b6040516001600160a01b0390911681526020015b60405180910390f35b3480156102b657600080fd5b5061010a5461028d906001600160a01b031681565b3480156102d757600080fd5b506102eb6102e6366004615730565b61082a565b6040519081526020016102a1565b34801561030557600080fd5b5061031961031436600461574d565b610926565b6040516102a193929190615788565b34801561033457600080fd5b50610348610343366004615730565b610fd4565b005b34801561035657600080fd5b506101015461028d906001600160a01b031681565b34801561037757600080fd5b506103486103863660046157a9565b6110bc565b34801561039757600080fd5b5061010b5461028d906001600160a01b031681565b3480156103b857600080fd5b506101085461028d906001600160a01b031681565b6103486103db366004615871565b6117f1565b3480156103ec57600080fd5b506102eb6118c1565b34801561040157600080fd5b50610348610410366004615919565b611974565b34801561042157600080fd5b50610348610430366004615730565b611da3565b34801561044157600080fd5b5061031961045036600461574d565b611dcd565b34801561046157600080fd5b506103486120c6565b34801561047657600080fd5b506101055461028d906001600160a01b031681565b34801561049757600080fd5b5060fd5461028d906001600160a01b031681565b3480156104b757600080fd5b5060fb5461028d906001600160a01b031681565b3480156104d757600080fd5b506103486120da565b3480156104ec57600080fd5b506102eb61012d5481565b34801561050357600080fd5b50610348610512366004615945565b6121fb565b34801561052357600080fd5b5060c9546001600160a01b031661028d565b34801561054157600080fd5b5060ff5461028d906001600160a01b031681565b34801561056157600080fd5b506102eb610570366004615730565b6122f1565b34801561058157600080fd5b506101045461028d906001600160a01b031681565b3480156105a257600080fd5b506102eb670de0b6b3a764000081565b3480156105be57600080fd5b506105fb6040518060400160405280601781526020017f56657373656c4d616e616765724f7065726174696f6e7300000000000000000081525081565b6040516102a191906159a2565b34801561061457600080fd5b506102eb601981565b34801561062957600080fd5b506103486106383660046159d5565b61239c565b34801561064957600080fd5b50610348610658366004615a9c565b61253b565b34801561066957600080fd5b50610348610678366004615b11565b612acb565b34801561068957600080fd5b5060fc5461028d906001600160a01b031681565b3480156106a957600080fd5b506102eb6106b8366004615b2a565b612b5c565b3480156106c957600080fd5b506101025461028d906001600160a01b031681565b3480156106ea57600080fd5b506101095461028d906001600160a01b031681565b34801561070b57600080fd5b506101065461028d906001600160a01b031681565b34801561072c57600080fd5b5061010b5461074290600160a01b900460ff1681565b60405190151581526020016102a1565b34801561075e57600080fd5b5060fe5461028d906001600160a01b031681565b34801561077e57600080fd5b506102eb61271081565b34801561079457600080fd5b506103486107a3366004615730565b612b71565b3480156107b457600080fd5b506101005461028d906001600160a01b031681565b3480156107d557600080fd5b506103486107e4366004615730565b612be7565b3480156107f557600080fd5b50610348610804366004615730565b612c12565b34801561081557600080fd5b506101035461028d906001600160a01b031681565b60fb5460405163c5739d0b60e01b81526001600160a01b038381166004830152600092839291169063c5739d0b90602401602060405180830381865afa158015610878573d6000803e3d6000fd5b505050506040513d601f19601f8201168201806040525081019061089c9190615b4c565b6101015460405163c5739d0b60e01b81526001600160a01b0386811660048301529293506000929091169063c5739d0b906024015b602060405180830381865afa1580156108ee573d6000803e3d6000fd5b505050506040513d601f19601f820116820180604052508101906109129190615b4c565b905061091e8183615b7b565b949350505050565b604080516080810182526001600160a01b038681168083526020830187905282840186905260608301859052610106549351637608271560e01b81526004810191909152600093849384939092899285921690637608271590602401602060405180830381865afa15801561099f573d6000803e3d6000fd5b505050506040513d601f19601f820116820180604052508101906109c39190615b8e565b90505b6001600160a01b03811615801590610ac6575060fc548351604051633c557a6f60e11b81526001600160a01b0391821660048201529116906378aaf4de90602401602060405180830381865afa158015610a24573d6000803e3d6000fd5b505050506040513d601f19601f82011682018060405250810190610a489190615b4c565b61010a548451604080870151905163b1eafaab60e01b81526001600160a01b039093169263b1eafaab92610a83929091879190600401615bab565b602060405180830381865afa158015610aa0573d6000803e3d6000fd5b505050506040513d601f19601f82011682018060405250810190610ac49190615b4c565b105b15610b45576101065483516040516239c6e160ea1b81526001600160a01b039092169163e71b840091610afd918590600401615bcf565b602060405180830381865afa158015610b1a573d6000803e3d6000fd5b505050506040513d601f19601f82011682018060405250810190610b3e9190615b8e565b90506109c6565b8095508260600151600003610b5d5760001960608401525b6001600160a01b03811615801590610b7457508115155b8015610b90575060608301805190610b8b82615be9565b905215155b15610fbb57825161010a5460405162a79b1d60e31b8152600092610c969290916001600160a01b039091169063053cd8e890610bd29084908890600401615bcf565b602060405180830381865afa158015610bef573d6000803e3d6000fd5b505050506040513d601f19601f82011682018060405250810190610c139190615b4c565b61010a548751604051637f8da42560e01b81526001600160a01b0390921691637f8da42591610c46918990600401615bcf565b602060405180830381865afa158015610c63573d6000803e3d6000fd5b505050506040513d601f19601f82011682018060405250810190610c879190615b4c565b610c919190615b7b565b612c1b565b9050828111610cb057610ca98184615c00565b9250610f40565b60fc5484516040516321b443a360e21b81526001600160a01b0391821660048201529116906386d10e8c90602401602060405180830381865afa158015610cfb573d6000803e3d6000fd5b505050506040513d601f19601f82011682018060405250810190610d1f9190615b4c565b811115610f3a5760fc5484516040516321b443a360e21b81526001600160a01b039182166004820152600092610dae9287929116906386d10e8c906024015b602060405180830381865afa158015610d7b573d6000803e3d6000fd5b505050506040513d601f19601f82011682018060405250810190610d9f9190615b4c565b610da99085615c00565b612c94565b61010a548651604051635f0b504b60e11b81529293506000926001600160a01b039092169163be16a09691610de7918890600401615bcf565b602060405180830381865afa158015610e04573d6000803e3d6000fd5b505050506040513d601f19601f82011682018060405250810190610e289190615b4c565b61010a5487516040516341f0f4bd60e01b81526001600160a01b03909216916341f0f4bd91610e5b918990600401615bcf565b602060405180830381865afa158015610e78573d6000803e3d6000fd5b505050506040513d601f19601f82011682018060405250810190610e9c9190615b4c565b610ea69190615b7b565b905060008660400151670de0b6b3a764000084610ec39190615c13565b610ecd9190615c40565b905061271061012d5482610ee19190615c13565b610eeb9190615c40565b90506000610ef98284615c00565b90506000610f078587615c00565b90506000610f198a6000015183612caa565b9050610f258382612d23565b9b50610f31868a615c00565b98505050505050505b50610fbb565b6101065484516040516239c6e160ea1b81526001600160a01b039092169163e71b840091610f72918690600401615bcf565b602060405180830381865afa158015610f8f573d6000803e3d6000fd5b505050506040513d601f19601f82011682018060405250810190610fb39190615b8e565b915050610b5d565b610fc5828a615c00565b93505050509450945094915050565b6001600160a01b037f00000000000000000000000000000000000000000000000000000000000000001630036110255760405162461bcd60e51b815260040161101c90615c54565b60405180910390fd5b7f00000000000000000000000000000000000000000000000000000000000000006001600160a01b031661106e600080516020615e3f833981519152546001600160a01b031690565b6001600160a01b0316146110945760405162461bcd60e51b815260040161101c90615ca0565b61109d81612d59565b604080516000808252602082019092526110b991839190612d61565b50565b61110460405180610100016040528060008152602001600081526020016000815260200160008152602001600081526020016000815260200160008152602001600081525090565b61010554604051635670bcc760e11b81526001600160a01b038b811660048301529091169063ace1798e90602401602060405180830381865afa15801561114f573d6000803e3d6000fd5b505050506040513d601f19601f820116820180604052508101906111739190615b4c565b60c08201819052611189908a9084908b90612ecc565b6111928961082a565b60e082015287815261010a5460c08201516040516352576cdf60e01b81526000926001600160a01b0316916352576cdf916111d4918e918b9190600401615bab565b6020604051808303816000875af11580156111f3573d6000803e3d6000fd5b505050506040513d601f19601f820116820180604052508101906112179190615cec565b15611223575084611410565b61010654604051637608271560e01b81526001600160a01b038c8116600483015290911690637608271590602401602060405180830381865afa15801561126e573d6000803e3d6000fd5b505050506040513d601f19601f820116820180604052508101906112929190615b8e565b90505b6001600160a01b03811615801590611391575060fc54604051633c557a6f60e11b81526001600160a01b038c81166004830152909116906378aaf4de90602401602060405180830381865afa1580156112f2573d6000803e3d6000fd5b505050506040513d601f19601f820116820180604052508101906113169190615b4c565b61010a5460c084015160405163b1eafaab60e01b81526001600160a01b039092169163b1eafaab9161134e918f918791600401615bab565b602060405180830381865afa15801561136b573d6000803e3d6000fd5b505050506040513d601f19601f8201168201806040525081019061138f9190615b4c565b105b1561141057610106546040516239c6e160ea1b81526001600160a01b039091169063e71b8400906113c8908d908590600401615bcf565b602060405180830381865afa1580156113e5573d6000803e3d6000fd5b505050506040513d601f19601f820116820180604052508101906114099190615b8e565b9050611295565b8360000361141e5760001993505b6001600160a01b038116158015906114365750815115155b801561144157508315155b156115a3578361145081615be9565b610106546040516239c6e160ea1b8152919650600092506001600160a01b03169063e71b840090611487908e908690600401615bcf565b602060405180830381865afa1580156114a4573d6000803e3d6000fd5b505050506040513d601f19601f820116820180604052508101906114c89190615b8e565b61010a5460405163df4fb9ef60e01b81529192506001600160a01b03169063df4fb9ef906114fc908e908690600401615bcf565b600060405180830381600087803b15801561151657600080fd5b505af115801561152a573d6000803e3d6000fd5b5050505060006115478c8486600001518760c001518e8e8d613180565b905080604001511561155a5750506115a3565b8051602085015161156b9190615b7b565b60208086019190915281015160408501516115869190615b7b565b6040850152805184516115999190615c00565b845250905061141e565b81604001516000036115c8576040516323cfe49f60e01b815260040160405180910390fd5b61010a5460408084015160c085015160e0860151925163c5d75f7b60e01b81526001600160a01b038f811660048301526024820193909352604481019190915260648101929092529091169063c5d75f7b906084016020604051808303816000875af115801561163c573d6000803e3d6000fd5b505050506040513d601f19601f820116820180604052508101906116609190615b4c565b5061010a546040838101519051631ee9211f60e01b81526001600160a01b038d811660048301526024820192909252911690631ee9211f90604401602060405180830381865afa1580156116b8573d6000803e3d6000fd5b505050506040513d601f19601f820116820180604052508101906116dc9190615b4c565b6060830181905260408301516116f3919085613565565b61010a5460208301516060840151604080860151905163025eeff360e41b81526001600160a01b038f811660048301523360248301526044820194909452606481019290925260848201529116906325eeff309060a401600060405180830381600087803b15801561176457600080fd5b505af1158015611778573d6000803e3d6000fd5b50505050896001600160a01b03167f08b6f1ce3f9ab2722e8ea40c31a3e3a806a41702c5994f29af43dc0c1f2837df8a8460200151856040015186606001516040516117dd949392919093845260208401929092526040830152606082015260800190565b60405180910390a250505050505050505050565b6001600160a01b037f00000000000000000000000000000000000000000000000000000000000000001630036118395760405162461bcd60e51b815260040161101c90615c54565b7f00000000000000000000000000000000000000000000000000000000000000006001600160a01b0316611882600080516020615e3f833981519152546001600160a01b031690565b6001600160a01b0316146118a85760405162461bcd60e51b815260040161101c90615ca0565b6118b182612d59565b6118bd82826001612d61565b5050565b6000306001600160a01b037f000000000000000000000000000000000000000000000000000000000000000016146119615760405162461bcd60e51b815260206004820152603860248201527f555550535570677261646561626c653a206d757374206e6f742062652063616c60448201527f6c6564207468726f7567682064656c656761746563616c6c0000000000000000606482015260840161101c565b50600080516020615e3f83398151915290565b61197c61364b565b6119b06040518060a00160405280600081526020016000815260200160001515815260200160008152602001600081525090565b6119b861568e565b61010554604051635670bcc760e11b81526001600160a01b0386811660048301529091169063ace1798e90602401602060405180830381865afa158015611a03573d6000803e3d6000fd5b505050506040513d601f19601f82011682018060405250810190611a279190615b4c565b82526101075460408051630d9a6b3560e01b815290516001600160a01b0390921691630d9a6b35916004808201926020929091908290030181865afa158015611a74573d6000803e3d6000fd5b505050506040513d601f19601f82011682018060405250810190611a989190615b4c565b60208301528151611aaa9085906136a4565b1580156040840152611ad157611aca848360000151846020015186613729565b9050611ae8565b611ae5848360000151846020015186613bba565b90505b8060200151600003611b0d57604051636d1dff1f60e11b815260040160405180910390fd5b61010a5460c082015160e0830151608084015160a0850151604051637012f7fb60e01b81526001600160a01b038a811660048301526024820195909552604481019390935260648301919091526084820152911690637012f7fb9060a401600060405180830381600087803b158015611b8557600080fd5b505af1158015611b99573d6000803e3d6000fd5b50505050806101000151600014611c1b5760fb5460fe546101008301516040516347878f1560e01b81526001600160a01b03938416936347878f1593611be8938a939290911691600401615bab565b600060405180830381600087803b158015611c0257600080fd5b505af1158015611c16573d6000803e3d6000fd5b505050505b61010a54604082810151905163da3835ad60e01b81526001600160a01b038781166004830152602482019290925291169063da3835ad90604401600060405180830381600087803b158015611c6f57600080fd5b505af1158015611c83573d6000803e3d6000fd5b505050602082015160608401525061010081015160408201518251611ca89190615c00565b611cb29190615c00565b6080808401829052606080850151604080860151868401518251938452602084019690965290820152908101929092526001600160a01b038616917fa3f221854f649364e9a3bb384dd1ff938482664f4a0eac0f6e39a542f5193bd3910160405180910390a261010a546060820151604080840151905163b65c72bf60e01b81526001600160a01b0388811660048301523360248301526044820193909352606481019190915291169063b65c72bf90608401600060405180830381600087803b158015611d7f57600080fd5b505af1158015611d93573d6000803e3d6000fd5b5050505050506118bd6001606555565b611dab613da3565b60ff80546001600160a01b0319166001600160a01b0392909216919091179055565b61010a54604051631636001d60e01b81526001600160a01b0386811660048301526000928392839283921690631636001d90602401602060405180830381865afa158015611e1f573d6000803e3d6000fd5b505050506040513d601f19601f82011682018060405250810190611e439190615b4c565b905080600003611e5d5760008086935093509350506120bc565b61010654604051637608271560e01b81526001600160a01b038a8116600483015290911690637608271590602401602060405180830381865afa158015611ea8573d6000803e3d6000fd5b505050506040513d601f19601f82011682018060405250810190611ecc9190615b8e565b61010a546040516390ec230160e01b8152919550611f4c9189916001600160a01b0316906390ec230190611f06908d908a90600401615bcf565b602060405180830381865afa158015611f23573d6000803e3d6000fd5b505050506040513d601f19601f82011682018060405250810190611f479190615b4c565b613dfd565b925084915060015b868110156120b95760408051602081018590520160408051601f19818403018152919052805160209091012092506000611f8e8385615d0e565b61010a54604051630bf8f6c560e31b81526001600160a01b038d811660048301526024820184905292935060009290911690635fc7b62890604401602060405180830381865afa158015611fe6573d6000803e3d6000fd5b505050506040513d601f19601f8201168201806040525081019061200a9190615b8e565b61010a546040516390ec230160e01b81529192506000916001600160a01b03909116906390ec230190612043908f908690600401615bcf565b602060405180830381865afa158015612060573d6000803e3d6000fd5b505050506040513d601f19601f820116820180604052508101906120849190615b4c565b90506000612092828d613dfd565b9050878110156120a3578097508298505b846120ad81615d22565b95505050505050611f54565b50505b9450945094915050565b6120ce613da3565b6120d86000613e20565b565b600054610100900460ff16158080156120fa5750600054600160ff909116105b806121145750303b158015612114575060005460ff166001145b6121775760405162461bcd60e51b815260206004820152602e60248201527f496e697469616c697a61626c653a20636f6e747261637420697320616c72656160448201526d191e481a5b9a5d1a585b1a5e995960921b606482015260840161101c565b6000805460ff19166001179055801561219a576000805461ff0019166101001790555b6121a2613e72565b6121aa613ea1565b6121b2613ec8565b80156110b9576000805461ff0019169055604051600181527f7f26b83ff96e1f2b6a682f133852f6798a09c465da95921460cefb3847402498906020015b60405180910390a150565b61010a54604051633670757d60e01b81526001600160a01b0390911690633670757d9061222e9085908590600401615bcf565b602060405180830381865afa15801561224b573d6000803e3d6000fd5b505050506040513d601f19601f8201168201806040525081019061226f9190615cec565b61228c5760405163ea67e57360e01b815260040160405180910390fd5b6040805160018082528183019092526000916020808301908036833701905050905081816000815181106122c2576122c2615d3b565b60200260200101906001600160a01b031690816001600160a01b0316815250506122ec838261239c565b505050565b60fb54604051635373433f60e01b81526001600160a01b0383811660048301526000928392911690635373433f90602401602060405180830381865afa15801561233f573d6000803e3d6000fd5b505050506040513d601f19601f820116820180604052508101906123639190615b4c565b61010154604051635373433f60e01b81526001600160a01b03868116600483015292935060009290911690635373433f906024016108d1565b6123a461364b565b805115806123b3575060198151115b156123d15760405163156c2bf560e01b815260040160405180910390fd5b6124056040518060a00160405280600081526020016000815260200160001515815260200160008152602001600081525090565b61240d61568e565b61010760009054906101000a90046001600160a01b03166001600160a01b0316630d9a6b356040518163ffffffff1660e01b8152600401602060405180830381865afa158015612461573d6000803e3d6000fd5b505050506040513d601f19601f820116820180604052508101906124859190615b4c565b602083015261010554604051635670bcc760e11b81526001600160a01b0386811660048301529091169063ace1798e90602401602060405180830381865afa1580156124d5573d6000803e3d6000fd5b505050506040513d601f19601f820116820180604052508101906124f99190615b4c565b8083526125079085906136a4565b158015604084015261252757611aca848360000151846020015186613ef7565b611ae584836000015184602001518661428e565b612543613da3565b61010b54600160a01b900460ff161561259e5760405162461bcd60e51b815260206004820152601c60248201527f536574757020697320616c726561647920696e697469616c697a656400000000604482015260640161101c565b600f81146125ee5760405162461bcd60e51b815260206004820152601e60248201527f4578706563746564203135206164647265737365732061742073657475700000604482015260640161101c565b60005b600f81101561267d57600083838381811061260e5761260e615d3b565b90506020020160208101906126239190615730565b6001600160a01b03160361266b5760405162461bcd60e51b815260206004820152600f60248201526e496e76616c6964206164647265737360881b604482015260640161101c565b8061267581615d22565b9150506125f1565b508181600081811061269157612691615d3b565b90506020020160208101906126a69190615730565b60fb80546001600160a01b0319166001600160a01b0392909216919091179055818160018181106126d9576126d9615d3b565b90506020020160208101906126ee9190615730565b60fc80546001600160a01b0319166001600160a01b03929092169190911790558181600281811061272157612721615d3b565b90506020020160208101906127369190615730565b60fd80546001600160a01b0319166001600160a01b03929092169190911790558181600381811061276957612769615d3b565b905060200201602081019061277e9190615730565b60fe80546001600160a01b0319166001600160a01b0392909216919091179055818160048181106127b1576127b1615d3b565b90506020020160208101906127c69190615730565b61010080546001600160a01b0319166001600160a01b0392909216919091179055818160058181106127fa576127fa615d3b565b905060200201602081019061280f9190615730565b61010180546001600160a01b0319166001600160a01b03929092169190911790558181600681811061284357612843615d3b565b90506020020160208101906128589190615730565b61010280546001600160a01b0319166001600160a01b03929092169190911790558181600781811061288c5761288c615d3b565b90506020020160208101906128a19190615730565b61010380546001600160a01b0319166001600160a01b0392909216919091179055818160088181106128d5576128d5615d3b565b90506020020160208101906128ea9190615730565b61010580546001600160a01b0319166001600160a01b03929092169190911790558181600981811061291e5761291e615d3b565b90506020020160208101906129339190615730565b61010680546001600160a01b0319166001600160a01b03929092169190911790558181600a81811061296757612967615d3b565b905060200201602081019061297c9190615730565b61010780546001600160a01b0319166001600160a01b03929092169190911790558181600b8181106129b0576129b0615d3b565b90506020020160208101906129c59190615730565b61010880546001600160a01b0319166001600160a01b03929092169190911790558181600c8181106129f9576129f9615d3b565b9050602002016020810190612a0e9190615730565b61010980546001600160a01b0319166001600160a01b03929092169190911790558181600d818110612a4257612a42615d3b565b9050602002016020810190612a579190615730565b61010a80546001600160a01b0319166001600160a01b03929092169190911790558181600e818110612a8b57612a8b615d3b565b9050602002016020810190612aa09190615730565b61010b80546001600160a81b0319166001600160a01b039290921691909117600160a01b1790555050565b610108546001600160a01b03163314612af75760405163a5b37b1560e01b815260040160405180910390fd5b6125e4811080612b08575061271081115b15612b2657604051631260a6a960e31b815260040160405180910390fd5b61012d8190556040518181527f39e82d837dcc454e3b68bd2a39ec088a78af1570fa1a2de0b9b2e2d45c1158c6906020016121f0565b6000612b688383612d23565b90505b92915050565b612b79613da3565b6001600160a01b038116612bde5760405162461bcd60e51b815260206004820152602660248201527f4f776e61626c653a206e6577206f776e657220697320746865207a65726f206160448201526564647265737360d01b606482015260840161101c565b6110b981613e20565b612bef613da3565b61010480546001600160a01b0319166001600160a01b0392909216919091179055565b6110b981612d59565b60fc5460405163c08261db60e01b81526001600160a01b038481166004830152600092169063c08261db90602401602060405180830381865afa158015612c66573d6000803e3d6000fd5b505050506040513d601f19601f82011682018060405250810190612c8a9190615b4c565b612b689083615c00565b6000818310612ca35781612b68565b5090919050565b60fc5460405163c08261db60e01b81526001600160a01b038481166004830152600092169063c08261db90602401602060405180830381865afa158015612cf5573d6000803e3d6000fd5b505050506040513d601f19601f82011682018060405250810190612d199190615b4c565b612b689083615b7b565b60008115612d505781612d3f68056bc75e2d6310000085615c13565b612d499190615c40565b9050612b6b565b50600019612b6b565b6110b9613da3565b7f4910fdfa16fed3260ed0e7147f7cc6da11a60208b5b9406d12a635614ffd91435460ff1615612d94576122ec8361440b565b826001600160a01b03166352d1902d6040518163ffffffff1660e01b8152600401602060405180830381865afa925050508015612dee575060408051601f3d908101601f19168201909252612deb91810190615b4c565b60015b612e515760405162461bcd60e51b815260206004820152602e60248201527f45524331393637557067726164653a206e657720696d706c656d656e7461746960448201526d6f6e206973206e6f74205555505360901b606482015260840161101c565b600080516020615e3f8339815191528114612ec05760405162461bcd60e51b815260206004820152602960248201527f45524331393637557067726164653a20756e737570706f727465642070726f786044820152681a58589b195555525160ba1b606482015260840161101c565b506122ec8383836144a7565b60fc54604051633d15092560e21b81526001600160a01b038681166004830152600092169063f454249490602401602060405180830381865afa158015612f17573d6000803e3d6000fd5b505050506040513d601f19601f82011682018060405250810190612f3b9190615b4c565b905042811115612f5e576040516346351edb60e11b815260040160405180910390fd5b60fc5460405163443c4fcb60e01b81526001600160a01b038781166004830152600092169063443c4fcb90602401602060405180830381865afa158015612fa9573d6000803e3d6000fd5b505050506040513d601f19601f82011682018060405250810190612fcd9190615b4c565b905080851080612fe45750670de0b6b3a764000085115b1561301357604051636c52a2bb60e11b815260048101829052670de0b6b3a7640000602482015260440161101c565b8360000361303457604051631bfb249760e01b815260040160405180910390fd5b610100546040516370a0823160e01b81523360048201526000916001600160a01b0316906370a0823190602401602060405180830381865afa15801561307e573d6000803e3d6000fd5b505050506040513d601f19601f820116820180604052508101906130a29190615b4c565b9050848110156130c85760405163fdba74d160e01b81526004810182905260240161101c565b60006130d488866144cc565b60fc54604051633c557a6f60e11b81526001600160a01b038b81166004830152929350600092909116906378aaf4de90602401602060405180830381865afa158015613124573d6000803e3d6000fd5b505050506040513d601f19601f820116820180604052508101906131489190615b4c565b90508082101561317557604051630ef8221160e31b8152600481018390526024810182905260440161101c565b505050505050505050565b6131a6604051806060016040528060008152602001600081526020016000151581525090565b61010a54604051637f8da42560e01b81526000916001600160a01b031690637f8da425906131da908c908c90600401615bcf565b602060405180830381865afa1580156131f7573d6000803e3d6000fd5b505050506040513d601f19601f8201168201806040525081019061321b9190615b4c565b61010a546040516341f0f4bd60e01b81529192506000916001600160a01b03909116906341f0f4bd90613254908d908d90600401615bcf565b602060405180830381865afa158015613271573d6000803e3d6000fd5b505050506040513d601f19601f820116820180604052508101906132959190615b4c565b60fc5460405163c08261db60e01b81526001600160a01b038d811660048301529293506132ce928b92169063c08261db90602401610d5e565b80845287906132e690670de0b6b3a764000090615c13565b6132f09190615c40565b6020840181905261012d54612710916133099190615c13565b6133139190615c40565b602084015282516000906133279084615c00565b9050600084602001518361333b9190615c00565b60fc5460405163c08261db60e01b81526001600160a01b038f8116600483015292935091169063c08261db90602401602060405180830381865afa158015613387573d6000803e3d6000fd5b505050506040513d601f19601f820116820180604052508101906133ab9190615b4c565b820361341d5761010a5460405163456dc0ff60e11b81526001600160a01b0390911690638adb81fe906133e6908f908f908690600401615bab565b600060405180830381600087803b15801561340057600080fd5b505af1158015613414573d6000803e3d6000fd5b50505050613555565b60006134298284612d23565b905086811415806134af575060fc546040516321b443a360e21b81526001600160a01b038f81166004830152909116906386d10e8c90602401602060405180830381865afa15801561347f573d6000803e3d6000fd5b505050506040513d601f19601f820116820180604052508101906134a39190615b4c565b6134ad8e85612c1b565b105b156134c6575050600160408501525061355a915050565b61010a5460405163038027ff60e21b81526001600160a01b038f811660048301528e811660248301526044820186905260648201859052608482018490528b811660a48301528a811660c483015290911690630e009ffc9060e401600060405180830381600087803b15801561353b57600080fd5b505af115801561354f573d6000803e3d6000fd5b50505050505b505050505b979650505050505050565b60008260fc60009054906101000a90046001600160a01b03166001600160a01b031663a20baee66040518163ffffffff1660e01b8152600401602060405180830381865afa1580156135bb573d6000803e3d6000fd5b505050506040513d601f19601f820116820180604052508101906135df9190615b4c565b6135e99086615c13565b6135f39190615c40565b9050818111156136455760405162461bcd60e51b815260206004820152601d60248201527f4665652065786365656465642070726f7669646564206d6178696d756d000000604482015260640161101c565b50505050565b60026065540361369d5760405162461bcd60e51b815260206004820152601f60248201527f5265656e7472616e637947756172643a207265656e7472616e742063616c6c00604482015260640161101c565b6002606555565b6000806136b184846144cc565b60fc5460405163316a306d60e11b81526001600160a01b0387811660048301529293509116906362d460da90602401602060405180830381865afa1580156136fd573d6000803e3d6000fd5b505050506040513d601f19601f820116820180604052508101906137219190615b4c565b119392505050565b61373161568e565b6137396156da565b61374161568e565b848252600060608301526137548761082a565b6080830152613762876122f1565b60a083015261010654604051637608271560e01b81526001600160a01b03898116600483015290911690637608271590602401602060405180830381865afa1580156137b2573d6000803e3d6000fd5b505050506040513d601f19601f820116820180604052508101906137d69190615b8e565b6001600160a01b03908116604084810191909152610106549051631bdb4c8d60e01b815289831660048201526000929190911690631bdb4c8d90602401602060405180830381865afa158015613830573d6000803e3d6000fd5b505050506040513d601f19601f820116820180604052508101906138549190615b8e565b905060005b858110801561387e5750816001600160a01b031684604001516001600160a01b031614155b15613bae576101065460408086015190516239c6e160ea1b81526000926001600160a01b03169163e71b8400916138b9918e91600401615bcf565b602060405180830381865afa1580156138d6573d6000803e3d6000fd5b505050506040513d601f19601f820116820180604052508101906138fa9190615b8e565b61010a54604080880151905163b1eafaab60e01b81529293506001600160a01b039091169163b1eafaab91613936918e91908e90600401615bab565b602060405180830381865afa158015613953573d6000803e3d6000fd5b505050506040513d601f19601f820116820180604052508101906139779190615b4c565b60208601526060850151613ad35760fc54604051633c557a6f60e11b81526001600160a01b038c81166004830152909116906378aaf4de90602401602060405180830381865afa1580156139cf573d6000803e3d6000fd5b505050506040513d601f19601f820116820180604052508101906139f39190615b4c565b856020015110158015613a0557508451155b15613a105750613bae565b6000613a258660a0015187608001518c6144fb565b9050613a418b876040015188602001518960000151858f61452f565b60808101518751919650613a5491615c00565b865260808086015190870151613a6a9190615c00565b6080870152610100850151604086015160a08088015190890151613a8e9190615c00565b613a989190615c00565b613aa29190615c00565b60a0870152613ab18786614e0e565b9650613ac78b8760a0015188608001518d614ef8565b15606087015250613b98565b84606001518015613b54575060fc54604051633c557a6f60e11b81526001600160a01b038c81166004830152909116906378aaf4de90602401602060405180830381865afa158015613b29573d6000803e3d6000fd5b505050506040513d601f19601f82011682018060405250810190613b4d9190615b4c565b8560200151105b15613b9257613b6c8a86604001518760000151614f80565b60808101518651919550613b7f91615c00565b8552613b8b8685614e0e565b9550613b98565b50613bae565b6001600160a01b03166040850152600101613859565b50505050949350505050565b613bc261568e565b613bca6156da565b613bd261568e565b84825260005b84811015613d915761010654604051637608271560e01b81526001600160a01b038a8116600483015290911690637608271590602401602060405180830381865afa158015613c2b573d6000803e3d6000fd5b505050506040513d601f19601f82011682018060405250810190613c4f9190615b8e565b6001600160a01b03908116604080860182905261010a54905163b1eafaab60e01b815292169163b1eafaab91613c8c918c91908c90600401615bab565b602060405180830381865afa158015613ca9573d6000803e3d6000fd5b505050506040513d601f19601f82011682018060405250810190613ccd9190615b4c565b602084015260fc54604051633c557a6f60e11b81526001600160a01b038a81166004830152909116906378aaf4de90602401602060405180830381865afa158015613d1c573d6000803e3d6000fd5b505050506040513d601f19601f82011682018060405250810190613d409190615b4c565b83602001511015613d8457613d5e8884604001518560000151614f80565b60808101518451919350613d7191615c00565b8352613d7d8483614e0e565b9350613d89565b613d91565b600101613bd8565b505050949350505050565b6001606555565b60c9546001600160a01b031633146120d85760405162461bcd60e51b815260206004820181905260248201527f4f776e61626c653a2063616c6c6572206973206e6f7420746865206f776e6572604482015260640161101c565b600081831015613e1657613e118383615c00565b612b68565b612b688284615c00565b60c980546001600160a01b038381166001600160a01b0319831681179093556040519116919082907f8be0079c531659141344cd1fd0a4f28419497f9722a3daafe3b4186f6b6457e090600090a35050565b600054610100900460ff16613e995760405162461bcd60e51b815260040161101c90615d51565b6120d8615290565b600054610100900460ff166120d85760405162461bcd60e51b815260040161101c90615d51565b600054610100900460ff16613eef5760405162461bcd60e51b815260040161101c90615d51565b6120d86152c0565b613eff61568e565b613f076156da565b613f0f61568e565b84825260006060830152613f228761082a565b6080830152613f30876122f1565b60a083015260005b8451811015613d9157848181518110613f5357613f53615d3b565b60209081029190910101516001600160a01b03166040840152600161010a54604080860151905163d9721b6360e01b81526001600160a01b039092169163d9721b6391613fa5918d9190600401615bcf565b602060405180830381865afa158015613fc2573d6000803e3d6000fd5b505050506040513d601f19601f82011682018060405250810190613fe69190615b4c565b14613ff357600101613f38565b61010a54604080850151905163b1eafaab60e01b81526001600160a01b039092169163b1eafaab9161402c918c91908c90600401615bab565b602060405180830381865afa158015614049573d6000803e3d6000fd5b505050506040513d601f19601f8201168201806040525081019061406d9190615b4c565b602084015260608301516141cb5760fc54604051633c557a6f60e11b81526001600160a01b038a81166004830152909116906378aaf4de90602401602060405180830381865afa1580156140c5573d6000803e3d6000fd5b505050506040513d601f19601f820116820180604052508101906140e99190615b4c565b8360200151101580156140fb57508251155b1561410857600101613f38565b600061411d8460a0015185608001518a6144fb565b905061413989856040015186602001518760000151858d61452f565b6080810151855191945061414c91615c00565b8452608080840151908501516141629190615c00565b6080850152610100830151604084015160a080860151908701516141869190615c00565b6141909190615c00565b61419a9190615c00565b60a08501526141a98584614e0e565b94506141bf898560a0015186608001518b614ef8565b15606085015250614286565b8260600151801561424c575060fc54604051633c557a6f60e11b81526001600160a01b038a81166004830152909116906378aaf4de90602401602060405180830381865afa158015614221573d6000803e3d6000fd5b505050506040513d601f19601f820116820180604052508101906142459190615b4c565b8360200151105b15614286576142648884604001518560000151614f80565b6080810151845191935061427791615c00565b83526142838483614e0e565b93505b600101613f38565b61429661568e565b61429e6156da565b6142a661568e565b84825260005b8451811015613d91578481815181106142c7576142c7615d3b565b60209081029190910101516001600160a01b03908116604080860182905261010a54905163b1eafaab60e01b815292169163b1eafaab9161430f918c91908c90600401615bab565b602060405180830381865afa15801561432c573d6000803e3d6000fd5b505050506040513d601f19601f820116820180604052508101906143509190615b4c565b602084015260fc54604051633c557a6f60e11b81526001600160a01b038a81166004830152909116906378aaf4de90602401602060405180830381865afa15801561439f573d6000803e3d6000fd5b505050506040513d601f19601f820116820180604052508101906143c39190615b4c565b83602001511015614403576143e18884604001518560000151614f80565b608081015184519193506143f491615c00565b83526144008483614e0e565b93505b6001016142ac565b6001600160a01b0381163b6144785760405162461bcd60e51b815260206004820152602d60248201527f455243313936373a206e657720696d706c656d656e746174696f6e206973206e60448201526c1bdd08184818dbdb9d1c9858dd609a1b606482015260840161101c565b600080516020615e3f83398151915280546001600160a01b0319166001600160a01b0392909216919091179055565b6144b0836152e7565b6000825111806144bd5750805b156122ec576136458383615327565b6000806144d8846122f1565b905060006144e58561082a565b90506144f28282866144fb565b95945050505050565b60008215614523576000836145108487615c13565b61451a9190615c40565b91506145289050565b506000195b9392505050565b61453761568e565b61455b60405180606001604052806000815260200160008152602001600081525090565b61010a54604051631636001d60e01b81526001600160a01b038a811660048301526001921690631636001d90602401602060405180830381865afa1580156145a7573d6000803e3d6000fd5b505050506040513d601f19601f820116820180604052508101906145cb9190615b4c565b116145d65750614e04565b61010a546040516309bde83560e21b81526001600160a01b03909116906326f7a0d490614609908b908b90600401615bcf565b608060405180830381865afa158015614626573d6000803e3d6000fd5b505050506040513d601f19601f8201168201806040525081019061464a9190615d9c565b6040850152602084810191909152840181905290835261466b90899061534c565b60408381019190915260fc54905163c08261db60e01b81526001600160a01b038a811660048301529091169063c08261db90602401602060405180830381865afa1580156146bd573d6000803e3d6000fd5b505050506040513d601f19601f820116820180604052508101906146e19190615b4c565b6060830152604082015160208301516146fa9190615c00565b815260fc546040805163397f12d560e11b815290516001600160a01b03909216916372fe25aa916004808201926020929091908290030181865afa158015614746573d6000803e3d6000fd5b505050506040513d601f19601f8201168201806040525081019061476a9190615b4c565b86116149205761010a546020820151604080840151905163679eaf8f60e11b81526001600160a01b039093169263cf3d5f1e926147ab928d92600401615788565b600060405180830381600087803b1580156147c557600080fd5b505af11580156147d9573d6000803e3d6000fd5b505061010a54604051633ed3a18f60e21b81526001600160a01b03909116925063fb4e863c9150614810908b908b90600401615bcf565b600060405180830381600087803b15801561482a57600080fd5b505af115801561483e573d6000803e3d6000fd5b505060006080850181905260a08501525050815160c0830152805160e083015261010a54604051637027c5ff60e01b81526001600160a01b0390911690637027c5ff90614891908b908b90600401615bcf565b600060405180830381600087803b1580156148ab57600080fd5b505af11580156148bf573d6000803e3d6000fd5b50505050866001600160a01b0316886001600160a01b03167f39bd24c0cc7c11940a19ed0ec77cf1a6d4ea1149f82d15a064003a7cbda7966a84600001518560200151600260405161491393929190615dd2565b60405180910390a3614e02565b60fc60009054906101000a90046001600160a01b03166001600160a01b03166372fe25aa6040518163ffffffff1660e01b8152600401602060405180830381865afa158015614973573d6000803e3d6000fd5b505050506040513d601f19601f820116820180604052508101906149979190615b4c565b86118015614a11575060fc54604051633c557a6f60e11b81526001600160a01b038a81166004830152909116906378aaf4de90602401602060405180830381865afa1580156149ea573d6000803e3d6000fd5b505050506040513d601f19601f82011682018060405250810190614a0e9190615b4c565b86105b15614b3f5761010a546020820151604080840151905163679eaf8f60e11b81526001600160a01b039093169263cf3d5f1e92614a51928d92600401615788565b600060405180830381600087803b158015614a6b57600080fd5b505af1158015614a7f573d6000803e3d6000fd5b505061010a54604051633ed3a18f60e21b81526001600160a01b03909116925063fb4e863c9150614ab6908b908b90600401615bcf565b600060405180830381600087803b158015614ad057600080fd5b505af1158015614ae4573d6000803e3d6000fd5b505083518351614af89350909150876153c5565b60e086015260c085015260a0840152608083015261010a54604051637027c5ff60e01b81526001600160a01b0390911690637027c5ff90614891908b908b90600401615bcf565b60fc54604051633c557a6f60e11b81526001600160a01b038a81166004830152909116906378aaf4de90602401602060405180830381865afa158015614b89573d6000803e3d6000fd5b505050506040513d601f19601f82011682018060405250810190614bad9190615b4c565b8610158015614bbb57508386105b8015614bc8575081518510155b15614df15761010a546020820151604080840151905163679eaf8f60e11b81526001600160a01b039093169263cf3d5f1e92614c08928d92600401615788565b600060405180830381600087803b158015614c2257600080fd5b505af1158015614c36573d6000803e3d6000fd5b5050505084600003614c4a57614c4a615e0c565b61010a54604051633ed3a18f60e21b81526001600160a01b039091169063fb4e863c90614c7d908b908b90600401615bcf565b600060405180830381600087803b158015614c9757600080fd5b505af1158015614cab573d6000803e3d6000fd5b50505050614cc3888360000151846020015186615426565b61010a54604051637027c5ff60e01b81529193506001600160a01b031690637027c5ff90614cf7908b908b90600401615bcf565b600060405180830381600087803b158015614d1157600080fd5b505af1158015614d25573d6000803e3d6000fd5b50505050816101000151600014614da15760fe54610100830151604051633fa5152d60e21b81526001600160a01b039092169163fe9454b491614d6e918c918c91600401615bab565b600060405180830381600087803b158015614d8857600080fd5b505af1158015614d9c573d6000803e3d6000fd5b505050505b866001600160a01b0316886001600160a01b03167f39bd24c0cc7c11940a19ed0ec77cf1a6d4ea1149f82d15a064003a7cbda7966a84600001518560a00151600260405161491393929190615dd2565b614df961568e565b9150614e049050565b505b9695505050505050565b614e1661568e565b81604001518360400151614e2a9190615b7b565b604082015260608083015190840151614e439190615b7b565b606082015281516020840151614e599190615b7b565b6020808301919091528201518351614e719190615b7b565b815260808083015190840151614e879190615b7b565b608082015260a08083015190840151614ea09190615b7b565b60a082015260c08083015190840151614eb99190615b7b565b60c082015260e08083015190840151614ed29190615b7b565b60e08201526101008083015190840151614eec9190615b7b565b61010082015292915050565b600080614f068585856144fb565b60fc5460405163316a306d60e11b81526001600160a01b0389811660048301529293509116906362d460da90602401602060405180830381865afa158015614f52573d6000803e3d6000fd5b505050506040513d601f19601f82011682018060405250810190614f769190615b4c565b1195945050505050565b614f8861568e565b614fac60405180606001604052806000815260200160008152602001600081525090565b61010a546040516309bde83560e21b81526001600160a01b03909116906326f7a0d490614fdf9088908890600401615bcf565b608060405180830381865afa158015614ffc573d6000803e3d6000fd5b505050506040513d601f19601f820116820180604052508101906150209190615d9c565b6040808601918252602086810193845287019390935292855261010a5490519251915163679eaf8f60e11b81526001600160a01b039091169263cf3d5f1e9261506f928a929190600401615788565b600060405180830381600087803b15801561508957600080fd5b505af115801561509d573d6000803e3d6000fd5b505061010a54604051633ed3a18f60e21b81526001600160a01b03909116925063fb4e863c91506150d49088908890600401615bcf565b600060405180830381600087803b1580156150ee57600080fd5b505af1158015615102573d6000803e3d6000fd5b5050505061511485836020015161534c565b60408381019190915260fc54905163c08261db60e01b81526001600160a01b0387811660048301529091169063c08261db90602401602060405180830381865afa158015615166573d6000803e3d6000fd5b505050506040513d601f19601f8201168201806040525081019061518a9190615b4c565b6060830152604082015160208301516000916151a591615c00565b90506151b6836000015182866153c5565b60e087015260c086015260a0850152608084015261010a54604051637027c5ff60e01b81526001600160a01b0390911690637027c5ff906151fd9089908990600401615bcf565b600060405180830381600087803b15801561521757600080fd5b505af115801561522b573d6000803e3d6000fd5b50505050846001600160a01b0316866001600160a01b03167f39bd24c0cc7c11940a19ed0ec77cf1a6d4ea1149f82d15a064003a7cbda7966a85600001518660200151600160405161527f93929190615dd2565b60405180910390a350509392505050565b600054610100900460ff166152b75760405162461bcd60e51b815260040161101c90615d51565b6120d833613e20565b600054610100900460ff16613d9c5760405162461bcd60e51b815260040161101c90615d51565b6152f08161440b565b6040516001600160a01b038216907fbc7cd75a20ee27fd9adebab32041f755214dbc6bffa90cc0225b39da2e5c2d3b90600090a250565b6060612b688383604051806060016040528060278152602001615e5f60279139615587565b60fc546040516315ee08fb60e31b81526001600160a01b038481166004830152600092169063af7047d890602401602060405180830381865afa158015615397573d6000803e3d6000fd5b505050506040513d601f19601f820116820180604052508101906153bb9190615b4c565b612b689083615c40565b60008080808415615410576153da8786612c94565b9350866153e78588615c13565b6153f19190615c40565b92506153fd8488615c00565b91506154098387615c00565b905061541d565b5060009250829150859050845b93509350935093565b61542e61568e565b8381526020810183905260fc54604051633c557a6f60e11b81526001600160a01b03878116600483015260009285929116906378aaf4de90602401602060405180830381865afa158015615486573d6000803e3d6000fd5b505050506040513d601f19601f820116820180604052508101906154aa9190615b4c565b6154b49087615c13565b6154be9190615c40565b90506154ca868261534c565b60408381019190915260fc54905163c08261db60e01b81526001600160a01b0388811660048301529091169063c08261db90602401602060405180830381865afa15801561551c573d6000803e3d6000fd5b505050506040513d601f19601f820116820180604052508101906155409190615b4c565b606083015260808201859052604082015161555b9082615c00565b60a083015261556a8185615c00565b61010083015250600060c0820181905260e0820152949350505050565b6060600080856001600160a01b0316856040516155a49190615e22565b600060405180830381855af49150503d80600081146155df576040519150601f19603f3d011682016040523d82523d6000602084013e6155e4565b606091505b5091509150614e04868383876060831561565f578251600003615658576001600160a01b0385163b6156585760405162461bcd60e51b815260206004820152601d60248201527f416464726573733a2063616c6c20746f206e6f6e2d636f6e7472616374000000604482015260640161101c565b508161091e565b61091e83838151156156745781518083602001fd5b8060405162461bcd60e51b815260040161101c91906159a2565b6040518061012001604052806000815260200160008152602001600081526020016000815260200160008152602001600081526020016000815260200160008152602001600081525090565b6040518060c00160405280600081526020016000815260200160006001600160a01b0316815260200160001515815260200160008152602001600081525090565b6001600160a01b03811681146110b957600080fd5b60006020828403121561574257600080fd5b81356145288161571b565b6000806000806080858703121561576357600080fd5b843561576e8161571b565b966020860135965060408601359560600135945092505050565b6001600160a01b039390931683526020830191909152604082015260600190565b600080600080600080600080610100898b0312156157c657600080fd5b88356157d18161571b565b97506020890135965060408901356157e88161571b565b955060608901356157f88161571b565b945060808901356158088161571b565b979a969950949793969560a0850135955060c08501359460e001359350915050565b634e487b7160e01b600052604160045260246000fd5b604051601f8201601f1916810167ffffffffffffffff811182821017156158695761586961582a565b604052919050565b6000806040838503121561588457600080fd5b823561588f8161571b565b915060208381013567ffffffffffffffff808211156158ad57600080fd5b818601915086601f8301126158c157600080fd5b8135818111156158d3576158d361582a565b6158e5601f8201601f19168501615840565b915080825287848285010111156158fb57600080fd5b80848401858401376000848284010152508093505050509250929050565b6000806040838503121561592c57600080fd5b82356159378161571b565b946020939093013593505050565b6000806040838503121561595857600080fd5b82356159638161571b565b915060208301356159738161571b565b809150509250929050565b60005b83811015615999578181015183820152602001615981565b50506000910152565b60208152600082518060208401526159c181604085016020870161597e565b601f01601f19169190910160400192915050565b600080604083850312156159e857600080fd5b82356159f38161571b565b915060208381013567ffffffffffffffff80821115615a1157600080fd5b818601915086601f830112615a2557600080fd5b813581811115615a3757615a3761582a565b8060051b9150615a48848301615840565b8181529183018401918481019089841115615a6257600080fd5b938501935b83851015615a8c5784359250615a7c8361571b565b8282529385019390850190615a67565b8096505050505050509250929050565b60008060208385031215615aaf57600080fd5b823567ffffffffffffffff80821115615ac757600080fd5b818501915085601f830112615adb57600080fd5b813581811115615aea57600080fd5b8660208260051b8501011115615aff57600080fd5b60209290920196919550909350505050565b600060208284031215615b2357600080fd5b5035919050565b60008060408385031215615b3d57600080fd5b50508035926020909101359150565b600060208284031215615b5e57600080fd5b5051919050565b634e487b7160e01b600052601160045260246000fd5b80820180821115612b6b57612b6b615b65565b600060208284031215615ba057600080fd5b81516145288161571b565b6001600160a01b039384168152919092166020820152604081019190915260600190565b6001600160a01b0392831681529116602082015260400190565b600081615bf857615bf8615b65565b506000190190565b81810381811115612b6b57612b6b615b65565b8082028115828204841417612b6b57612b6b615b65565b634e487b7160e01b600052601260045260246000fd5b600082615c4f57615c4f615c2a565b500490565b6020808252602c908201527f46756e6374696f6e206d7573742062652063616c6c6564207468726f7567682060408201526b19195b1959d85d1958d85b1b60a21b606082015260800190565b6020808252602c908201527f46756e6374696f6e206d7573742062652063616c6c6564207468726f7567682060408201526b6163746976652070726f787960a01b606082015260800190565b600060208284031215615cfe57600080fd5b8151801515811461452857600080fd5b600082615d1d57615d1d615c2a565b500690565b600060018201615d3457615d34615b65565b5060010190565b634e487b7160e01b600052603260045260246000fd5b6020808252602b908201527f496e697469616c697a61626c653a20636f6e7472616374206973206e6f74206960408201526a6e697469616c697a696e6760a81b606082015260800190565b60008060008060808587031215615db257600080fd5b505082516020840151604085015160609095015191969095509092509050565b838152602081018390526060810160048310615dfe57634e487b7160e01b600052602160045260246000fd5b826040830152949350505050565b634e487b7160e01b600052600160045260246000fd5b60008251615e3481846020870161597e565b919091019291505056fe360894a13ba1a3210667c828492db98dca3e2076cc3735a920a3ca505d382bbc416464726573733a206c6f772d6c6576656c2064656c65676174652063616c6c206661696c6564a264697066735822122018e17e2eff59ef976160e006d2b837c5069e5284a21d35bc5b0bdb94bdf43dbb64736f6c63430008130033",
  "linkReferences": {},
  "deployedLinkReferences": {}
}