{
  "_format": "hh-sol-artifact-1",
  "contractName": "DebtToken",
  "sourceName": "contracts/DebtToken.sol",
  "abi": [
    {
      "inputs": [],
      "stateMutability": "nonpayable",
      "type": "constructor"
    },
    {
      "anonymous": false,
      "inputs": [
        {
          "indexed": true,
          "internalType": "address",
          "name": "owner",
          "type": "address"
        },
        {
          "indexed": true,
          "internalType": "address",
          "name": "spender",
          "type": "address"
        },
        {
          "indexed": false,
          "internalType": "uint256",
          "name": "value",
          "type": "uint256"
        }
      ],
      "name": "Approval",
      "type": "event"
    },
    {
      "anonymous": false,
      "inputs": [
        {
          "indexed": false,
          "internalType": "address",
          "name": "_asset",
          "type": "address"
        },
        {
          "indexed": false,
          "internalType": "bool",
          "name": "state",
          "type": "bool"
        }
      ],
      "name": "EmergencyStopMintingCollateral",
      "type": "event"
    },
    {
      "anonymous": false,
      "inputs": [
        {
          "indexed": true,
          "internalType": "address",
          "name": "previousOwner",
          "type": "address"
        },
        {
          "indexed": true,
          "internalType": "address",
          "name": "newOwner",
          "type": "address"
        }
      ],
      "name": "OwnershipTransferred",
      "type": "event"
    },
    {
      "anonymous": false,
      "inputs": [
        {
          "indexed": false,
          "internalType": "address",
          "name": "_user",
          "type": "address"
        },
        {
          "indexed": false,
          "internalType": "uint256",
          "name": "_amount",
          "type": "uint256"
        }
      ],
      "name": "TokenBalanceUpdated",
      "type": "event"
    },
    {
      "anonymous": false,
      "inputs": [
        {
          "indexed": true,
          "internalType": "address",
          "name": "from",
          "type": "address"
        },
        {
          "indexed": true,
          "internalType": "address",
          "name": "to",
          "type": "address"
        },
        {
          "indexed": false,
          "internalType": "uint256",
          "name": "value",
          "type": "uint256"
        }
      ],
      "name": "Transfer",
      "type": "event"
    },
    {
      "anonymous": false,
      "inputs": [
        {
          "indexed": false,
          "internalType": "address",
          "name": "_whitelisted",
          "type": "address"
        },
        {
          "indexed": false,
          "internalType": "bool",
          "name": "whitelisted",
          "type": "bool"
        }
      ],
      "name": "WhitelistChanged",
      "type": "event"
    },
    {
      "inputs": [],
      "name": "NAME",
      "outputs": [
        {
          "internalType": "string",
          "name": "",
          "type": "string"
        }
      ],
      "stateMutability": "view",
      "type": "function"
    },
    {
      "inputs": [],
      "name": "PERMIT_TYPEHASH",
      "outputs": [
        {
          "internalType": "bytes32",
          "name": "",
          "type": "bytes32"
        }
      ],
      "stateMutability": "view",
      "type": "function"
    },
    {
      "inputs": [
        {
          "internalType": "address",
          "name": "_address",
          "type": "address"
        }
      ],
      "name": "addWhitelist",
      "outputs": [],
      "stateMutability": "nonpayable",
      "type": "function"
    },
    {
      "inputs": [
        {
          "internalType": "address",
          "name": "owner",
          "type": "address"
        },
        {
          "internalType": "address",
          "name": "spender",
          "type": "address"
        }
      ],
      "name": "allowance",
      "outputs": [
        {
          "internalType": "uint256",
          "name": "",
          "type": "uint256"
        }
      ],
      "stateMutability": "view",
      "type": "function"
    },
    {
      "inputs": [
        {
          "internalType": "address",
          "name": "spender",
          "type": "address"
        },
        {
          "internalType": "uint256",
          "name": "amount",
          "type": "uint256"
        }
      ],
      "name": "approve",
      "outputs": [
        {
          "internalType": "bool",
          "name": "",
          "type": "bool"
        }
      ],
      "stateMutability": "nonpayable",
      "type": "function"
    },
    {
      "inputs": [
        {
          "internalType": "address",
          "name": "account",
          "type": "address"
        }
      ],
      "name": "balanceOf",
      "outputs": [
        {
          "internalType": "uint256",
          "name": "",
          "type": "uint256"
        }
      ],
      "stateMutability": "view",
      "type": "function"
    },
    {
      "inputs": [],
      "name": "borrowerOperationsAddress",
      "outputs": [
        {
          "internalType": "address",
          "name": "",
          "type": "address"
        }
      ],
      "stateMutability": "view",
      "type": "function"
    },
    {
      "inputs": [
        {
          "internalType": "address",
          "name": "_account",
          "type": "address"
        },
        {
          "internalType": "uint256",
          "name": "_amount",
          "type": "uint256"
        }
      ],
      "name": "burn",
      "outputs": [],
      "stateMutability": "nonpayable",
      "type": "function"
    },
    {
      "inputs": [
        {
          "internalType": "uint256",
          "name": "_amount",
          "type": "uint256"
        }
      ],
      "name": "burnFromWhitelistedContract",
      "outputs": [],
      "stateMutability": "nonpayable",
      "type": "function"
    },
    {
      "inputs": [],
      "name": "decimals",
      "outputs": [
        {
          "internalType": "uint8",
          "name": "",
          "type": "uint8"
        }
      ],
      "stateMutability": "view",
      "type": "function"
    },
    {
      "inputs": [
        {
          "internalType": "address",
          "name": "spender",
          "type": "address"
        },
        {
          "internalType": "uint256",
          "name": "subtractedValue",
          "type": "uint256"
        }
      ],
      "name": "decreaseAllowance",
      "outputs": [
        {
          "internalType": "bool",
          "name": "",
          "type": "bool"
        }
      ],
      "stateMutability": "nonpayable",
      "type": "function"
    },
    {
      "inputs": [],
      "name": "domainSeparator",
      "outputs": [
        {
          "internalType": "bytes32",
          "name": "",
          "type": "bytes32"
        }
      ],
      "stateMutability": "view",
      "type": "function"
    },
    {
      "inputs": [
        {
          "internalType": "address",
          "name": "_asset",
          "type": "address"
        },
        {
          "internalType": "bool",
          "name": "status",
          "type": "bool"
        }
      ],
      "name": "emergencyStopMinting",
      "outputs": [],
      "stateMutability": "nonpayable",
      "type": "function"
    },
    {
      "inputs": [
        {
          "internalType": "address",
          "name": "",
          "type": "address"
        }
      ],
      "name": "emergencyStopMintingCollateral",
      "outputs": [
        {
          "internalType": "bool",
          "name": "",
          "type": "bool"
        }
      ],
      "stateMutability": "view",
      "type": "function"
    },
    {
      "inputs": [
        {
          "internalType": "address",
          "name": "spender",
          "type": "address"
        },
        {
          "internalType": "uint256",
          "name": "addedValue",
          "type": "uint256"
        }
      ],
      "name": "increaseAllowance",
      "outputs": [
        {
          "internalType": "bool",
          "name": "",
          "type": "bool"
        }
      ],
      "stateMutability": "nonpayable",
      "type": "function"
    },
    {
      "inputs": [
        {
          "internalType": "address",
          "name": "_asset",
          "type": "address"
        },
        {
          "internalType": "address",
          "name": "_account",
          "type": "address"
        },
        {
          "internalType": "uint256",
          "name": "_amount",
          "type": "uint256"
        }
      ],
      "name": "mint",
      "outputs": [],
      "stateMutability": "nonpayable",
      "type": "function"
    },
    {
      "inputs": [
        {
          "internalType": "uint256",
          "name": "_amount",
          "type": "uint256"
        }
      ],
      "name": "mintFromWhitelistedContract",
      "outputs": [],
      "stateMutability": "nonpayable",
      "type": "function"
    },
    {
      "inputs": [],
      "name": "name",
      "outputs": [
        {
          "internalType": "string",
          "name": "",
          "type": "string"
        }
      ],
      "stateMutability": "view",
      "type": "function"
    },
    {
      "inputs": [
        {
          "internalType": "address",
          "name": "owner",
          "type": "address"
        }
      ],
      "name": "nonces",
      "outputs": [
        {
          "internalType": "uint256",
          "name": "",
          "type": "uint256"
        }
      ],
      "stateMutability": "view",
      "type": "function"
    },
    {
      "inputs": [],
      "name": "owner",
      "outputs": [
        {
          "internalType": "address",
          "name": "",
          "type": "address"
        }
      ],
      "stateMutability": "view",
      "type": "function"
    },
    {
      "inputs": [
        {
          "internalType": "address",
          "name": "owner",
          "type": "address"
        },
        {
          "internalType": "address",
          "name": "spender",
          "type": "address"
        },
        {
          "internalType": "uint256",
          "name": "amount",
          "type": "uint256"
        },
        {
          "internalType": "uint256",
          "name": "deadline",
          "type": "uint256"
        },
        {
          "internalType": "uint8",
          "name": "v",
          "type": "uint8"
        },
        {
          "internalType": "bytes32",
          "name": "r",
          "type": "bytes32"
        },
        {
          "internalType": "bytes32",
          "name": "s",
          "type": "bytes32"
        }
      ],
      "name": "permit",
      "outputs": [],
      "stateMutability": "nonpayable",
      "type": "function"
    },
    {
      "inputs": [
        {
          "internalType": "address",
          "name": "_address",
          "type": "address"
        }
      ],
      "name": "removeWhitelist",
      "outputs": [],
      "stateMutability": "nonpayable",
      "type": "function"
    },
    {
      "inputs": [],
      "name": "renounceOwnership",
      "outputs": [],
      "stateMutability": "nonpayable",
      "type": "function"
    },
    {
      "inputs": [
        {
          "internalType": "address",
          "name": "_poolAddress",
          "type": "address"
        },
        {
          "internalType": "address",
          "name": "_receiver",
          "type": "address"
        },
        {
          "internalType": "uint256",
          "name": "_amount",
          "type": "uint256"
        }
      ],
      "name": "returnFromPool",
      "outputs": [],
      "stateMutability": "nonpayable",
      "type": "function"
    },
    {
      "inputs": [
        {
          "internalType": "address",
          "name": "_sender",
          "type": "address"
        },
        {
          "internalType": "address",
          "name": "_poolAddress",
          "type": "address"
        },
        {
          "internalType": "uint256",
          "name": "_amount",
          "type": "uint256"
        }
      ],
      "name": "sendToPool",
      "outputs": [],
      "stateMutability": "nonpayable",
      "type": "function"
    },
    {
      "inputs": [
        {
          "internalType": "address",
          "name": "_borrowerOperationsAddress",
          "type": "address"
        },
        {
          "internalType": "address",
          "name": "_stabilityPoolAddress",
          "type": "address"
        },
        {
          "internalType": "address",
          "name": "_vesselManagerAddress",
          "type": "address"
        }
      ],
      "name": "setAddresses",
      "outputs": [],
      "stateMutability": "nonpayable",
      "type": "function"
    },
    {
      "inputs": [],
      "name": "stabilityPoolAddress",
      "outputs": [
        {
          "internalType": "address",
          "name": "",
          "type": "address"
        }
      ],
      "stateMutability": "view",
      "type": "function"
    },
    {
      "inputs": [],
      "name": "symbol",
      "outputs": [
        {
          "internalType": "string",
          "name": "",
          "type": "string"
        }
      ],
      "stateMutability": "view",
      "type": "function"
    },
    {
      "inputs": [],
      "name": "totalSupply",
      "outputs": [
        {
          "internalType": "uint256",
          "name": "",
          "type": "uint256"
        }
      ],
      "stateMutability": "view",
      "type": "function"
    },
    {
      "inputs": [
        {
          "internalType": "address",
          "name": "recipient",
          "type": "address"
        },
        {
          "internalType": "uint256",
          "name": "amount",
          "type": "uint256"
        }
      ],
      "name": "transfer",
      "outputs": [
        {
          "internalType": "bool",
          "name": "",
          "type": "bool"
        }
      ],
      "stateMutability": "nonpayable",
      "type": "function"
    },
    {
      "inputs": [
        {
          "internalType": "address",
          "name": "sender",
          "type": "address"
        },
        {
          "internalType": "address",
          "name": "recipient",
          "type": "address"
        },
        {
          "internalType": "uint256",
          "name": "amount",
          "type": "uint256"
        }
      ],
      "name": "transferFrom",
      "outputs": [
        {
          "internalType": "bool",
          "name": "",
          "type": "bool"
        }
      ],
      "stateMutability": "nonpayable",
      "type": "function"
    },
    {
      "inputs": [
        {
          "internalType": "address",
          "name": "newOwner",
          "type": "address"
        }
      ],
      "name": "transferOwnership",
      "outputs": [],
      "stateMutability": "nonpayable",
      "type": "function"
    },
    {
      "inputs": [],
      "name": "vesselManagerAddress",
      "outputs": [
        {
          "internalType": "address",
          "name": "",
          "type": "address"
        }
      ],
      "stateMutability": "view",
      "type": "function"
    },
    {
      "inputs": [
        {
          "internalType": "address",
          "name": "",
          "type": "address"
        }
      ],
      "name": "whitelistedContracts",
      "outputs": [
        {
          "internalType": "bool",
          "name": "",
          "type": "bool"
        }
      ],
      "stateMutability": "view",
      "type": "function"
    }
  ],
  "bytecode": "0x6101206040523480156200001257600080fd5b506040518060400160405280601281526020017123b930bb34ba30902232b13a102a37b5b2b760711b815250604051806040016040528060048152602001634752414960e01b81525081600390816200006c9190620002e8565b5060046200007b8282620002e8565b5050506000620000906200015760201b60201c565b805160209182012060408051808201825260018152603160f81b9084015260e08290527fc89efdaa54c0f20c7adf612882df0950f5a951637e0307cdcb4c672f298b8bc66101008190524660a081815283517f6e71edae12b1b97f4d1f60370fef10105fa2faae0126114a169c64845d6126c98188015280850186905260608101849052608081019290925230828201528351808303909101815260c09091019092528151919093012090925060805250503060c0526200015133620001f1565b620003b4565b606060038054620001689062000259565b80601f0160208091040260200160405190810160405280929190818152602001828054620001969062000259565b8015620001e75780601f10620001bb57610100808354040283529160200191620001e7565b820191906000526020600020905b815481529060010190602001808311620001c957829003601f168201915b5050505050905090565b600680546001600160a01b038381166001600160a01b0319831681179093556040519116919082907f8be0079c531659141344cd1fd0a4f28419497f9722a3daafe3b4186f6b6457e090600090a35050565b634e487b7160e01b600052604160045260246000fd5b600181811c908216806200026e57607f821691505b6020821081036200028f57634e487b7160e01b600052602260045260246000fd5b50919050565b601f821115620002e357600081815260208120601f850160051c81016020861015620002be5750805b601f850160051c820191505b81811015620002df57828155600101620002ca565b5050505b505050565b81516001600160401b0381111562000304576200030462000243565b6200031c8162000315845462000259565b8462000295565b602080601f8311600181146200035457600084156200033b5750858301515b600019600386901b1c1916600185901b178555620002df565b600085815260208120601f198616915b82811015620003855788860151825594840194600190910190840162000364565b5085821015620003a45787850151600019600388901b60f8161c191681555b5050505050600190811b01905550565b60805160a05160c05160e05161010051611b98620003f96000396000610c7601526000610c5101526000610baa01526000610bd401526000610bfe0152611b986000f3fe608060405234801561001057600080fd5b50600436106102065760003560e01c80638da5cb5b1161011a578063b95aac76116100ad578063dd62ed3e1161007c578063dd62ed3e146104a4578063f2fde38b146104b7578063f698da25146104ca578063f7f4d9da146104d2578063f80f5dd5146104e557600080fd5b8063b95aac7614610458578063bb997bac1461046b578063c6c3bbe61461047e578063d505accf1461049157600080fd5b8063a3f4df7e116100e9578063a3f4df7e146103fc578063a457c2d71461041f578063a9059cbb14610432578063b7f8cf9b1461044557600080fd5b80638da5cb5b146103ad57806395d89b41146103be5780639dc29fac146103c6578063a1285d17146103d957600080fd5b8063359959071161019d5780635b32a4391161016c5780635b32a4391461034357806370a0823114610356578063715018a61461037f57806378c8cda7146103875780637ecebe001461039a57600080fd5b806335995907146102e7578063363bf964146102fa578063391feebb1461030d578063395093511461033057600080fd5b806320c582be116101d957806320c582be1461028957806323b872dd1461029e57806330adf81f146102b1578063313ce567146102d857600080fd5b806306fdde031461020b578063095ea7b3146102295780630b622ab21461024c57806318160ddd14610277575b600080fd5b6102136104f8565b60405161022091906118c8565b60405180910390f35b61023c610237366004611932565b61058a565b6040519015158152602001610220565b60085461025f906001600160a01b031681565b6040516001600160a01b039091168152602001610220565b6002545b604051908152602001610220565b61029c61029736600461195c565b6105a4565b005b61023c6102ac36600461195c565b6105bc565b61027b7f6e71edae12b1b97f4d1f60370fef10105fa2faae0126114a169c64845d6126c981565b60405160128152602001610220565b61029c6102f5366004611998565b6105da565b61029c6103083660046119d4565b610645565b61023c61031b366004611a17565b600b6020526000908152604090205460ff1681565b61023c61033e366004611932565b610703565b60095461025f906001600160a01b031681565b61027b610364366004611a17565b6001600160a01b031660009081526020819052604090205490565b61029c610725565b61029c610395366004611a17565b610739565b61027b6103a8366004611a17565b61079f565b6006546001600160a01b031661025f565b6102136107bd565b61029c6103d4366004611932565b6107cc565b61023c6103e7366004611a17565b600a6020526000908152604090205460ff1681565b610213604051806040016040528060048152602001634752414960e01b81525081565b61023c61042d366004611932565b6107e2565b61023c610440366004611932565b610868565b60075461025f906001600160a01b031681565b61029c610466366004611a32565b610884565b61029c61047936600461195c565b610899565b61029c61048c36600461195c565b6108a1565b61029c61049f366004611a4b565b610927565b61027b6104b2366004611abe565b610afc565b61029c6104c5366004611a17565b610b27565b61027b610b9d565b61029c6104e0366004611a32565b610cc4565b61029c6104f3366004611a17565b610cd6565b60606003805461050790611af1565b80601f016020809104026020016040519081016040528092919081815260200182805461053390611af1565b80156105805780601f1061055557610100808354040283529160200191610580565b820191906000526020600020905b81548152906001019060200180831161056357829003601f168201915b5050505050905090565b600033610598818585610d39565b60019150505b92915050565b6105ac610e5d565b6105b7838383610ef2565b505050565b60006105c783611098565b6105d2848484611148565b949350505050565b6105e2611161565b6001600160a01b0382166000818152600a6020908152604091829020805460ff19168515159081179091558251938452908301527f5bbb1afddf32881824ddeb3fb7fe693cbb0aa35de2ef25c53ad5e8e8d44c2720910160405180910390a15050565b61064d611161565b6001600160a01b0383161580159061066d57506001600160a01b03821615155b801561068157506001600160a01b03811615155b6106c45760405162461bcd60e51b815260206004820152600f60248201526e496e76616c6964206164647265737360881b60448201526064015b60405180910390fd5b600780546001600160a01b039485166001600160a01b031991821617909155600880549385169382169390931790925560098054919093169116179055565b6000336105988185856107168383610afc565b6107209190611b2b565b610d39565b61072d611161565b61073760006111bb565b565b610741611161565b6001600160a01b0381166000818152600b60209081526040808320805460ff191690558051938452908301919091527fb840a1dbd8b09a3dc45161bba92dfb9aba643c0e44c085a447f839d1d02cf13b91015b60405180910390a150565b6001600160a01b03811660009081526005602052604081205461059e565b60606004805461050790611af1565b6107d461120d565b6107de82826112d3565b5050565b600033816107f08286610afc565b9050838110156108505760405162461bcd60e51b815260206004820152602560248201527f45524332303a2064656372656173656420616c6c6f77616e63652062656c6f77604482015264207a65726f60d81b60648201526084016106bb565b61085d8286868403610d39565b506001949350505050565b600061087383611098565b61087d8383611405565b9392505050565b61088c611413565b61089633826112d3565b50565b6105ac611484565b6108a96114f1565b6001600160a01b0383166000908152600a602052604090205460ff161561091d5760405162461bcd60e51b815260206004820152602260248201527f4d696e7420697320626c6f636b6564206f6e207468697320636f6c6c61746572604482015261185b60f21b60648201526084016106bb565b6105b7828261155f565b834211156109775760405162461bcd60e51b815260206004820152601860248201527f5065726d69743a206578706972656420646561646c696e65000000000000000060448201526064016106bb565b6001600160a01b0387166000908152600560205260408120907f6e71edae12b1b97f4d1f60370fef10105fa2faae0126114a169c64845d6126c98989896109bc865490565b6040805160208101969096526001600160a01b0394851690860152929091166060840152608083015260a082015260c0810187905260e0016040516020818303038152906040528051906020012090506000611901610a19610b9d565b60405160f09290921b6001600160f01b03191660208301526022820152604281018390526062016040516020818303038152906040528051906020012090506000610a668288888861161e565b90506001600160a01b03811615801590610a9157508a6001600160a01b0316816001600160a01b0316145b610add5760405162461bcd60e51b815260206004820152601e60248201527f45524332305065726d69743a20496e76616c6964207369676e6174757265000060448201526064016106bb565b83546001018455610aef8b8b8b610d39565b5050505050505050505050565b6001600160a01b03918216600090815260016020908152604080832093909416825291909152205490565b610b2f611161565b6001600160a01b038116610b945760405162461bcd60e51b815260206004820152602660248201527f4f776e61626c653a206e6577206f776e657220697320746865207a65726f206160448201526564647265737360d01b60648201526084016106bb565b610896816111bb565b6000306001600160a01b037f000000000000000000000000000000000000000000000000000000000000000016148015610bf657507f000000000000000000000000000000000000000000000000000000000000000046145b15610c2057507f000000000000000000000000000000000000000000000000000000000000000090565b50604080517f6e71edae12b1b97f4d1f60370fef10105fa2faae0126114a169c64845d6126c96020808301919091527f0000000000000000000000000000000000000000000000000000000000000000828401527f000000000000000000000000000000000000000000000000000000000000000060608301524660808301523060a0808401919091528351808403909101815260c0909201909252805191012090565b610ccc611413565b610896338261155f565b610cde611161565b6001600160a01b0381166000818152600b6020908152604091829020805460ff191660019081179091558251938452908301527fb840a1dbd8b09a3dc45161bba92dfb9aba643c0e44c085a447f839d1d02cf13b9101610794565b6001600160a01b038316610d9b5760405162461bcd60e51b8152602060048201526024808201527f45524332303a20617070726f76652066726f6d20746865207a65726f206164646044820152637265737360e01b60648201526084016106bb565b6001600160a01b038216610dfc5760405162461bcd60e51b815260206004820152602260248201527f45524332303a20617070726f766520746f20746865207a65726f206164647265604482015261737360f01b60648201526084016106bb565b6001600160a01b0383811660008181526001602090815260408083209487168084529482529182902085905590518481527f8c5be1e5ebec7d5bd14f71427d1e84f3dd0314c0f7b2291e5b200ac8c7c3b925910160405180910390a3505050565b6009546001600160a01b0316331480610e8057506008546001600160a01b031633145b6107375760405162461bcd60e51b815260206004820152603c60248201527f44656274546f6b656e3a2043616c6c6572206973206e6569746865722056657360448201527f73656c4d616e61676572206e6f722053746162696c697479506f6f6c0000000060648201526084016106bb565b6001600160a01b038316610f565760405162461bcd60e51b815260206004820152602560248201527f45524332303a207472616e736665722066726f6d20746865207a65726f206164604482015264647265737360d81b60648201526084016106bb565b6001600160a01b038216610fb85760405162461bcd60e51b815260206004820152602360248201527f45524332303a207472616e7366657220746f20746865207a65726f206164647260448201526265737360e81b60648201526084016106bb565b6001600160a01b038316600090815260208190526040902054818110156110305760405162461bcd60e51b815260206004820152602660248201527f45524332303a207472616e7366657220616d6f756e7420657863656564732062604482015265616c616e636560d01b60648201526084016106bb565b6001600160a01b03848116600081815260208181526040808320878703905593871680835291849020805487019055925185815290927fddf252ad1be2c89b69c2b068fc378daa952ba7f163c4a11628f55a4df523b3ef910160405180910390a35b50505050565b6001600160a01b038116158015906110b957506001600160a01b0381163014155b6108965760405162461bcd60e51b815260206004820152605460248201527f44656274546f6b656e3a2043616e6e6f74207472616e7366657220746f6b656e60448201527f73206469726563746c7920746f2074686520746f6b656e20636f6e7472616374606482015273206f7220746865207a65726f206164647265737360601b608482015260a4016106bb565b600033611156858285611646565b61085d858585610ef2565b6006546001600160a01b031633146107375760405162461bcd60e51b815260206004820181905260248201527f4f776e61626c653a2063616c6c6572206973206e6f7420746865206f776e657260448201526064016106bb565b600680546001600160a01b038381166001600160a01b0319831681179093556040519116919082907f8be0079c531659141344cd1fd0a4f28419497f9722a3daafe3b4186f6b6457e090600090a35050565b6007546001600160a01b031633148061123057506009546001600160a01b031633145b8061124557506008546001600160a01b031633145b6107375760405162461bcd60e51b815260206004820152605360248201527f44656274546f6b656e3a2043616c6c6572206973206e65697468657220426f7260448201527f726f7765724f7065726174696f6e73206e6f722056657373656c4d616e6167656064820152721c881b9bdc8814dd18589a5b1a5d1e541bdbdb606a1b608482015260a4016106bb565b6001600160a01b0382166113335760405162461bcd60e51b815260206004820152602160248201527f45524332303a206275726e2066726f6d20746865207a65726f206164647265736044820152607360f81b60648201526084016106bb565b6001600160a01b038216600090815260208190526040902054818110156113a75760405162461bcd60e51b815260206004820152602260248201527f45524332303a206275726e20616d6f756e7420657863656564732062616c616e604482015261636560f01b60648201526084016106bb565b6001600160a01b0383166000818152602081815260408083208686039055600280548790039055518581529192917fddf252ad1be2c89b69c2b068fc378daa952ba7f163c4a11628f55a4df523b3ef910160405180910390a3505050565b600033610598818585610ef2565b336000908152600b602052604090205460ff166107375760405162461bcd60e51b815260206004820152602960248201527f44656274546f6b656e3a2043616c6c6572206973206e6f7420612077686974656044820152686c697374656420534360b81b60648201526084016106bb565b6008546001600160a01b031633146107375760405162461bcd60e51b815260206004820152602a60248201527f44656274546f6b656e3a2043616c6c6572206973206e6f742074686520537461604482015269189a5b1a5d1e541bdbdb60b21b60648201526084016106bb565b6007546001600160a01b031633146107375760405162461bcd60e51b815260206004820152602b60248201527f44656274546f6b656e3a2043616c6c6572206973206e6f7420426f72726f776560448201526a724f7065726174696f6e7360a81b60648201526084016106bb565b6001600160a01b0382166115b55760405162461bcd60e51b815260206004820152601f60248201527f45524332303a206d696e7420746f20746865207a65726f20616464726573730060448201526064016106bb565b80600260008282546115c79190611b2b565b90915550506001600160a01b038216600081815260208181526040808320805486019055518481527fddf252ad1be2c89b69c2b068fc378daa952ba7f163c4a11628f55a4df523b3ef910160405180910390a35050565b600080600061162f878787876116ba565b9150915061163c8161177e565b5095945050505050565b60006116528484610afc565b9050600019811461109257818110156116ad5760405162461bcd60e51b815260206004820152601d60248201527f45524332303a20696e73756666696369656e7420616c6c6f77616e636500000060448201526064016106bb565b6110928484848403610d39565b6000807f7fffffffffffffffffffffffffffffff5d576e7357a4501ddfe92f46681b20a08311156116f15750600090506003611775565b6040805160008082526020820180845289905260ff881692820192909252606081018690526080810185905260019060a0016020604051602081039080840390855afa158015611745573d6000803e3d6000fd5b5050604051601f1901519150506001600160a01b03811661176e57600060019250925050611775565b9150600090505b94509492505050565b600081600481111561179257611792611b4c565b0361179a5750565b60018160048111156117ae576117ae611b4c565b036117fb5760405162461bcd60e51b815260206004820152601860248201527f45434453413a20696e76616c6964207369676e6174757265000000000000000060448201526064016106bb565b600281600481111561180f5761180f611b4c565b0361185c5760405162461bcd60e51b815260206004820152601f60248201527f45434453413a20696e76616c6964207369676e6174757265206c656e6774680060448201526064016106bb565b600381600481111561187057611870611b4c565b036108965760405162461bcd60e51b815260206004820152602260248201527f45434453413a20696e76616c6964207369676e6174757265202773272076616c604482015261756560f01b60648201526084016106bb565b600060208083528351808285015260005b818110156118f5578581018301518582016040015282016118d9565b506000604082860101526040601f19601f8301168501019250505092915050565b80356001600160a01b038116811461192d57600080fd5b919050565b6000806040838503121561194557600080fd5b61194e83611916565b946020939093013593505050565b60008060006060848603121561197157600080fd5b61197a84611916565b925061198860208501611916565b9150604084013590509250925092565b600080604083850312156119ab57600080fd5b6119b483611916565b9150602083013580151581146119c957600080fd5b809150509250929050565b6000806000606084860312156119e957600080fd5b6119f284611916565b9250611a0060208501611916565b9150611a0e60408501611916565b90509250925092565b600060208284031215611a2957600080fd5b61087d82611916565b600060208284031215611a4457600080fd5b5035919050565b600080600080600080600060e0888a031215611a6657600080fd5b611a6f88611916565b9650611a7d60208901611916565b95506040880135945060608801359350608088013560ff81168114611aa157600080fd5b9699959850939692959460a0840135945060c09093013592915050565b60008060408385031215611ad157600080fd5b611ada83611916565b9150611ae860208401611916565b90509250929050565b600181811c90821680611b0557607f821691505b602082108103611b2557634e487b7160e01b600052602260045260246000fd5b50919050565b8082018082111561059e57634e487b7160e01b600052601160045260246000fd5b634e487b7160e01b600052602160045260246000fdfea2646970667358221220e24f74e37df9fc740c02122326c9f393e2335b8cb85473e1e5cb706c892599f664736f6c63430008130033",
  "linkReferences": {},
  "deployedLinkReferences": {}
}